:0400000007EF00F016
:0A0008004282E8ED08F0E8EF0CF08A
:100800000020202020202020202020202020202008
:10081000200054656D70657261747572613A2020B4
:0D0820002020002020202020203232000067
:10082E000001816F020E00017E6F000E0001806FCD
:10083E00000E00017D6F0CD0120E0001806F100EA5
:10084E0004D0770E0001806F300E00017D6F08D04E
:10085E00000181510C0AD8B4F4D7020AD8B4ECD7EF
:10086E00000E0001616F020E606F800E80C079F085
:10087E0000017A6B000179110001626F00017A515B
:10088E000001636F90EC07F0800E00016A6F040E9A
:10089E008AEC0AF0800E00016A6F0A0E79EC0BF0FA
:1008AE00000E0001616F010E606F000E0001636F9C
:1008BE00000E626F90EC07F0000E0001836F000EC9
:1008CE00826F1CD0000E0001616F090E606F000177
:1008DE00825100017225D96E0001835100017321EE
:1008EE00DA6EDF500001796F000179510001626FFD
:1008FE00636B90EC07F00001824B832B0001745167
:10090E000001796F7A6B000179510001825D00015F
:10091E007A5100018359D8A0D5D7000E0001616F1E
:10092E00010E606F81C062F00001636B90EC07F006
:10093E000C0E00018119D8A406D0800E00016A6F3A
:10094E000D0E79EC0BF0000182698369000E000137
:10095E00616F040E606F25EC07F00001605100011D
:10096E00846F00018207D8A0830700018251000125
:10097E008311D8B40AD0000184B107D0000184518C
:10098E0000017D150009D8B4E1D7800E00016A6F11
:10099E000D0E8AEC0AF00001825100018311D8B4C9
:1009AE00C6D0000E0001616F060E606F25EC07F0D9
:1009BE001B0E00016017000E00016117000160514F
:1009CE0000016111D8A4B0D0000E00017E6F0001AD
:1009DE008451000180150001796F000179A103D0C7
:1009EE00010E00017E6F0C0E00018119D8A49FD05C
:1009FE00000E0001616F0A0E606F25EC07F000011A
:100A0E0060510001846F000E0001616F0C0E606F6B
:100A1E0025EC07F000016051070B00017F6F00010C
:100A2E007F510001D8B42DD0F80E0001796FFF0E62
:100A3E0000017A6F00017F5184C07BF000017C6B56
:100A4E000001D8907B377C370001D8907B377C37FC
:100A5E000001D8907B377C3700017B27000E7C236A
:100A6E000001795100017B2700017A5100017C239E
:100A7E0077C0D9FF78C0DAFF7BC0DEFF7CC0DDFF18
:100A8E000BD000018451080D77C0D9FF78C0DAFF72
:100A9E00F3CFDEFFF4CFDDFF000184510001D8A4B7
:100AAE0003D0010E0001846F100E0001846503D087
:100ABE00100E0001846F000E0001836F000E826F16
:100ACE0017D00001825100017525D96E00018351A6
:100ADE0000017621DA6E000E0001616F090E606F63
:100AEE0025EC07F000016051DF6E0001824B832B75
:100AFE00000184510001796F7A6B00017951000178
:100B0E00825D00017A5100018359D8A0DAD7000125
:100B1E00825100017525D96E0001835100017621A5
:100B2E00DA6E000EDF6E03D0020E00017E6F000142
:100B3E007E5112001BEC0DF0870EF4EC0CF030EC35
:100B4E000DF00009D8A4FBD741EC0DF030EC0DF000
:100B5E000009D8A4FBD723EC0DF001C03DF002C074
:100B6E003EF0290E0F6EDC0E106E3E0E116E3DC065
:100B7E0009F03EC00AF07FEC0CF009C00CF00AC080
:100B8E000DF00BC00EF0ABEC06F00CC01BF00DC060
:100B9E001CF00EC01DF031EC06F01BC03DF01CC069
:100BAE003EF0000E2E6E000E2D6E000E2E6E000EFE
:100BBE002D6E2EBE06D02E500FE1030E2D5CD8B03A
:100BCE000BD02A0E2D24D96E000E2E20DA6E000EBA
:100BDE00DF6E2D4A2E2AEDD70A0E2D6E3DC001F086
:100BEE00026A000E046E0A0E036E33EC09F0015019
:100BFE00416E000E066E400E056E4150300F6DECCC
:100C0E000CF04150300F2A6E3DC001F0026A000E0A
:100C1E00046E0A0E036EECEC09F00150416E000EEC
:100C2E00066E410E056E4150300F6DEC0CF04150CA
:100C3E00300F2B6E000E066E420E056E430E6DECDF
:100C4E000CF02A0E026E000E036E44EC0CF03EEC1D
:100C5E000DF012001DC01FF0206A216A1C341F36D1
:100C6E0001E320801F50296E2950D8A409D0000E10
:100C7E001B6E000E1C6E000E1D6E000E1E6E120000
:100C8E00170E1F6E1BC020F01CC021F01DC022F0DD
:100C9E001F28236E04D0D890223221322032232EE8
:100CAE00FAD72050246E1C8EFF0E1B16FF0E1C163C
:100CBE00000E1D161B50256E1C50266E1D50276EE5
:100CCE00286A8E0E295E29AE16D02950800A8F0F03
:100CDE00D8B009D0000E1B6E000E1C6E000E1D6EDD
:100CEE00000E1E6E1200D890283227322632253280
:100CFE00293EF9D715D0170E29640FD0000E1B6EA2
:100D0E00000E1C6E000E1D6E000E1E6E1200D89090
:100D1E00253626362736283629062950D8A4F7D761
:100D2E002450D8B408D0281E271E261E256C000E6F
:100D3E0026222722282225C01BF026C01CF027C001
:100D4E001DF028C01EF012000EC012F0136A146AB5
:100D5E000D34123601E313801250156E1550D8A4BF
:100D6E0007D0000E0C6E000E0D6E000E0E6E1200F1
:100D7E0011C012F0136A146A1034123601E3138094
:100D8E0012501A6E1A50D8A407D0000E0C6E000E18
:100D9E000D6E000E0E6E12001A507B0F15260EC031
:100DAE001AF011501A1A800E1A160D8E108EFF0E92
:100DBE000F16FF0E1016000E1116000E166E000EF8
:100DCE00176E000E186E070E196E0CA006D00F507F
:100DDE0016261050172211501822D8900E320D32AE
:100DEE000C32D8900F3610361136192EEED7090E5A
:100DFE00196E0CA006D00F50162610501722115047
:100E0E001822D8900E320D320C32D890183217327A
:100E1E001632192EEED716C001F017C002F018C008
:100E2E0003F015C004F01AC005F0EEEC07F001C097
:100E3E000CF002C00DF003C00EF01200000E000107
:100E4E00676F000E666F8192829460C062F061C01F
:100E5E0063F0D8900001623763377E0E000162178F
:100E6E00000E6317800E000162110001646F000115
:100E7E0063510001656F000E0001696F080E686F07
:100E8E000001685100016911D8B41AD0000164AF95
:100E9E0004D00001626B622B02D00001626B8350A2
:100EAE0000016219FE0B6219836E81820001D890D7
:100EBE0064376537819200016807D8A06907E0D7CB
:100ECE00000E0001696F080E686F00016851000185
:100EDE006911D8B417D081820001D8906637673770
:100EEE0083A204D00001626B622B02D00001626B00
:100EFE000001625100016613819200016807D8A0BB
:100F0E006907E3D78284818266C060F067C061F0B2
:100F1E0012008192829460C064F061C065F0D89036
:100F2E000001643765377E0E000164150001666F9F
:100F3E000001676B000E0001696F080E686F0001FB
:100F4E00685100016911D8B41AD0000166AF04D0FF
:100F5E000001646B642B02D00001646B83500001AE
:100F6E006419FE0B6419836E81820001D890663776
:100F7E006737819200016807D8A06907E0D7000E95
:100F8E000001696F080E686F000168510001691158
:100F9E00D8B41AD0000162AF04D00001646B642B88
:100FAE0002D00001646B835000016419FE0B6419BA
:100FBE00836E81820001D89062376337819200017F
:100FCE006807D8A06907E0D7828481821200045096
:100FDE00D8B405D0015002100310D8A40CD0000EC6
:100FEE00016E000E026E000E036E1200042AD890DF
:100FFE00033202320132000E0114066E000E02148C
:10100E00076EFE0E0314086E065007100810D8B4B3
:10101E000CD0ECD7042A010E0126000E0222000E7F
:10102E000322D890033202320132000E0114066EF2
:10103E00000E0214076EFF0E0314086E0650071002
:10104E000810D8B406D0E6D70406D890013602367A
:10105E00033602BE03D0020E0460F6D704A0029E31
:10106E00D8900432045003120550D8A4038E01C048
:10107E0001F002C002F003C003F012000001646F21
:10108E00F00E8116F00E9316939C939A93988A9C69
:10109E008A9A8A98FFEC0CF0300E57EC0BF0050E86
:1010AE00B1EC0CF0300E57EC0BF0010EB1EC0CF075
:1010BE00320E57EC0BF0BAEC0BF00009D8A4FBD7AC
:1010CE00BAEC0BF00009D8A4FBD70001645157EC21
:1010DE000BF0BAEC0BF00009D8A4FBD7080E57ECB6
:1010EE000BF0BAEC0BF00009D8A4FBD70F0E57EC9F
:1010FE000BF0BAEC0BF00009D8A4FBD7010E57EC9D
:10110E000BF0BAEC0BF00009D8A4FBD7040E57EC89
:10111E000BF0BAEC0BF00009D8A4FBD7800E58ECFC
:10112E000AF0120081828186F4EC0BF0000E0001B1
:10113E00616F2A0E606F000E0001636F8D0E626F7D
:10114E0090EC07F0000E0001616F2B0E606F000E29
:10115E000001636F3E0E626F90EC07F0000E00010F
:10116E00616F2D0E606F000E0001636F1E0E626FB9
:10117E0090EC07F0000E0001616F2C0E606F000EF8
:10118E000001636F000E626F90EC07F0000E00011D
:10119E00616F150E606F000E0001636F400E626F7F
:1011AE0090EC07F0000E0001616F110E606F000EE3
:1011BE000001636F3D0E626F90EC07F05BEC0CF07C
:1011CE0012000600FACF2FF0FBCF30F0E9CF31F04E
:1011DE00EACF32F0E1CF33F0E2CF34F0D9CF35F0B1
:1011EE00DACF36F0F3CF37F0F4CF38F0F6CF39F060
:1011FE00F7CF3AF0F8CF3BF0F5CF3CF0F250FB09C9
:10120E00FF0AD8A40BD0A1EC0CF0F250FB0BF26E3F
:10121E00000E026E000E016E12EC0DF03CC0F5FFDA
:10122E003BC0F8FF3AC0F7FF39C0F6FF38C0F4FFF5
:10123E0037C0F3FF36C0DAFF35C0D9FF34C0E2FF46
:10124E0033C0E1FF32C0EAFF31C0E9FF30C0FBFF1F
:10125E002FC0FAFF42921100000E066E04AE06D0A9
:10126E00036C041ED8B0042A010E066E02AE06D020
:10127E00016C021ED8B0022A010E061A000E086E6C
:10128E00000E076E03500410D8B41CD0010E056E6C
:10129E0004D0D89003360436052A04AEFAD7D89077
:1012AE00073608360350015C04500258D8A005D00A
:1012BE000350015E0450025A0780D8900432033264
:1012CE00052EEDD70650D8B404D0076C081ED8B042
:1012DE00082A07C001F008C002F012000001876F53
:1012EE00000E0001616F0D0E606F000E0001636F46
:1012FE00070E626F90EC07F085C0D9FF86C0DAFF4B
:10130E0087C0DFFF85C072F086C073F0010E00014A
:10131E00746F85C075F086C076F0890E0001776F08
:10132E00000E0001786F0C0E17EC04F00001886FB0
:10133E00000188510001D8A407D0100E00018919B0
:10134E0000018A11D8B403D0020E0001886F00018B
:10135E008851120093929590958293969494CEEC28
:10136E000CF024EC0AF0D08EA00EF26EF184D50EA5
:10137E00D56E000E0001616F000E606F09EC0DF06E
:10138E0099EC08F08D0E00018B6F000E00018C6F32
:10139E00C0EC0CF00009D8B4F3D72BEC0CF0BAEC7F
:1013AE000BF00009D8A4FBD7400E58EC0AF0BAECAB
:1013BE000BF00009D8A4FBD7230E0001616F080EB5
:1013CE000001626F10EC0CF0DBD7000E066E02AE61
:1013DE0006D0016C021ED8B0022A010E066E04AEB3
:1013EE0004D0036C041ED8B0042A03500410D8B4E1
:1013FE0018D0010E056E04D0D89003360436052A97
:10140E0004AEFAD70350015C04500258D8A004D0A1
:10141E000350015E0450025AD89004320332052E56
:10142E00F1D70650D8B404D0016C021ED8B0022AEF
:10143E0001C001F002C002F012002BEC0CF0BAEC6D
:10144E000BF00009D8A4FBD791EC0CF0BAEC0BF022
:10145E000009D8A4FBD7000E58EC0AF0BAEC0BF03A
:10146E000009D8A4FBD7120E0001616F080E00010F
:10147E00626F10EC0CF0BAEC0BF00009D8A4FBD79D
:10148E00400E58EC0AF0BAEC0BF00009D8A4FBD7CA
:10149E00010E0001616F080E0001626F10EC0CF07E
:1014AE0012000001636FF00E9316F00E811600010C
:1014BE0063510001606F616B0001608F040E0001CB
:1014CE00626F00016135613360330001622FF9D71D
:1014DE00000160510F0B81128A9C8A9A36EC0DF036
:1014EE008A8836EC0DF08A98F00E81160001635151
:1014FE000F0B811236EC0DF08A8836EC0DF08A98BF
:10150E000F0E931212000001716F000E0001706F2A
:10151E00000E6F6F71C060F00001616B25EC07F07B
:10152E0060C06FF061C070F071C060F00001616B5F
:10153E0000016A5100016B6F6C6B00016B1D0001A5
:10154E006D6F00016C1D00016E6F00016F51000187
:10155E006D150001626F0001705100016E150001E2
:10156E00636F90EC07F01200056E000EC26E000E57
:10157E00C06ED89001303C0BC26E01C003F0033A2E
:10158E00F00E0316300E031602500F0B0310C16E31
:10159E0005C003F0D8900336D8900336380E0316E4
:1015AE0005C004F0043A0F0E0416070E041605507B
:1015BE00800B04100310C06E01AE03D09E9C9D8C58
:1015CE00F28CC2801200046EF00E9316F00E81168D
:1015DE000450016E026A018E040E036E0234023252
:1015EE000132032EFBD701500F0B81128A9C8A9A6F
:1015FE003AEC0DF08A883AEC0DF08A98F00E8116CE
:10160E0004500F0B81123AEC0DF08A883AEC0DF073
:10161E008A980F0E931212000001606FF00E93164F
:10162E00F00E8116000160390F0B0F0B81128A8AA2
:10163E008A9C36EC0DF08A8836EC0DF08A98F00E06
:10164E008116000160510F0B811236EC0DF08A8865
:10165E0036EC0DF08A980F0E93121200000E000158
:10166E00646F000E636F0BD0070E0001626F7D0E6C
:10167E00E82EFED7622FFCD70001634B642B0001CE
:10168E0060510001635D00016451800A0001626FC8
:10169E0000016151800A00016259D8B01200E4D7EE
:1016AE000001606FF00E9316F00E81160001603986
:1016BE000F0B0F0B81128A9C8A9A36EC0DF08A88DA
:1016CE0036EC0DF08A98F00E8116000160510F0B6A
:1016DE00811236EC0DF08A8836EC0DF08A980F0EDA
:1016EE009312120000016D6F000E00016C6F000E60
:1016FE006B6F6DC060F00001616B25EC07F060C090
:10170E006BF061C06CF06DC060F00001616B0001A8
:10171E006B5100016A110001626F00016C510001F2
:10172E00636F90EC07F01200016EF00E9316F00E40
:10173E00811601380F0B0F0B81128A8A8A9C3AECA4
:10174E000DF08A883AEC0DF08A98F00E8116015051
:10175E000F0B81123AEC0DF08A883AEC0DF08A9854
:10176E000F0E931212008A8C8A9A36EC0DF08A882C
:10177E0036EC0DF081A60AD08A9836EC0DF08A88E8
:10178E0036EC0DF08A988A9C010E12008A9836EC7F
:10179E000DF08A8836EC0DF08A988A9C000E1200A5
:1017AE008A8C8A9A3AEC0DF08A883AEC0DF081A672
:1017BE000AD08A983AEC0DF08A883AEC0DF08A98A5
:1017CE008A9C010E12008A983AEC0DF08A883AEC47
:1017DE000DF08A988A9C000E1200818600D000D0EF
:1017EE0000F0819600D000D000F0818600D000D0AD
:1017FE0000F0000E0001616F010E606F000E00011F
:10180E00636F0F0E626F90EC07F000D000D000F007
:10181E00120010D0BAEC0BF00009D8A4FBD761C0AF
:10182E00F6FF62C0F7FF0800F55013EC0BF0000155
:10183E00614B622B61C0F6FF62C0F7FF0800F550E6
:10184E000009D8B41200E6D7280E45EC08F0BAEC21
:10185E000BF00009D8A4FBD7060E57EC0BF0BAEC30
:10186E000BF00009D8A4FBD70C0E57EC0BF0BAEC1A
:10187E000BF00009D8B41200FAD7DBEC0CF009D04B
:10188E0002C0D9FF03C0DAFFDF502AEC0DF0024A86
:10189E00032A02C0D9FF03C0DAFFDF50D8A4F0D765
:1018AE000D0E2AEC0DF01200000E0001616F140EE9
:1018BE00606F25EC07F060C06EF061C06FF0030E34
:1018CE0000016A6F140E79EC0BF01200076ED7EC64
:1018DE000BF00009D8A4FBD70550EAEC0AF0D7ECC0
:1018EE000BF00009D8A4FBD707509BEC0BF01200AD
:1018FE0009C001F00AC002F0036A8E0E046E000EDB
:10190E00056EEEEC07F001C009F002C00AF003C04C
:10191E000BF01200BAEC0BF00009D8A4FBD7010EA5
:10192E0057EC0BF0000E0001616F500E606F35EC3E
:10193E000BF012003F4A402A310E3F180AE14004D4
:10194E00D8A41200A1EC05F0000E406E000E3F6E02
:10195E00120012000001616F0D0E0001606FFB0E90
:10196E00E82EFED7602FFCD700D00001612FF4D7F0
:10197E0012008BC085F08CC086F0260E75EC09F037
:10198E000009D8A402D0010E1200000E1200AC8A7B
:10199E00AC84AB88948E948CB896820EAF6EAB8E60
:1019AE00AB9CAC9CAC981200AC8AAC84AB88948E89
:1019BE00948CB896820EAF6EAB8EAB9CAC9CAC98F2
:1019CE001200416A406A3F6A3E6A3D6A4290429204
:1019DE00000EF86E0001B1EF09F0026EC2CF01F0F9
:1019EE00C30E0116D89002303C0B0110C26E1200CD
:1019FE00620E0001606F650EE82EFED7602FFCD7D9
:101A0E0000D0120060C062F061C063F063C0D7FF07
:101A1E0062C0D6FF120001C003F002C004F004C081
:101A2E00D7FF03C0D6FF1200040E016EFE0E026E2B
:101A3E00D50EBBEC0AF01200C450036EC350016EFB
:101A4E0003C002F01200016EACA2FED701C0ADFFC2
:101A5E001200C2A202D0010E1200000E1200400EA1
:101A6E00E82EFED71200400EE82EFED71200C290CE
:081A7E009D9C1200C2821200BF
:020000040020DA
:08000000FFFFFFFFFFFFFFFF00
:020000040030CA
:0E000000000C091EFF8080FF0FC00FE00F40B4
:00000001FF
