

Microchip Technology PIC18 LITE Macro Assembler V1.41 build -162212810 
                                                                                               Wed Apr 11 22:42:06 2018

Microchip Technology Omniscient Code Generator v1.41 (Free mode) build 201701250102
     1                           	processor	18F4550
     2                           	fnconf	rparam,??,?,0
     3                           	opt	pw 120
     4                           	opt	lm
     5                           	psect	smallconst,global,reloc=2,class=SMALLCONST,delta=1,noexec
     6                           	psect	cinit,global,reloc=2,class=CODE,delta=1
     7                           	psect	bssCOMRAM,global,class=COMRAM,space=1,delta=1,noexec
     8                           	psect	cstackBANK0,global,class=BANK0,space=1,delta=1,noexec
     9                           	psect	cstackCOMRAM,global,class=COMRAM,space=1,delta=1,noexec
    10                           	psect	text0,global,reloc=2,class=CODE,delta=1
    11                           	psect	text1,global,reloc=2,class=CODE,delta=1
    12                           	psect	text2,global,reloc=2,class=CODE,delta=1,group=1
    13                           	psect	text3,global,reloc=2,class=CODE,delta=1,group=1
    14                           	psect	text4,global,reloc=2,class=CODE,delta=1
    15                           	psect	text5,global,reloc=2,class=CODE,delta=1
    16                           	psect	text6,global,reloc=2,class=CODE,delta=1
    17                           	psect	text7,global,reloc=2,class=CODE,delta=1,group=1
    18                           	psect	text8,global,reloc=2,class=CODE,delta=1,group=1
    19                           	psect	text9,global,reloc=2,class=CODE,delta=1,group=1
    20                           	psect	text10,global,reloc=2,class=CODE,delta=1
    21                           	psect	text11,global,reloc=2,class=CODE,delta=1,group=2
    22                           	psect	text12,global,reloc=2,class=CODE,delta=1,group=1
    23                           	psect	text13,global,reloc=2,class=CODE,delta=1
    24                           	psect	text14,global,reloc=2,class=CODE,delta=1,group=1
    25                           	psect	text15,global,reloc=2,class=CODE,delta=1
    26                           	psect	text16,global,reloc=2,class=CODE,delta=1
    27                           	psect	text17,global,reloc=2,class=CODE,delta=1
    28                           	psect	text18,global,reloc=2,class=CODE,delta=1
    29                           	psect	text19,global,reloc=2,class=CODE,delta=1
    30                           	psect	text20,global,reloc=2,class=CODE,delta=1
    31                           	psect	text21,global,reloc=2,class=CODE,delta=1
    32                           	psect	text22,global,reloc=2,class=CODE,delta=1
    33                           	psect	text23,global,reloc=2,class=CODE,delta=1
    34                           	psect	text24,global,reloc=2,class=CODE,delta=1
    35                           	psect	text25,global,reloc=2,class=CODE,delta=1
    36                           	psect	intcode,global,reloc=2,class=CODE,delta=1
    37                           	psect	intcode_body,global,reloc=2,class=CODE,delta=1
    38                           	psect	text27,global,reloc=2,class=CODE,delta=1
    39                           	psect	text28,global,reloc=2,class=CODE,delta=1
    40                           	psect	text29,global,reloc=2,class=CODE,delta=1
    41                           	psect	text30,global,reloc=2,class=CODE,delta=1
    42                           	psect	text31,global,reloc=2,class=CODE,delta=1,group=1
    43                           	psect	text32,global,reloc=2,class=CODE,delta=1
    44                           	psect	text33,global,reloc=2,class=CODE,delta=1
    45                           	psect	text34,global,reloc=2,class=CODE,delta=1
    46                           	psect	text35,global,reloc=2,class=CODE,delta=1
    47                           	psect	text36,global,reloc=2,class=CODE,delta=1
    48                           	psect	text37,global,reloc=2,class=CODE,delta=1,group=2
    49                           	psect	text38,global,reloc=2,class=CODE,delta=1,group=2
    50                           	psect	text39,global,reloc=2,class=CODE,delta=1,group=2
    51                           	psect	text40,global,reloc=2,class=CODE,delta=1,group=2
    52                           	psect	text41,global,reloc=2,class=CODE,delta=1,group=2
    53                           	psect	text42,global,reloc=2,class=CODE,delta=1,group=2
    54                           	psect	text43,global,reloc=2,class=CODE,delta=1
    55                           	psect	text44,global,reloc=2,class=CODE,delta=1
    56                           	psect	text45,global,reloc=2,class=CODE,delta=1
    57                           	psect	text46,global,reloc=2,class=CODE,delta=1,group=1
    58                           	psect	text47,global,reloc=2,class=CODE,delta=1,group=1
    59                           	psect	text48,global,reloc=2,class=CODE,delta=1,group=1
    60                           	psect	text49,global,reloc=2,class=CODE,delta=1,group=1
    61                           	psect	text50,global,reloc=2,class=CODE,delta=1,group=1
    62                           	psect	intsave_regs,global,class=BIGRAM,space=1,delta=1,noexec
    63                           	psect	rparam,global,class=COMRAM,space=1,delta=1,noexec
    64                           	psect	temp,global,ovrld,common,class=COMRAM,space=1,delta=1
    65  0000                     
    66                           ; Version 1.41
    67                           ; Generated 25/01/2017 GMT
    68                           ; 
    69                           ; Copyright © 2017, Microchip Technology Inc. and its subsidiaries ("Microchip")
    70                           ; All rights reserved.
    71                           ; 
    72                           ; This software is developed by Microchip Technology Inc. and its subsidiaries ("Microch
      +                          ip").
    73                           ; 
    74                           ; Redistribution and use in source and binary forms, with or without modification, are
    75                           ; permitted provided that the following conditions are met:
    76                           ; 
    77                           ;     1. Redistributions of source code must retain the above copyright notice, this lis
      +                          t of
    78                           ;        conditions and the following disclaimer.
    79                           ; 
    80                           ;     2. Redistributions in binary form must reproduce the above copyright notice, this 
      +                          list
    81                           ;        of conditions and the following disclaimer in the documentation and/or other
    82                           ;        materials provided with the distribution.
    83                           ; 
    84                           ;     3. Microchip's name may not be used to endorse or promote products derived from th
      +                          is
    85                           ;        software without specific prior written permission.
    86                           ; 
    87                           ; THIS SOFTWARE IS PROVIDED BY MICROCHIP "AS IS" AND ANY EXPRESS OR IMPLIED WARRANTIES,
    88                           ; INCLUDING, BUT NOT LIMITED TO, THE IMPLIED WARRANTIES OF MERCHANTABILITY AND FITNESS F
      +                          OR
    89                           ; PURPOSE ARE DISCLAIMED.  IN NO EVENT SHALL MICROCHIP BE LIABLE FOR ANY DIRECT, INDIREC
      +                          T,
    90                           ; INCIDENTAL, SPECIAL, EXEMPLARY, OR CONSEQUENTIAL DAMAGES (INCLUDING BUT NOT LIMITED TO
    91                           ; PROCUREMENT OF SUBSTITUTE GOODS OR SERVICES; LOSS OF USE, DATA OR PROFITS; OR BUSINESS
    92                           ; INTERRUPTION) HOWSOEVER CAUSED AND ON ANY THEORY OF LIABILITY, WHETHER IN CONTRACT, ST
      +                          RICT
    93                           ; LIABILITY, OR TORT (INCLUDING NEGLIGENCE OR OTHERWISE) ARISING IN ANY WAY OUT OF THE U
      +                          SE OF
    94                           ; THIS SOFTWARE, EVEN IF ADVISED OF THE POSSIBILITY OF SUCH DAMAGE.
    95                           ; 
    96                           ; 
    97                           ; Code-generator required, PIC18F4550 Definitions
    98                           ; 
    99                           ; SFR Addresses
   100  0000                     _TRISB	set	3987
   101  0000                     _PORTB	set	3969
   102  0000                     _LATBbits	set	3978
   103  0000                     _TMR0L	set	4054
   104  0000                     _TMR0H	set	4055
   105  0000                     _ADRESL	set	4035
   106  0000                     _ADRESH	set	4036
   107  0000                     _INTCONbits	set	4082
   108  0000                     _PIR1bits	set	3998
   109  0000                     _ADCON1	set	4033
   110  0000                     _ADCON2	set	4032
   111  0000                     _ADCON0	set	4034
   112  0000                     _PIE1bits	set	3997
   113  0000                     _ADCON0bits	set	4034
   114  0000                     _TXREG	set	4013
   115  0000                     _T0CON	set	4053
   116  0000                     _INTCON2bits	set	4081
   117  0000                     _RCONbits	set	4048
   118  0000                     _TRISDbits	set	3989
   119  0000                     _TRISBbits	set	3987
   120  0000                     _INTCON	set	4082
   121  0000                     _PORTDbits	set	3971
   122  0000                     _PORTBbits	set	3969
   123  0000                     _PORTCbits	set	3970
   124  0000                     _SPBRG	set	4015
   125  0000                     _BAUDCONbits	set	4024
   126  0000                     _TRISCbits	set	3988
   127  0000                     _RCSTAbits	set	4011
   128  0000                     _TXSTAbits	set	4012
   129                           
   130                           	psect	smallconst
   131  000800                     __psmallconst:
   132                           	opt stack 0
   133  000800  00                 	db	0
   134  000801                     STR_3:
   135  000801  20                 	db	32
   136  000802  20                 	db	32
   137  000803  20                 	db	32
   138  000804  20                 	db	32
   139  000805  20                 	db	32
   140  000806  20                 	db	32
   141  000807  20                 	db	32
   142  000808  20                 	db	32
   143  000809  20                 	db	32
   144  00080A  20                 	db	32
   145  00080B  20                 	db	32
   146  00080C  20                 	db	32
   147  00080D  20                 	db	32
   148  00080E  20                 	db	32
   149  00080F  20                 	db	32
   150  000810  20                 	db	32
   151  000811  00                 	db	0
   152  000812                     STR_2:
   153  000812  54                 	db	84	;'T'
   154  000813  65                 	db	101	;'e'
   155  000814  6D                 	db	109	;'m'
   156  000815  70                 	db	112	;'p'
   157  000816  65                 	db	101	;'e'
   158  000817  72                 	db	114	;'r'
   159  000818  61                 	db	97	;'a'
   160  000819  74                 	db	116	;'t'
   161  00081A  75                 	db	117	;'u'
   162  00081B  72                 	db	114	;'r'
   163  00081C  61                 	db	97	;'a'
   164  00081D  3A                 	db	58	;':'
   165  00081E  20                 	db	32
   166  00081F  20                 	db	32
   167  000820  20                 	db	32
   168  000821  20                 	db	32
   169  000822  00                 	db	0
   170  000823                     STR_1:
   171  000823  20                 	db	32
   172  000824  20                 	db	32
   173  000825  20                 	db	32
   174  000826  20                 	db	32
   175  000827  20                 	db	32
   176  000828  20                 	db	32
   177  000829  32                 	db	50	;'2'
   178  00082A  32                 	db	50	;'2'
   179  00082B  00                 	db	0
   180                           
   181                           ; #config settings
   182  00082C  00                 	db	0	; dummy byte at the end
   183  0000                     
   184                           	psect	cinit
   185  0019D0                     __pcinit:
   186                           	opt stack 0
   187  0019D0                     start_initialization:
   188                           	opt stack 0
   189  0019D0                     __initialization:
   190                           	opt stack 0
   191                           
   192                           ; Clear objects allocated to COMRAM (5 bytes)
   193  0019D0  6A41               	clrf	(__pbssCOMRAM+4)& (0+255),c
   194  0019D2  6A40               	clrf	(__pbssCOMRAM+3)& (0+255),c
   195  0019D4  6A3F               	clrf	(__pbssCOMRAM+2)& (0+255),c
   196  0019D6  6A3E               	clrf	(__pbssCOMRAM+1)& (0+255),c
   197  0019D8  6A3D               	clrf	__pbssCOMRAM& (0+255),c
   198  0019DA                     end_of_initialization:
   199                           	opt stack 0
   200  0019DA                     __end_of__initialization:
   201                           	opt stack 0
   202  0019DA  9042               	bcf	int$flags,0,c	;clear compiler interrupt flag (level 1)
   203  0019DC  9242               	bcf	int$flags,1,c	;clear compiler interrupt flag (level 2)
   204  0019DE  0E00               	movlw	low (__Lmediumconst shr (0+16))
   205  0019E0  6EF8               	movwf	tblptru,c
   206  0019E2  0100               	movlb	0
   207  0019E4  EFB1  F009         	goto	_main	;jump to C main() function
   208                           tblptru	equ	0xFF8
   209                           
   210                           	psect	bssCOMRAM
   211  00003D                     __pbssCOMRAM:
   212                           	opt stack 0
   213  00003D                     _valor:
   214                           	opt stack 0
   215  00003D                     	ds	2
   216  00003F                     tmo@quant:
   217                           	opt stack 0
   218  00003F                     	ds	2
   219  000041                     _caracter:
   220                           	opt stack 0
   221  000041                     	ds	1
   222                           tblptru	equ	0xFF8
   223                           
   224                           	psect	cstackBANK0
   225  000060                     __pcstackBANK0:
   226                           	opt stack 0
   227  000060                     ??_SetDDRamAddr:
   228  000060                     ??_Delay10KTCYx:
   229  000060                     ??_DelayPORXLCD:
   230  000060                     ?_MFRC522_Rd:
   231                           	opt stack 0
   232  000060                     WriteCmdXLCD@cmd:
   233                           	opt stack 0
   234  000060                     WriteDataXLCD@data:
   235                           	opt stack 0
   236  000060                     MFRC522_Rd@Address:
   237                           	opt stack 0
   238  000060                     MFRC522_Wr@Address:
   239                           	opt stack 0
   240  000060                     Mydelay@tempo:
   241                           	opt stack 0
   242  000060                     WriteTimer0@timer0:
   243                           	opt stack 0
   244                           
   245                           ; 2 bytes @ 0x0
   246  000060                     	ds	1
   247  000061                     Delay10KTCYx@unit:
   248                           	opt stack 0
   249  000061                     putrsXLCD@buffer:
   250                           	opt stack 0
   251                           
   252                           ; 2 bytes @ 0x1
   253  000061                     	ds	1
   254  000062                     ??_Mydelay:
   255  000062                     ??_MFRC522_Rd:
   256  000062                     MFRC522_Wr@value:
   257                           	opt stack 0
   258  000062                     WriteTimer0@timer:
   259                           	opt stack 0
   260                           
   261                           ; 2 bytes @ 0x2
   262  000062                     	ds	1
   263  000063                     SetDDRamAddr@DDaddr:
   264                           	opt stack 0
   265  000063                     Mydelay@i:
   266                           	opt stack 0
   267                           
   268                           ; 2 bytes @ 0x3
   269  000063                     	ds	1
   270  000064                     ??_MFRC522_Wr:
   271  000064                     OpenXLCD@lcdtype:
   272                           	opt stack 0
   273  000064                     MFRC522_Rd@ucAddr:
   274                           	opt stack 0
   275                           
   276                           ; 2 bytes @ 0x4
   277  000064                     	ds	1
   278  000065                     
   279                           ; 1 bytes @ 0x5
   280  000065                     	ds	1
   281  000066                     MFRC522_Rd@ucResult:
   282                           	opt stack 0
   283  000066                     MFRC522_Wr@ucAddr:
   284                           	opt stack 0
   285                           
   286                           ; 2 bytes @ 0x6
   287  000066                     	ds	2
   288  000068                     MFRC522_Rd@i:
   289                           	opt stack 0
   290  000068                     MFRC522_Wr@i:
   291                           	opt stack 0
   292                           
   293                           ; 2 bytes @ 0x8
   294  000068                     	ds	2
   295  00006A                     MFRC522_Clear_Bit@mask:
   296                           	opt stack 0
   297  00006A                     MFRC522_Set_Bit@mask:
   298                           	opt stack 0
   299                           
   300                           ; 1 bytes @ 0xA
   301  00006A                     	ds	1
   302  00006B                     ??_MFRC522_Clear_Bit:
   303  00006B                     MFRC522_Set_Bit@tmp:
   304                           	opt stack 0
   305                           
   306                           ; 2 bytes @ 0xB
   307  00006B                     	ds	2
   308  00006D                     MFRC522_Set_Bit@addr:
   309                           	opt stack 0
   310                           
   311                           ; 1 bytes @ 0xD
   312  00006D                     	ds	1
   313  00006E                     MFRC522_AntennaOn@stt:
   314                           	opt stack 0
   315                           
   316                           ; 2 bytes @ 0xE
   317  00006E                     	ds	1
   318  00006F                     MFRC522_Clear_Bit@tmp:
   319                           	opt stack 0
   320                           
   321                           ; 2 bytes @ 0xF
   322  00006F                     	ds	1
   323  000070                     
   324                           ; 1 bytes @ 0x10
   325  000070                     	ds	1
   326  000071                     MFRC522_Clear_Bit@addr:
   327                           	opt stack 0
   328                           
   329                           ; 1 bytes @ 0x11
   330  000071                     	ds	1
   331  000072                     MFRC522_ToCard@sendData:
   332                           	opt stack 0
   333                           
   334                           ; 2 bytes @ 0x12
   335  000072                     	ds	2
   336  000074                     MFRC522_ToCard@sendLen:
   337                           	opt stack 0
   338                           
   339                           ; 1 bytes @ 0x14
   340  000074                     	ds	1
   341  000075                     MFRC522_ToCard@backData:
   342                           	opt stack 0
   343                           
   344                           ; 2 bytes @ 0x15
   345  000075                     	ds	2
   346  000077                     MFRC522_ToCard@backLen:
   347                           	opt stack 0
   348                           
   349                           ; 2 bytes @ 0x17
   350  000077                     	ds	2
   351  000079                     ??_MFRC522_ToCard:
   352                           
   353                           ; 1 bytes @ 0x19
   354  000079                     	ds	4
   355  00007D                     MFRC522_ToCard@waitIRq:
   356                           	opt stack 0
   357                           
   358                           ; 1 bytes @ 0x1D
   359  00007D                     	ds	1
   360  00007E                     MFRC522_ToCard@_status:
   361                           	opt stack 0
   362                           
   363                           ; 1 bytes @ 0x1E
   364  00007E                     	ds	1
   365  00007F                     MFRC522_ToCard@lastBits:
   366                           	opt stack 0
   367                           
   368                           ; 1 bytes @ 0x1F
   369  00007F                     	ds	1
   370  000080                     MFRC522_ToCard@irqEn:
   371                           	opt stack 0
   372                           
   373                           ; 1 bytes @ 0x20
   374  000080                     	ds	1
   375  000081                     MFRC522_ToCard@command:
   376                           	opt stack 0
   377                           
   378                           ; 1 bytes @ 0x21
   379  000081                     	ds	1
   380  000082                     MFRC522_ToCard@i:
   381                           	opt stack 0
   382                           
   383                           ; 2 bytes @ 0x22
   384  000082                     	ds	2
   385  000084                     MFRC522_ToCard@n:
   386                           	opt stack 0
   387                           
   388                           ; 1 bytes @ 0x24
   389  000084                     	ds	1
   390  000085                     MFRC522_Request@TagType:
   391                           	opt stack 0
   392                           
   393                           ; 2 bytes @ 0x25
   394  000085                     	ds	2
   395  000087                     MFRC522_Request@reqMode:
   396                           	opt stack 0
   397                           
   398                           ; 1 bytes @ 0x27
   399  000087                     	ds	1
   400  000088                     MFRC522_Request@_status:
   401                           	opt stack 0
   402                           
   403                           ; 1 bytes @ 0x28
   404  000088                     	ds	1
   405  000089                     MFRC522_Request@backBits:
   406                           	opt stack 0
   407                           
   408                           ; 2 bytes @ 0x29
   409  000089                     	ds	2
   410  00008B                     MFRC522_isCard@TagType:
   411                           	opt stack 0
   412                           
   413                           ; 2 bytes @ 0x2B
   414  00008B                     	ds	2
   415  00008D                     main@TagType:
   416                           	opt stack 0
   417                           
   418                           ; 2 bytes @ 0x2D
   419  00008D                     	ds	2
   420                           tblptru	equ	0xFF8
   421                           
   422                           	psect	cstackCOMRAM
   423  000001                     __pcstackCOMRAM:
   424                           	opt stack 0
   425  000001                     ??_SetChanADC:
   426  000001                     ??i2_SetDDRamAddr:
   427  000001                     ?_ReadADC:
   428                           	opt stack 0
   429  000001                     ?___awdiv:
   430                           	opt stack 0
   431  000001                     ?___awmod:
   432                           	opt stack 0
   433  000001                     ?___ftpack:
   434                           	opt stack 0
   435  000001                     USART_putc@c:
   436                           	opt stack 0
   437  000001                     OpenADC@config2:
   438                           	opt stack 0
   439  000001                     i2WriteDataXLCD@data:
   440                           	opt stack 0
   441  000001                     ___awdiv@dividend:
   442                           	opt stack 0
   443  000001                     ___awmod@dividend:
   444                           	opt stack 0
   445  000001                     i2WriteTimer0@timer0:
   446                           	opt stack 0
   447  000001                     ___ftpack@arg:
   448                           	opt stack 0
   449                           
   450                           ; 3 bytes @ 0x0
   451  000001                     	ds	1
   452  000002                     OpenADC@portconfig:
   453                           	opt stack 0
   454  000002                     SetChanADC@channel:
   455                           	opt stack 0
   456  000002                     USART_puts@s:
   457                           	opt stack 0
   458                           
   459                           ; 2 bytes @ 0x1
   460  000002                     	ds	1
   461  000003                     ??_OpenADC:
   462  000003                     ??_ReadADC:
   463  000003                     ___awdiv@divisor:
   464                           	opt stack 0
   465  000003                     ___awmod@divisor:
   466                           	opt stack 0
   467  000003                     i2WriteTimer0@timer:
   468                           	opt stack 0
   469                           
   470                           ; 2 bytes @ 0x2
   471  000003                     	ds	1
   472  000004                     ___ftpack@exp:
   473                           	opt stack 0
   474  000004                     i2SetDDRamAddr@DDaddr:
   475                           	opt stack 0
   476                           
   477                           ; 1 bytes @ 0x3
   478  000004                     	ds	1
   479  000005                     OpenADC@config:
   480                           	opt stack 0
   481  000005                     ___awdiv@counter:
   482                           	opt stack 0
   483  000005                     ___awmod@counter:
   484                           	opt stack 0
   485  000005                     ___ftpack@sign:
   486                           	opt stack 0
   487  000005                     imprime@a:
   488                           	opt stack 0
   489                           
   490                           ; 2 bytes @ 0x4
   491  000005                     	ds	1
   492  000006                     ??___ftpack:
   493  000006                     ___awdiv@sign:
   494                           	opt stack 0
   495  000006                     ___awmod@sign:
   496                           	opt stack 0
   497                           
   498                           ; 1 bytes @ 0x5
   499  000006                     	ds	1
   500  000007                     imprime@c:
   501                           	opt stack 0
   502  000007                     ___awdiv@quotient:
   503                           	opt stack 0
   504                           
   505                           ; 2 bytes @ 0x6
   506  000007                     	ds	2
   507  000009                     ?___lwtoft:
   508                           	opt stack 0
   509  000009                     ___lwtoft@c:
   510                           	opt stack 0
   511                           
   512                           ; 2 bytes @ 0x8
   513  000009                     	ds	3
   514  00000C                     ?___ftmul:
   515                           	opt stack 0
   516  00000C                     ___ftmul@f1:
   517                           	opt stack 0
   518                           
   519                           ; 3 bytes @ 0xB
   520  00000C                     	ds	3
   521  00000F                     ___ftmul@f2:
   522                           	opt stack 0
   523                           
   524                           ; 3 bytes @ 0xE
   525  00000F                     	ds	3
   526  000012                     ??___ftmul:
   527                           
   528                           ; 1 bytes @ 0x11
   529  000012                     	ds	3
   530  000015                     ___ftmul@exp:
   531                           	opt stack 0
   532                           
   533                           ; 1 bytes @ 0x14
   534  000015                     	ds	1
   535  000016                     ___ftmul@f3_as_product:
   536                           	opt stack 0
   537                           
   538                           ; 3 bytes @ 0x15
   539  000016                     	ds	3
   540  000019                     ___ftmul@cntr:
   541                           	opt stack 0
   542                           
   543                           ; 1 bytes @ 0x18
   544  000019                     	ds	1
   545  00001A                     ___ftmul@sign:
   546                           	opt stack 0
   547                           
   548                           ; 1 bytes @ 0x19
   549  00001A                     	ds	1
   550  00001B                     ?___fttol:
   551                           	opt stack 0
   552  00001B                     ___fttol@f1:
   553                           	opt stack 0
   554                           
   555                           ; 3 bytes @ 0x1A
   556  00001B                     	ds	4
   557  00001F                     ??___fttol:
   558                           
   559                           ; 1 bytes @ 0x1E
   560  00001F                     	ds	5
   561  000024                     ___fttol@sign1:
   562                           	opt stack 0
   563                           
   564                           ; 1 bytes @ 0x23
   565  000024                     	ds	1
   566  000025                     ___fttol@lval:
   567                           	opt stack 0
   568                           
   569                           ; 4 bytes @ 0x24
   570  000025                     	ds	4
   571  000029                     ___fttol@exp1:
   572                           	opt stack 0
   573                           
   574                           ; 1 bytes @ 0x28
   575  000029                     	ds	1
   576  00002A                     leitura@p:
   577                           	opt stack 0
   578                           
   579                           ; 3 bytes @ 0x29
   580  00002A                     	ds	3
   581  00002D                     leitura@i:
   582                           	opt stack 0
   583                           
   584                           ; 2 bytes @ 0x2C
   585  00002D                     	ds	2
   586  00002F                     ??_sensor:
   587                           
   588                           ; 1 bytes @ 0x2E
   589  00002F                     	ds	14
   590                           tblptru	equ	0xFF8
   591                           
   592 ;;
   593 ;;Main: autosize = 0, tempsize = 0, incstack = 0, save=0
   594 ;;
   595 ;; *************** function _main *****************
   596 ;; Defined at:
   597 ;;		line 30 in file "main.c"
   598 ;; Parameters:    Size  Location     Type
   599 ;;		None
   600 ;; Auto vars:     Size  Location     Type
   601 ;;  TagType         2   45[BANK0 ] unsigned int 
   602 ;; Return value:  Size  Location     Type
   603 ;;                  1    wreg      void 
   604 ;; Registers used:
   605 ;;		wreg, fsr2l, fsr2h, status,2, status,0, tblptrl, tblptrh, tblptru, prodl, prodh, cstack
   606 ;; Tracked objects:
   607 ;;		On entry : 0/0
   608 ;;		On exit  : 0/0
   609 ;;		Unchanged: 0/0
   610 ;; Data sizes:     COMRAM   BANK0   BANK1   BANK2   BANK3   BANK4   BANK5   BANK6   BANK7
   611 ;;      Params:         0       0       0       0       0       0       0       0       0
   612 ;;      Locals:         0       2       0       0       0       0       0       0       0
   613 ;;      Temps:          0       0       0       0       0       0       0       0       0
   614 ;;      Totals:         0       2       0       0       0       0       0       0       0
   615 ;;Total ram usage:        2 bytes
   616 ;; Hardware stack levels required when called:   11
   617 ;; This function calls:
   618 ;;		_BusyXLCD
   619 ;;		_MFRC522_Init
   620 ;;		_MFRC522_isCard
   621 ;;		_SetDDRamAddr
   622 ;;		_USART_init
   623 ;;		_WriteTimer0
   624 ;;		_inic_XLCD
   625 ;;		_inicializaLeitura
   626 ;;		_putrsXLCD
   627 ;; This function is called by:
   628 ;;		Startup code after reset
   629 ;; This function uses a non-reentrant model
   630 ;;
   631                           
   632                           	psect	text0
   633  001362                     __ptext0:
   634                           	opt stack 0
   635  001362                     _main:
   636                           	opt stack 20
   637                           
   638                           ;main.c: 31: TRISBbits.RB1 = 0;
   639                           
   640                           ;incstack = 0
   641  001362  9293               	bcf	3987,1,c	;volatile
   642                           
   643                           ;main.c: 32: TRISDbits.RD0 = 0;
   644  001364  9095               	bcf	3989,0,c	;volatile
   645                           
   646                           ;main.c: 33: TRISDbits.RD1 = 1;
   647  001366  8295               	bsf	3989,1,c	;volatile
   648                           
   649                           ;main.c: 34: TRISBbits.RB3 = 0;
   650  001368  9693               	bcf	3987,3,c	;volatile
   651                           
   652                           ;main.c: 35: TRISCbits.RC2 = 0;
   653  00136A  9494               	bcf	3988,2,c	;volatile
   654                           
   655                           ;main.c: 36: unsigned TagType;
   656                           ;main.c: 38: USART_init();
   657  00136C  ECCE  F00C         	call	_USART_init	;wreg free
   658                           
   659                           ;main.c: 40: inicializaLeitura();
   660  001370  EC24  F00A         	call	_inicializaLeitura	;wreg free
   661                           
   662                           ;main.c: 41: RCONbits.IPEN = 1;
   663  001374  8ED0               	bsf	4048,7,c	;volatile
   664                           
   665                           ;main.c: 42: INTCON = 0b10100000;
   666  001376  0EA0               	movlw	160
   667  001378  6EF2               	movwf	intcon,c	;volatile
   668                           
   669                           ;main.c: 43: INTCON2bits.TMR0IP = 1;
   670  00137A  84F1               	bsf	intcon2,2,c	;volatile
   671                           
   672                           ;main.c: 44: T0CON = 0b11010101;
   673  00137C  0ED5               	movlw	213
   674  00137E  6ED5               	movwf	4053,c	;volatile
   675                           
   676                           ;main.c: 45: WriteTimer0(0x00);
   677  001380  0E00               	movlw	0
   678  001382  0100               	movlb	0	; () banked
   679  001384  6F61               	movwf	(WriteTimer0@timer0+1)& (0+255),b
   680  001386  0E00               	movlw	0
   681  001388  6F60               	movwf	WriteTimer0@timer0& (0+255),b
   682  00138A  EC09  F00D         	call	_WriteTimer0	;wreg free
   683  00138E                     l3295:
   684                           
   685                           ;main.c: 47: MFRC522_Init();
   686  00138E  EC99  F008         	call	_MFRC522_Init	;wreg free
   687                           
   688                           ;main.c: 48: if (MFRC522_isCard(&TagType)) {
   689  001392  0E8D               	movlw	low main@TagType
   690  001394  0100               	movlb	0	; () banked
   691  001396  6F8B               	movwf	MFRC522_isCard@TagType& (0+255),b
   692  001398  0E00               	movlw	high main@TagType
   693  00139A  0100               	movlb	0	; () banked
   694  00139C  6F8C               	movwf	(MFRC522_isCard@TagType+1)& (0+255),b
   695  00139E  ECC0  F00C         	call	_MFRC522_isCard	;wreg free
   696  0013A2  0900               	iorlw	0
   697  0013A4  B4D8               	btfsc	status,2,c
   698  0013A6  D7F3               	goto	l3295
   699                           
   700                           ;main.c: 49: inic_XLCD();
   701  0013A8  EC2B  F00C         	call	_inic_XLCD	;wreg free
   702  0013AC                     l3301:
   703  0013AC  ECBA  F00B         	call	_BusyXLCD	;wreg free
   704  0013B0  0900               	iorlw	0
   705  0013B2  A4D8               	btfss	status,2,c
   706  0013B4  D7FB               	goto	l3301
   707                           
   708                           ;main.c: 51: SetDDRamAddr(0x40);
   709  0013B6  0E40               	movlw	64
   710  0013B8  EC58  F00A         	call	_SetDDRamAddr
   711  0013BC                     l3305:
   712  0013BC  ECBA  F00B         	call	_BusyXLCD	;wreg free
   713  0013C0  0900               	iorlw	0
   714  0013C2  A4D8               	btfss	status,2,c
   715  0013C4  D7FB               	goto	l3305
   716                           
   717                           ;main.c: 53: putrsXLCD("      22");
   718  0013C6  0E23               	movlw	low STR_1
   719  0013C8  0100               	movlb	0	; () banked
   720  0013CA  6F61               	movwf	putrsXLCD@buffer& (0+255),b
   721  0013CC  0E08               	movlw	high STR_1
   722  0013CE  0100               	movlb	0	; () banked
   723  0013D0  6F62               	movwf	(putrsXLCD@buffer+1)& (0+255),b
   724  0013D2  EC10  F00C         	call	_putrsXLCD	;wreg free
   725  0013D6  D7DB               	goto	l3295
   726  0013D8                     __end_of_main:
   727                           	opt stack 0
   728                           tblptru	equ	0xFF8
   729                           intcon	equ	0xFF2
   730                           intcon2	equ	0xFF1
   731                           status	equ	0xFD8
   732                           
   733 ;; *************** function _inicializaLeitura *****************
   734 ;; Defined at:
   735 ;;		line 18 in file "lerSensor.c"
   736 ;; Parameters:    Size  Location     Type
   737 ;;		None
   738 ;; Auto vars:     Size  Location     Type
   739 ;;		None
   740 ;; Return value:  Size  Location     Type
   741 ;;                  1    wreg      void 
   742 ;; Registers used:
   743 ;;		wreg, status,2, status,0, tblptrl, tblptrh, tblptru, cstack
   744 ;; Tracked objects:
   745 ;;		On entry : 0/0
   746 ;;		On exit  : 0/0
   747 ;;		Unchanged: 0/0
   748 ;; Data sizes:     COMRAM   BANK0   BANK1   BANK2   BANK3   BANK4   BANK5   BANK6   BANK7
   749 ;;      Params:         0       0       0       0       0       0       0       0       0
   750 ;;      Locals:         0       0       0       0       0       0       0       0       0
   751 ;;      Temps:          0       0       0       0       0       0       0       0       0
   752 ;;      Totals:         0       0       0       0       0       0       0       0       0
   753 ;;Total ram usage:        0 bytes
   754 ;; Hardware stack levels used:    1
   755 ;; Hardware stack levels required when called:   10
   756 ;; This function calls:
   757 ;;		_BusyXLCD
   758 ;;		_SetDDRamAddr
   759 ;;		_inic_XLCD
   760 ;;		_limpa
   761 ;;		_putrsXLCD
   762 ;; This function is called by:
   763 ;;		_main
   764 ;; This function uses a non-reentrant model
   765 ;;
   766                           
   767                           	psect	text1
   768  001448                     __ptext1:
   769                           	opt stack 0
   770  001448                     _inicializaLeitura:
   771                           	opt stack 20
   772                           
   773                           ;lerSensor.c: 19: inic_XLCD();
   774                           
   775                           ;incstack = 0
   776  001448  EC2B  F00C         	call	_inic_XLCD	;wreg free
   777  00144C                     l3109:
   778  00144C  ECBA  F00B         	call	_BusyXLCD	;wreg free
   779  001450  0900               	iorlw	0
   780  001452  A4D8               	btfss	status,2,c
   781  001454  D7FB               	goto	l3109
   782                           
   783                           ;lerSensor.c: 21: limpa();
   784  001456  EC91  F00C         	call	_limpa	;wreg free
   785  00145A                     l3113:
   786  00145A  ECBA  F00B         	call	_BusyXLCD	;wreg free
   787  00145E  0900               	iorlw	0
   788  001460  A4D8               	btfss	status,2,c
   789  001462  D7FB               	goto	l3113
   790                           
   791                           ;lerSensor.c: 24: SetDDRamAddr(0x00);
   792  001464  0E00               	movlw	0
   793  001466  EC58  F00A         	call	_SetDDRamAddr
   794  00146A                     l3117:
   795  00146A  ECBA  F00B         	call	_BusyXLCD	;wreg free
   796  00146E  0900               	iorlw	0
   797  001470  A4D8               	btfss	status,2,c
   798  001472  D7FB               	goto	l3117
   799                           
   800                           ;lerSensor.c: 26: putrsXLCD("Temperatura:    ");
   801  001474  0E12               	movlw	low STR_2
   802  001476  0100               	movlb	0	; () banked
   803  001478  6F61               	movwf	putrsXLCD@buffer& (0+255),b
   804  00147A  0E08               	movlw	high STR_2
   805  00147C  0100               	movlb	0	; () banked
   806  00147E  6F62               	movwf	(putrsXLCD@buffer+1)& (0+255),b
   807  001480  EC10  F00C         	call	_putrsXLCD	;wreg free
   808  001484                     l3121:
   809  001484  ECBA  F00B         	call	_BusyXLCD	;wreg free
   810  001488  0900               	iorlw	0
   811  00148A  A4D8               	btfss	status,2,c
   812  00148C  D7FB               	goto	l3121
   813                           
   814                           ;lerSensor.c: 28: SetDDRamAddr(0x40);
   815  00148E  0E40               	movlw	64
   816  001490  EC58  F00A         	call	_SetDDRamAddr
   817  001494                     l3125:
   818  001494  ECBA  F00B         	call	_BusyXLCD	;wreg free
   819  001498  0900               	iorlw	0
   820  00149A  A4D8               	btfss	status,2,c
   821  00149C  D7FB               	goto	l3125
   822                           
   823                           ;lerSensor.c: 30: putrsXLCD("                ");
   824  00149E  0E01               	movlw	low STR_3
   825  0014A0  0100               	movlb	0	; () banked
   826  0014A2  6F61               	movwf	putrsXLCD@buffer& (0+255),b
   827  0014A4  0E08               	movlw	high STR_3
   828  0014A6  0100               	movlb	0	; () banked
   829  0014A8  6F62               	movwf	(putrsXLCD@buffer+1)& (0+255),b
   830  0014AA  EC10  F00C         	call	_putrsXLCD	;wreg free
   831  0014AE  0012               	return		;funcret
   832  0014B0                     __end_of_inicializaLeitura:
   833                           	opt stack 0
   834                           tblptru	equ	0xFF8
   835                           intcon	equ	0xFF2
   836                           intcon2	equ	0xFF1
   837                           status	equ	0xFD8
   838                           
   839 ;; *************** function _putrsXLCD *****************
   840 ;; Defined at:
   841 ;;		line 16 in file "C:\Program Files (x86)\Microchip\xc8\v1.41\sources\pic18\plib\XLCD\putrxlcd.c"
   842 ;; Parameters:    Size  Location     Type
   843 ;;  buffer          2    1[BANK0 ] PTR const unsigned char 
   844 ;;		 -> STR_3(17), STR_2(17), STR_1(9), 
   845 ;; Auto vars:     Size  Location     Type
   846 ;;		None
   847 ;; Return value:  Size  Location     Type
   848 ;;                  1    wreg      void 
   849 ;; Registers used:
   850 ;;		wreg, status,2, status,0, tblptrl, tblptrh, tblptru, cstack
   851 ;; Tracked objects:
   852 ;;		On entry : 0/0
   853 ;;		On exit  : 0/0
   854 ;;		Unchanged: 0/0
   855 ;; Data sizes:     COMRAM   BANK0   BANK1   BANK2   BANK3   BANK4   BANK5   BANK6   BANK7
   856 ;;      Params:         0       2       0       0       0       0       0       0       0
   857 ;;      Locals:         0       0       0       0       0       0       0       0       0
   858 ;;      Temps:          0       0       0       0       0       0       0       0       0
   859 ;;      Totals:         0       2       0       0       0       0       0       0       0
   860 ;;Total ram usage:        2 bytes
   861 ;; Hardware stack levels used:    1
   862 ;; Hardware stack levels required when called:    8
   863 ;; This function calls:
   864 ;;		_BusyXLCD
   865 ;;		_WriteDataXLCD
   866 ;; This function is called by:
   867 ;;		_main
   868 ;;		_inicializaLeitura
   869 ;; This function uses a non-reentrant model
   870 ;;
   871                           
   872                           	psect	text2
   873  001820                     __ptext2:
   874                           	opt stack 0
   875  001820                     _putrsXLCD:
   876                           	opt stack 22
   877                           
   878                           ;incstack = 0
   879  001820  D010               	goto	l3009
   880  001822                     l3003:
   881  001822  ECBA  F00B         	call	_BusyXLCD	;wreg free
   882  001826  0900               	iorlw	0
   883  001828  A4D8               	btfss	status,2,c
   884  00182A  D7FB               	goto	l3003
   885  00182C  C061  FFF6         	movff	putrsXLCD@buffer,tblptrl
   886  001830  C062  FFF7         	movff	putrsXLCD@buffer+1,tblptrh
   887  001834                     	if	0	;tblptru may be non-zero
   888  001834                     	endif
   889  001834                     	if	0	;tblptru may be non-zero
   890  001834                     	endif
   891  001834  0008               	tblrd		*
   892  001836  50F5               	movf	tablat,w,c
   893  001838  EC13  F00B         	call	_WriteDataXLCD
   894  00183C  0100               	movlb	0	; () banked
   895  00183E  4B61               	infsnz	putrsXLCD@buffer& (0+255),f,b
   896  001840  2B62               	incf	(putrsXLCD@buffer+1)& (0+255),f,b
   897  001842                     l3009:
   898  001842  C061  FFF6         	movff	putrsXLCD@buffer,tblptrl
   899  001846  C062  FFF7         	movff	putrsXLCD@buffer+1,tblptrh
   900  00184A                     	if	0	;tblptru may be non-zero
   901  00184A                     	endif
   902  00184A                     	if	0	;tblptru may be non-zero
   903  00184A                     	endif
   904  00184A  0008               	tblrd		*
   905  00184C  50F5               	movf	tablat,w,c
   906  00184E  0900               	iorlw	0
   907  001850  B4D8               	btfsc	status,2,c
   908  001852  0012               	return	
   909  001854  D7E6               	goto	l3003
   910  001856                     __end_of_putrsXLCD:
   911                           	opt stack 0
   912                           tblptru	equ	0xFF8
   913                           tblptrh	equ	0xFF7
   914                           tblptrl	equ	0xFF6
   915                           tablat	equ	0xFF5
   916                           intcon	equ	0xFF2
   917                           intcon2	equ	0xFF1
   918                           status	equ	0xFD8
   919                           
   920 ;; *************** function _WriteDataXLCD *****************
   921 ;; Defined at:
   922 ;;		line 16 in file "C:\Program Files (x86)\Microchip\xc8\v1.41\sources\pic18\plib\XLCD\writdata.c"
   923 ;; Parameters:    Size  Location     Type
   924 ;;  data            1    wreg     unsigned char 
   925 ;; Auto vars:     Size  Location     Type
   926 ;;  data            1    0[BANK0 ] unsigned char 
   927 ;; Return value:  Size  Location     Type
   928 ;;                  1    wreg      void 
   929 ;; Registers used:
   930 ;;		wreg, status,2, status,0, cstack
   931 ;; Tracked objects:
   932 ;;		On entry : 0/0
   933 ;;		On exit  : 0/0
   934 ;;		Unchanged: 0/0
   935 ;; Data sizes:     COMRAM   BANK0   BANK1   BANK2   BANK3   BANK4   BANK5   BANK6   BANK7
   936 ;;      Params:         0       0       0       0       0       0       0       0       0
   937 ;;      Locals:         0       1       0       0       0       0       0       0       0
   938 ;;      Temps:          0       0       0       0       0       0       0       0       0
   939 ;;      Totals:         0       1       0       0       0       0       0       0       0
   940 ;;Total ram usage:        1 bytes
   941 ;; Hardware stack levels used:    1
   942 ;; Hardware stack levels required when called:    7
   943 ;; This function calls:
   944 ;;		_DelayFor18TCY
   945 ;; This function is called by:
   946 ;;		_putrsXLCD
   947 ;; This function uses a non-reentrant model
   948 ;;
   949                           
   950                           	psect	text3
   951  001626                     __ptext3:
   952                           	opt stack 0
   953  001626                     _WriteDataXLCD:
   954                           	opt stack 22
   955                           
   956                           ;incstack = 0
   957                           ;WriteDataXLCD@data stored from wreg
   958  001626  0100               	movlb	0	; () banked
   959  001628  6F60               	movwf	WriteDataXLCD@data& (0+255),b
   960  00162A  0EF0               	movlw	240
   961  00162C  1693               	andwf	3987,f,c	;volatile
   962  00162E  0EF0               	movlw	240
   963  001630  1681               	andwf	3969,f,c	;volatile
   964  001632  0100               	movlb	0	; () banked
   965  001634  3960               	swapf	WriteDataXLCD@data& (0+255),w,b
   966  001636  0B0F               	andlw	15
   967  001638  0B0F               	andlw	15
   968  00163A  1281               	iorwf	3969,f,c	;volatile
   969                           
   970                           ; BSR set to: 0
   971  00163C  8A8A               	bsf	3978,5,c	;volatile
   972                           
   973                           ; BSR set to: 0
   974  00163E  9C8A               	bcf	3978,6,c	;volatile
   975                           
   976                           ; BSR set to: 0
   977  001640  EC36  F00D         	call	_DelayFor18TCY	;wreg free
   978  001644  888A               	bsf	3978,4,c	;volatile
   979  001646  EC36  F00D         	call	_DelayFor18TCY	;wreg free
   980  00164A  988A               	bcf	3978,4,c	;volatile
   981  00164C  0EF0               	movlw	240
   982  00164E  1681               	andwf	3969,f,c	;volatile
   983  001650  0100               	movlb	0	; () banked
   984  001652  5160               	movf	WriteDataXLCD@data& (0+255),w,b
   985  001654  0B0F               	andlw	15
   986  001656  1281               	iorwf	3969,f,c	;volatile
   987                           
   988                           ; BSR set to: 0
   989  001658  EC36  F00D         	call	_DelayFor18TCY	;wreg free
   990  00165C  888A               	bsf	3978,4,c	;volatile
   991  00165E  EC36  F00D         	call	_DelayFor18TCY	;wreg free
   992  001662  988A               	bcf	3978,4,c	;volatile
   993  001664  0E0F               	movlw	15
   994  001666  1293               	iorwf	3987,f,c	;volatile
   995  001668  0012               	return	
   996  00166A                     __end_of_WriteDataXLCD:
   997                           	opt stack 0
   998                           tblptru	equ	0xFF8
   999                           tblptrh	equ	0xFF7
  1000                           tblptrl	equ	0xFF6
  1001                           tablat	equ	0xFF5
  1002                           intcon	equ	0xFF2
  1003                           intcon2	equ	0xFF1
  1004                           status	equ	0xFD8
  1005                           
  1006 ;; *************** function _limpa *****************
  1007 ;; Defined at:
  1008 ;;		line 22 in file "lcd.h"
  1009 ;; Parameters:    Size  Location     Type
  1010 ;;		None
  1011 ;; Auto vars:     Size  Location     Type
  1012 ;;		None
  1013 ;; Return value:  Size  Location     Type
  1014 ;;                  1    wreg      void 
  1015 ;; Registers used:
  1016 ;;		wreg, status,2, status,0, cstack
  1017 ;; Tracked objects:
  1018 ;;		On entry : 0/0
  1019 ;;		On exit  : 0/0
  1020 ;;		Unchanged: 0/0
  1021 ;; Data sizes:     COMRAM   BANK0   BANK1   BANK2   BANK3   BANK4   BANK5   BANK6   BANK7
  1022 ;;      Params:         0       0       0       0       0       0       0       0       0
  1023 ;;      Locals:         0       0       0       0       0       0       0       0       0
  1024 ;;      Temps:          0       0       0       0       0       0       0       0       0
  1025 ;;      Totals:         0       0       0       0       0       0       0       0       0
  1026 ;;Total ram usage:        0 bytes
  1027 ;; Hardware stack levels used:    1
  1028 ;; Hardware stack levels required when called:    8
  1029 ;; This function calls:
  1030 ;;		_BusyXLCD
  1031 ;;		_Mydelay
  1032 ;;		_WriteCmdXLCD
  1033 ;; This function is called by:
  1034 ;;		_inicializaLeitura
  1035 ;; This function uses a non-reentrant model
  1036 ;;
  1037                           
  1038                           	psect	text4
  1039  001922                     __ptext4:
  1040                           	opt stack 0
  1041  001922                     _limpa:
  1042                           	opt stack 21
  1043  001922                     l3013:
  1044  001922  ECBA  F00B         	call	_BusyXLCD	;wreg free
  1045  001926  0900               	iorlw	0
  1046  001928  A4D8               	btfss	status,2,c
  1047  00192A  D7FB               	goto	l3013
  1048                           
  1049                           ;lcd.h: 24: WriteCmdXLCD(0x01);
  1050  00192C  0E01               	movlw	1
  1051  00192E  EC57  F00B         	call	_WriteCmdXLCD
  1052                           
  1053                           ;lcd.h: 25: Mydelay(80);
  1054  001932  0E00               	movlw	0
  1055  001934  0100               	movlb	0	; () banked
  1056  001936  6F61               	movwf	(Mydelay@tempo+1)& (0+255),b
  1057  001938  0E50               	movlw	80
  1058  00193A  6F60               	movwf	Mydelay@tempo& (0+255),b
  1059  00193C  EC35  F00B         	call	_Mydelay	;wreg free
  1060  001940  0012               	return		;funcret
  1061  001942                     __end_of_limpa:
  1062                           	opt stack 0
  1063                           tblptru	equ	0xFF8
  1064                           tblptrh	equ	0xFF7
  1065                           tblptrl	equ	0xFF6
  1066                           tablat	equ	0xFF5
  1067                           intcon	equ	0xFF2
  1068                           intcon2	equ	0xFF1
  1069                           status	equ	0xFD8
  1070                           
  1071 ;; *************** function _Mydelay *****************
  1072 ;; Defined at:
  1073 ;;		line 5 in file "delay.c"
  1074 ;; Parameters:    Size  Location     Type
  1075 ;;  tempo           2    0[BANK0 ] int 
  1076 ;; Auto vars:     Size  Location     Type
  1077 ;;  i               2    3[BANK0 ] int 
  1078 ;; Return value:  Size  Location     Type
  1079 ;;                  1    wreg      void 
  1080 ;; Registers used:
  1081 ;;		wreg, status,2, status,0
  1082 ;; Tracked objects:
  1083 ;;		On entry : 0/0
  1084 ;;		On exit  : 0/0
  1085 ;;		Unchanged: 0/0
  1086 ;; Data sizes:     COMRAM   BANK0   BANK1   BANK2   BANK3   BANK4   BANK5   BANK6   BANK7
  1087 ;;      Params:         0       2       0       0       0       0       0       0       0
  1088 ;;      Locals:         0       2       0       0       0       0       0       0       0
  1089 ;;      Temps:          0       1       0       0       0       0       0       0       0
  1090 ;;      Totals:         0       5       0       0       0       0       0       0       0
  1091 ;;Total ram usage:        5 bytes
  1092 ;; Hardware stack levels used:    1
  1093 ;; Hardware stack levels required when called:    6
  1094 ;; This function calls:
  1095 ;;		Nothing
  1096 ;; This function is called by:
  1097 ;;		_limpa
  1098 ;; This function uses a non-reentrant model
  1099 ;;
  1100                           
  1101                           	psect	text5
  1102  00166A                     __ptext5:
  1103                           	opt stack 0
  1104  00166A                     _Mydelay:
  1105                           	opt stack 22
  1106                           
  1107                           ;delay.c: 7: int i;
  1108                           ;delay.c: 8: for (i=0;i<tempo;i++)
  1109                           
  1110                           ;incstack = 0
  1111  00166A  0E00               	movlw	0
  1112  00166C  0100               	movlb	0	; () banked
  1113  00166E  6F64               	movwf	(Mydelay@i+1)& (0+255),b
  1114  001670  0E00               	movlw	0
  1115  001672  6F63               	movwf	Mydelay@i& (0+255),b
  1116  001674  D00B               	goto	l336
  1117  001676                     l2701:
  1118                           
  1119                           ; BSR set to: 0
  1120                           ;delay.c: 9: {
  1121                           ;delay.c: 10: _delay((unsigned long)((1)*(20000000/4000.0)));
  1122  001676  0E07               	movlw	7
  1123  001678  0100               	movlb	0	; () banked
  1124  00167A  6F62               	movwf	??_Mydelay& (0+255),b
  1125  00167C  0E7D               	movlw	125
  1126  00167E                     u2617:
  1127  00167E  2EE8               	decfsz	wreg,f,c
  1128  001680  D7FE               	bra	u2617
  1129  001682  2F62               	decfsz	??_Mydelay& (0+255),f,b
  1130  001684  D7FC               	bra	u2617
  1131  001686  0100               	movlb	0	; () banked
  1132  001688  4B63               	infsnz	Mydelay@i& (0+255),f,b
  1133  00168A  2B64               	incf	(Mydelay@i+1)& (0+255),f,b
  1134  00168C                     l336:
  1135                           
  1136                           ; BSR set to: 0
  1137  00168C  0100               	movlb	0	; () banked
  1138  00168E  5160               	movf	Mydelay@tempo& (0+255),w,b
  1139  001690  0100               	movlb	0	; () banked
  1140  001692  5D63               	subwf	Mydelay@i& (0+255),w,b
  1141  001694  0100               	movlb	0	; () banked
  1142  001696  5164               	movf	(Mydelay@i+1)& (0+255),w,b
  1143  001698  0A80               	xorlw	128
  1144  00169A  0100               	movlb	0	; () banked
  1145  00169C  6F62               	movwf	??_Mydelay& (0+255),b
  1146  00169E  0100               	movlb	0	; () banked
  1147  0016A0  5161               	movf	(Mydelay@tempo+1)& (0+255),w,b
  1148  0016A2  0A80               	xorlw	128
  1149  0016A4  0100               	movlb	0	; () banked
  1150  0016A6  5962               	subwfb	??_Mydelay& (0+255),w,b
  1151  0016A8  B0D8               	btfsc	status,0,c
  1152  0016AA  0012               	return	
  1153  0016AC  D7E4               	goto	l2701
  1154  0016AE                     __end_of_Mydelay:
  1155                           	opt stack 0
  1156                           tblptru	equ	0xFF8
  1157                           tblptrh	equ	0xFF7
  1158                           tblptrl	equ	0xFF6
  1159                           tablat	equ	0xFF5
  1160                           intcon	equ	0xFF2
  1161                           intcon2	equ	0xFF1
  1162                           wreg	equ	0xFE8
  1163                           status	equ	0xFD8
  1164                           
  1165 ;; *************** function _inic_XLCD *****************
  1166 ;; Defined at:
  1167 ;;		line 12 in file "lcd.h"
  1168 ;; Parameters:    Size  Location     Type
  1169 ;;		None
  1170 ;; Auto vars:     Size  Location     Type
  1171 ;;		None
  1172 ;; Return value:  Size  Location     Type
  1173 ;;                  2   44[None  ] int 
  1174 ;; Registers used:
  1175 ;;		wreg, status,2, status,0, cstack
  1176 ;; Tracked objects:
  1177 ;;		On entry : 0/0
  1178 ;;		On exit  : 0/0
  1179 ;;		Unchanged: 0/0
  1180 ;; Data sizes:     COMRAM   BANK0   BANK1   BANK2   BANK3   BANK4   BANK5   BANK6   BANK7
  1181 ;;      Params:         0       0       0       0       0       0       0       0       0
  1182 ;;      Locals:         0       0       0       0       0       0       0       0       0
  1183 ;;      Temps:          0       0       0       0       0       0       0       0       0
  1184 ;;      Totals:         0       0       0       0       0       0       0       0       0
  1185 ;;Total ram usage:        0 bytes
  1186 ;; Hardware stack levels used:    1
  1187 ;; Hardware stack levels required when called:    9
  1188 ;; This function calls:
  1189 ;;		_BusyXLCD
  1190 ;;		_OpenXLCD
  1191 ;;		_WriteCmdXLCD
  1192 ;; This function is called by:
  1193 ;;		_main
  1194 ;;		_inicializaLeitura
  1195 ;; This function uses a non-reentrant model
  1196 ;;
  1197                           
  1198                           	psect	text6
  1199  001856                     __ptext6:
  1200                           	opt stack 0
  1201  001856                     _inic_XLCD:
  1202                           	opt stack 20
  1203                           
  1204                           ;lcd.h: 14: OpenXLCD(0b00101100&0b00111000);
  1205                           
  1206                           ; BSR set to: 0
  1207                           ;incstack = 0
  1208  001856  0E28               	movlw	40
  1209  001858  EC45  F008         	call	_OpenXLCD
  1210  00185C                     l2991:
  1211  00185C  ECBA  F00B         	call	_BusyXLCD	;wreg free
  1212  001860  0900               	iorlw	0
  1213  001862  A4D8               	btfss	status,2,c
  1214  001864  D7FB               	goto	l2991
  1215                           
  1216                           ;lcd.h: 16: WriteCmdXLCD(0x06);
  1217  001866  0E06               	movlw	6
  1218  001868  EC57  F00B         	call	_WriteCmdXLCD
  1219  00186C                     l2995:
  1220  00186C  ECBA  F00B         	call	_BusyXLCD	;wreg free
  1221  001870  0900               	iorlw	0
  1222  001872  A4D8               	btfss	status,2,c
  1223  001874  D7FB               	goto	l2995
  1224                           
  1225                           ;lcd.h: 18: WriteCmdXLCD(0x0C);
  1226  001876  0E0C               	movlw	12
  1227  001878  EC57  F00B         	call	_WriteCmdXLCD
  1228  00187C                     l2999:
  1229  00187C  ECBA  F00B         	call	_BusyXLCD	;wreg free
  1230  001880  0900               	iorlw	0
  1231  001882  B4D8               	btfsc	status,2,c
  1232  001884  0012               	return	
  1233  001886  D7FA               	goto	l2999
  1234  001888                     __end_of_inic_XLCD:
  1235                           	opt stack 0
  1236                           tblptru	equ	0xFF8
  1237                           tblptrh	equ	0xFF7
  1238                           tblptrl	equ	0xFF6
  1239                           tablat	equ	0xFF5
  1240                           intcon	equ	0xFF2
  1241                           intcon2	equ	0xFF1
  1242                           wreg	equ	0xFE8
  1243                           status	equ	0xFD8
  1244                           
  1245 ;; *************** function _OpenXLCD *****************
  1246 ;; Defined at:
  1247 ;;		line 19 in file "C:\Program Files (x86)\Microchip\xc8\v1.41\sources\pic18\plib\XLCD\openxlcd.c"
  1248 ;; Parameters:    Size  Location     Type
  1249 ;;  lcdtype         1    wreg     unsigned char 
  1250 ;; Auto vars:     Size  Location     Type
  1251 ;;  lcdtype         1    4[BANK0 ] unsigned char 
  1252 ;; Return value:  Size  Location     Type
  1253 ;;                  1    wreg      void 
  1254 ;; Registers used:
  1255 ;;		wreg, status,2, status,0, cstack
  1256 ;; Tracked objects:
  1257 ;;		On entry : 0/0
  1258 ;;		On exit  : 0/0
  1259 ;;		Unchanged: 0/0
  1260 ;; Data sizes:     COMRAM   BANK0   BANK1   BANK2   BANK3   BANK4   BANK5   BANK6   BANK7
  1261 ;;      Params:         0       0       0       0       0       0       0       0       0
  1262 ;;      Locals:         0       1       0       0       0       0       0       0       0
  1263 ;;      Temps:          0       0       0       0       0       0       0       0       0
  1264 ;;      Totals:         0       1       0       0       0       0       0       0       0
  1265 ;;Total ram usage:        1 bytes
  1266 ;; Hardware stack levels used:    1
  1267 ;; Hardware stack levels required when called:    8
  1268 ;; This function calls:
  1269 ;;		_BusyXLCD
  1270 ;;		_Delay10KTCYx
  1271 ;;		_DelayPORXLCD
  1272 ;;		_SetDDRamAddr
  1273 ;;		_WriteCmdXLCD
  1274 ;; This function is called by:
  1275 ;;		_inic_XLCD
  1276 ;; This function uses a non-reentrant model
  1277 ;;
  1278                           
  1279                           	psect	text7
  1280  00108A                     __ptext7:
  1281                           	opt stack 0
  1282  00108A                     _OpenXLCD:
  1283                           	opt stack 20
  1284                           
  1285                           ;incstack = 0
  1286                           ;OpenXLCD@lcdtype stored from wreg
  1287  00108A  0100               	movlb	0	; () banked
  1288  00108C  6F64               	movwf	OpenXLCD@lcdtype& (0+255),b
  1289  00108E  0EF0               	movlw	240
  1290  001090  1681               	andwf	3969,f,c	;volatile
  1291  001092  0EF0               	movlw	240
  1292  001094  1693               	andwf	3987,f,c	;volatile
  1293  001096  9C93               	bcf	3987,6,c	;volatile
  1294  001098  9A93               	bcf	3987,5,c	;volatile
  1295  00109A  9893               	bcf	3987,4,c	;volatile
  1296  00109C  9C8A               	bcf	3978,6,c	;volatile
  1297  00109E  9A8A               	bcf	3978,5,c	;volatile
  1298  0010A0  988A               	bcf	3978,4,c	;volatile
  1299  0010A2  ECFF  F00C         	call	_DelayPORXLCD	;wreg free
  1300  0010A6  0E30               	movlw	48
  1301  0010A8  EC57  F00B         	call	_WriteCmdXLCD
  1302  0010AC  0E05               	movlw	5
  1303  0010AE  ECB1  F00C         	call	_Delay10KTCYx
  1304  0010B2  0E30               	movlw	48
  1305  0010B4  EC57  F00B         	call	_WriteCmdXLCD
  1306  0010B8  0E01               	movlw	1
  1307  0010BA  ECB1  F00C         	call	_Delay10KTCYx
  1308  0010BE  0E32               	movlw	50
  1309  0010C0  EC57  F00B         	call	_WriteCmdXLCD
  1310  0010C4                     l2671:
  1311  0010C4  ECBA  F00B         	call	_BusyXLCD	;wreg free
  1312  0010C8  0900               	iorlw	0
  1313  0010CA  A4D8               	btfss	status,2,c
  1314  0010CC  D7FB               	goto	l2671
  1315  0010CE                     l2673:
  1316  0010CE  ECBA  F00B         	call	_BusyXLCD	;wreg free
  1317  0010D2  0900               	iorlw	0
  1318  0010D4  A4D8               	btfss	status,2,c
  1319  0010D6  D7FB               	goto	l2673
  1320  0010D8  0100               	movlb	0	; () banked
  1321  0010DA  5164               	movf	OpenXLCD@lcdtype& (0+255),w,b
  1322  0010DC  EC57  F00B         	call	_WriteCmdXLCD
  1323  0010E0                     l2677:
  1324  0010E0  ECBA  F00B         	call	_BusyXLCD	;wreg free
  1325  0010E4  0900               	iorlw	0
  1326  0010E6  A4D8               	btfss	status,2,c
  1327  0010E8  D7FB               	goto	l2677
  1328  0010EA  0E08               	movlw	8
  1329  0010EC  EC57  F00B         	call	_WriteCmdXLCD
  1330  0010F0                     l2681:
  1331  0010F0  ECBA  F00B         	call	_BusyXLCD	;wreg free
  1332  0010F4  0900               	iorlw	0
  1333  0010F6  A4D8               	btfss	status,2,c
  1334  0010F8  D7FB               	goto	l2681
  1335  0010FA  0E0F               	movlw	15
  1336  0010FC  EC57  F00B         	call	_WriteCmdXLCD
  1337  001100                     l2685:
  1338  001100  ECBA  F00B         	call	_BusyXLCD	;wreg free
  1339  001104  0900               	iorlw	0
  1340  001106  A4D8               	btfss	status,2,c
  1341  001108  D7FB               	goto	l2685
  1342  00110A  0E01               	movlw	1
  1343  00110C  EC57  F00B         	call	_WriteCmdXLCD
  1344  001110                     l2689:
  1345  001110  ECBA  F00B         	call	_BusyXLCD	;wreg free
  1346  001114  0900               	iorlw	0
  1347  001116  A4D8               	btfss	status,2,c
  1348  001118  D7FB               	goto	l2689
  1349  00111A  0E04               	movlw	4
  1350  00111C  EC57  F00B         	call	_WriteCmdXLCD
  1351  001120                     l2693:
  1352  001120  ECBA  F00B         	call	_BusyXLCD	;wreg free
  1353  001124  0900               	iorlw	0
  1354  001126  A4D8               	btfss	status,2,c
  1355  001128  D7FB               	goto	l2693
  1356  00112A  0E80               	movlw	128
  1357  00112C  EC58  F00A         	call	_SetDDRamAddr
  1358  001130  0012               	return	
  1359  001132                     __end_of_OpenXLCD:
  1360                           	opt stack 0
  1361                           tblptru	equ	0xFF8
  1362                           tblptrh	equ	0xFF7
  1363                           tblptrl	equ	0xFF6
  1364                           tablat	equ	0xFF5
  1365                           intcon	equ	0xFF2
  1366                           intcon2	equ	0xFF1
  1367                           wreg	equ	0xFE8
  1368                           status	equ	0xFD8
  1369                           
  1370 ;; *************** function _WriteCmdXLCD *****************
  1371 ;; Defined at:
  1372 ;;		line 13 in file "C:\Program Files (x86)\Microchip\xc8\v1.41\sources\pic18\plib\XLCD\wcmdxlcd.c"
  1373 ;; Parameters:    Size  Location     Type
  1374 ;;  cmd             1    wreg     unsigned char 
  1375 ;; Auto vars:     Size  Location     Type
  1376 ;;  cmd             1    0[BANK0 ] unsigned char 
  1377 ;; Return value:  Size  Location     Type
  1378 ;;                  1    wreg      void 
  1379 ;; Registers used:
  1380 ;;		wreg, status,2, status,0, cstack
  1381 ;; Tracked objects:
  1382 ;;		On entry : 0/0
  1383 ;;		On exit  : 0/0
  1384 ;;		Unchanged: 0/0
  1385 ;; Data sizes:     COMRAM   BANK0   BANK1   BANK2   BANK3   BANK4   BANK5   BANK6   BANK7
  1386 ;;      Params:         0       0       0       0       0       0       0       0       0
  1387 ;;      Locals:         0       1       0       0       0       0       0       0       0
  1388 ;;      Temps:          0       0       0       0       0       0       0       0       0
  1389 ;;      Totals:         0       1       0       0       0       0       0       0       0
  1390 ;;Total ram usage:        1 bytes
  1391 ;; Hardware stack levels used:    1
  1392 ;; Hardware stack levels required when called:    7
  1393 ;; This function calls:
  1394 ;;		_DelayFor18TCY
  1395 ;; This function is called by:
  1396 ;;		_inic_XLCD
  1397 ;;		_limpa
  1398 ;;		_OpenXLCD
  1399 ;; This function uses a non-reentrant model
  1400 ;;
  1401                           
  1402                           	psect	text8
  1403  0016AE                     __ptext8:
  1404                           	opt stack 0
  1405  0016AE                     _WriteCmdXLCD:
  1406                           	opt stack 21
  1407                           
  1408                           ;incstack = 0
  1409                           ;WriteCmdXLCD@cmd stored from wreg
  1410  0016AE  0100               	movlb	0	; () banked
  1411  0016B0  6F60               	movwf	WriteCmdXLCD@cmd& (0+255),b
  1412  0016B2  0EF0               	movlw	240
  1413  0016B4  1693               	andwf	3987,f,c	;volatile
  1414  0016B6  0EF0               	movlw	240
  1415  0016B8  1681               	andwf	3969,f,c	;volatile
  1416  0016BA  0100               	movlb	0	; () banked
  1417  0016BC  3960               	swapf	WriteCmdXLCD@cmd& (0+255),w,b
  1418  0016BE  0B0F               	andlw	15
  1419  0016C0  0B0F               	andlw	15
  1420  0016C2  1281               	iorwf	3969,f,c	;volatile
  1421                           
  1422                           ; BSR set to: 0
  1423  0016C4  9C8A               	bcf	3978,6,c	;volatile
  1424                           
  1425                           ; BSR set to: 0
  1426  0016C6  9A8A               	bcf	3978,5,c	;volatile
  1427                           
  1428                           ; BSR set to: 0
  1429  0016C8  EC36  F00D         	call	_DelayFor18TCY	;wreg free
  1430  0016CC  888A               	bsf	3978,4,c	;volatile
  1431  0016CE  EC36  F00D         	call	_DelayFor18TCY	;wreg free
  1432  0016D2  988A               	bcf	3978,4,c	;volatile
  1433  0016D4  0EF0               	movlw	240
  1434  0016D6  1681               	andwf	3969,f,c	;volatile
  1435  0016D8  0100               	movlb	0	; () banked
  1436  0016DA  5160               	movf	WriteCmdXLCD@cmd& (0+255),w,b
  1437  0016DC  0B0F               	andlw	15
  1438  0016DE  1281               	iorwf	3969,f,c	;volatile
  1439                           
  1440                           ; BSR set to: 0
  1441  0016E0  EC36  F00D         	call	_DelayFor18TCY	;wreg free
  1442  0016E4  888A               	bsf	3978,4,c	;volatile
  1443  0016E6  EC36  F00D         	call	_DelayFor18TCY	;wreg free
  1444  0016EA  988A               	bcf	3978,4,c	;volatile
  1445  0016EC  0E0F               	movlw	15
  1446  0016EE  1293               	iorwf	3987,f,c	;volatile
  1447  0016F0  0012               	return	
  1448  0016F2                     __end_of_WriteCmdXLCD:
  1449                           	opt stack 0
  1450                           tblptru	equ	0xFF8
  1451                           tblptrh	equ	0xFF7
  1452                           tblptrl	equ	0xFF6
  1453                           tablat	equ	0xFF5
  1454                           intcon	equ	0xFF2
  1455                           intcon2	equ	0xFF1
  1456                           wreg	equ	0xFE8
  1457                           status	equ	0xFD8
  1458                           
  1459 ;; *************** function _SetDDRamAddr *****************
  1460 ;; Defined at:
  1461 ;;		line 13 in file "C:\Program Files (x86)\Microchip\xc8\v1.41\sources\pic18\plib\XLCD\setddram.c"
  1462 ;; Parameters:    Size  Location     Type
  1463 ;;  DDaddr          1    wreg     unsigned char 
  1464 ;; Auto vars:     Size  Location     Type
  1465 ;;  DDaddr          1    3[BANK0 ] unsigned char 
  1466 ;; Return value:  Size  Location     Type
  1467 ;;                  1    wreg      void 
  1468 ;; Registers used:
  1469 ;;		wreg, status,2, status,0, cstack
  1470 ;; Tracked objects:
  1471 ;;		On entry : 0/0
  1472 ;;		On exit  : 0/0
  1473 ;;		Unchanged: 0/0
  1474 ;; Data sizes:     COMRAM   BANK0   BANK1   BANK2   BANK3   BANK4   BANK5   BANK6   BANK7
  1475 ;;      Params:         0       0       0       0       0       0       0       0       0
  1476 ;;      Locals:         0       1       0       0       0       0       0       0       0
  1477 ;;      Temps:          0       3       0       0       0       0       0       0       0
  1478 ;;      Totals:         0       4       0       0       0       0       0       0       0
  1479 ;;Total ram usage:        4 bytes
  1480 ;; Hardware stack levels used:    1
  1481 ;; Hardware stack levels required when called:    7
  1482 ;; This function calls:
  1483 ;;		_DelayFor18TCY
  1484 ;; This function is called by:
  1485 ;;		_main
  1486 ;;		_inicializaLeitura
  1487 ;;		_OpenXLCD
  1488 ;; This function uses a non-reentrant model
  1489 ;;
  1490                           
  1491                           	psect	text9
  1492  0014B0                     __ptext9:
  1493                           	opt stack 0
  1494  0014B0                     _SetDDRamAddr:
  1495                           	opt stack 20
  1496                           
  1497                           ;incstack = 0
  1498                           ;SetDDRamAddr@DDaddr stored from wreg
  1499  0014B0  0100               	movlb	0	; () banked
  1500  0014B2  6F63               	movwf	SetDDRamAddr@DDaddr& (0+255),b
  1501  0014B4  0EF0               	movlw	240
  1502  0014B6  1693               	andwf	3987,f,c	;volatile
  1503  0014B8  0EF0               	movlw	240
  1504  0014BA  1681               	andwf	3969,f,c	;volatile
  1505  0014BC  0100               	movlb	0	; () banked
  1506  0014BE  5163               	movf	SetDDRamAddr@DDaddr& (0+255),w,b
  1507  0014C0  0100               	movlb	0	; () banked
  1508  0014C2  6F60               	movwf	??_SetDDRamAddr& (0+255),b
  1509  0014C4  6B61               	clrf	(??_SetDDRamAddr+1)& (0+255),b
  1510  0014C6  0100               	movlb	0	; () banked
  1511  0014C8  8F60               	bsf	??_SetDDRamAddr& (0+255),7,b
  1512  0014CA  0E04               	movlw	4
  1513  0014CC  0100               	movlb	0	; () banked
  1514  0014CE  6F62               	movwf	(??_SetDDRamAddr+2)& (0+255),b
  1515  0014D0                     u1495:
  1516  0014D0  0100               	movlb	0	; () banked
  1517  0014D2  3561               	rlcf	(??_SetDDRamAddr+1)& (0+255),w,b
  1518  0014D4  3361               	rrcf	(??_SetDDRamAddr+1)& (0+255),f,b
  1519  0014D6  3360               	rrcf	??_SetDDRamAddr& (0+255),f,b
  1520  0014D8  0100               	movlb	0	; () banked
  1521  0014DA  2F62               	decfsz	(??_SetDDRamAddr+2)& (0+255),f,b
  1522  0014DC  D7F9               	goto	u1495
  1523  0014DE  0100               	movlb	0	; () banked
  1524  0014E0  5160               	movf	??_SetDDRamAddr& (0+255),w,b
  1525  0014E2  0B0F               	andlw	15
  1526  0014E4  1281               	iorwf	3969,f,c	;volatile
  1527                           
  1528                           ; BSR set to: 0
  1529  0014E6  9C8A               	bcf	3978,6,c	;volatile
  1530                           
  1531                           ; BSR set to: 0
  1532  0014E8  9A8A               	bcf	3978,5,c	;volatile
  1533                           
  1534                           ; BSR set to: 0
  1535  0014EA  EC36  F00D         	call	_DelayFor18TCY	;wreg free
  1536  0014EE  888A               	bsf	3978,4,c	;volatile
  1537  0014F0  EC36  F00D         	call	_DelayFor18TCY	;wreg free
  1538  0014F4  988A               	bcf	3978,4,c	;volatile
  1539  0014F6  0EF0               	movlw	240
  1540  0014F8  1681               	andwf	3969,f,c	;volatile
  1541  0014FA  0100               	movlb	0	; () banked
  1542  0014FC  5163               	movf	SetDDRamAddr@DDaddr& (0+255),w,b
  1543  0014FE  0B0F               	andlw	15
  1544  001500  1281               	iorwf	3969,f,c	;volatile
  1545                           
  1546                           ; BSR set to: 0
  1547  001502  EC36  F00D         	call	_DelayFor18TCY	;wreg free
  1548  001506  888A               	bsf	3978,4,c	;volatile
  1549  001508  EC36  F00D         	call	_DelayFor18TCY	;wreg free
  1550  00150C  988A               	bcf	3978,4,c	;volatile
  1551  00150E  0E0F               	movlw	15
  1552  001510  1293               	iorwf	3987,f,c	;volatile
  1553  001512  0012               	return	
  1554  001514                     __end_of_SetDDRamAddr:
  1555                           	opt stack 0
  1556                           tblptru	equ	0xFF8
  1557                           tblptrh	equ	0xFF7
  1558                           tblptrl	equ	0xFF6
  1559                           tablat	equ	0xFF5
  1560                           intcon	equ	0xFF2
  1561                           intcon2	equ	0xFF1
  1562                           wreg	equ	0xFE8
  1563                           status	equ	0xFD8
  1564                           
  1565 ;; *************** function _DelayPORXLCD *****************
  1566 ;; Defined at:
  1567 ;;		line 34 in file "lcd.h"
  1568 ;; Parameters:    Size  Location     Type
  1569 ;;		None
  1570 ;; Auto vars:     Size  Location     Type
  1571 ;;		None
  1572 ;; Return value:  Size  Location     Type
  1573 ;;                  1    wreg      void 
  1574 ;; Registers used:
  1575 ;;		wreg
  1576 ;; Tracked objects:
  1577 ;;		On entry : 0/0
  1578 ;;		On exit  : 0/0
  1579 ;;		Unchanged: 0/0
  1580 ;; Data sizes:     COMRAM   BANK0   BANK1   BANK2   BANK3   BANK4   BANK5   BANK6   BANK7
  1581 ;;      Params:         0       0       0       0       0       0       0       0       0
  1582 ;;      Locals:         0       0       0       0       0       0       0       0       0
  1583 ;;      Temps:          0       1       0       0       0       0       0       0       0
  1584 ;;      Totals:         0       1       0       0       0       0       0       0       0
  1585 ;;Total ram usage:        1 bytes
  1586 ;; Hardware stack levels used:    1
  1587 ;; Hardware stack levels required when called:    6
  1588 ;; This function calls:
  1589 ;;		Nothing
  1590 ;; This function is called by:
  1591 ;;		_OpenXLCD
  1592 ;; This function uses a non-reentrant model
  1593 ;;
  1594                           
  1595                           	psect	text10
  1596  0019FE                     __ptext10:
  1597                           	opt stack 0
  1598  0019FE                     _DelayPORXLCD:
  1599                           	opt stack 21
  1600                           
  1601                           ;incstack = 0
  1602  0019FE  0E62               	movlw	98
  1603  001A00  0100               	movlb	0	; () banked
  1604  001A02  6F60               	movwf	??_DelayPORXLCD& (0+255),b
  1605  001A04  0E65               	movlw	101
  1606  001A06                     u2627:
  1607  001A06  2EE8               	decfsz	wreg,f,c
  1608  001A08  D7FE               	bra	u2627
  1609  001A0A  2F60               	decfsz	??_DelayPORXLCD& (0+255),f,b
  1610  001A0C  D7FC               	bra	u2627
  1611  001A0E  D000               	nop2	
  1612  001A10  0012               	return		;funcret
  1613  001A12                     __end_of_DelayPORXLCD:
  1614                           	opt stack 0
  1615                           tblptru	equ	0xFF8
  1616                           tblptrh	equ	0xFF7
  1617                           tblptrl	equ	0xFF6
  1618                           tablat	equ	0xFF5
  1619                           intcon	equ	0xFF2
  1620                           intcon2	equ	0xFF1
  1621                           wreg	equ	0xFE8
  1622                           status	equ	0xFD8
  1623                           
  1624 ;; *************** function _Delay10KTCYx *****************
  1625 ;; Defined at:
  1626 ;;		line 8 in file "C:\Program Files (x86)\Microchip\xc8\v1.41\sources\pic18\d10ktcyx.c"
  1627 ;; Parameters:    Size  Location     Type
  1628 ;;  unit            1    wreg     unsigned char 
  1629 ;; Auto vars:     Size  Location     Type
  1630 ;;  unit            1    1[BANK0 ] unsigned char 
  1631 ;; Return value:  Size  Location     Type
  1632 ;;                  1    wreg      void 
  1633 ;; Registers used:
  1634 ;;		wreg
  1635 ;; Tracked objects:
  1636 ;;		On entry : 0/0
  1637 ;;		On exit  : 0/0
  1638 ;;		Unchanged: 0/0
  1639 ;; Data sizes:     COMRAM   BANK0   BANK1   BANK2   BANK3   BANK4   BANK5   BANK6   BANK7
  1640 ;;      Params:         0       0       0       0       0       0       0       0       0
  1641 ;;      Locals:         0       1       0       0       0       0       0       0       0
  1642 ;;      Temps:          0       1       0       0       0       0       0       0       0
  1643 ;;      Totals:         0       2       0       0       0       0       0       0       0
  1644 ;;Total ram usage:        2 bytes
  1645 ;; Hardware stack levels used:    1
  1646 ;; Hardware stack levels required when called:    6
  1647 ;; This function calls:
  1648 ;;		Nothing
  1649 ;; This function is called by:
  1650 ;;		_OpenXLCD
  1651 ;; This function uses a non-reentrant model
  1652 ;;
  1653                           
  1654                           	psect	text11
  1655  001962                     __ptext11:
  1656                           	opt stack 0
  1657  001962                     _Delay10KTCYx:
  1658                           	opt stack 21
  1659                           
  1660                           ;incstack = 0
  1661                           ;Delay10KTCYx@unit stored from wreg
  1662  001962  0100               	movlb	0	; () banked
  1663  001964  6F61               	movwf	Delay10KTCYx@unit& (0+255),b
  1664  001966  0E0D               	movlw	13
  1665  001968  0100               	movlb	0	; () banked
  1666  00196A  6F60               	movwf	??_Delay10KTCYx& (0+255),b
  1667  00196C  0EFB               	movlw	251
  1668  00196E                     u2637:
  1669  00196E  2EE8               	decfsz	wreg,f,c
  1670  001970  D7FE               	bra	u2637
  1671  001972  2F60               	decfsz	??_Delay10KTCYx& (0+255),f,b
  1672  001974  D7FC               	bra	u2637
  1673  001976  D000               	nop2	
  1674  001978  0100               	movlb	0	; () banked
  1675  00197A  2F61               	decfsz	Delay10KTCYx@unit& (0+255),f,b
  1676  00197C  D7F4               	goto	l2431
  1677  00197E  0012               	return	
  1678  001980                     __end_of_Delay10KTCYx:
  1679                           	opt stack 0
  1680                           tblptru	equ	0xFF8
  1681                           tblptrh	equ	0xFF7
  1682                           tblptrl	equ	0xFF6
  1683                           tablat	equ	0xFF5
  1684                           intcon	equ	0xFF2
  1685                           intcon2	equ	0xFF1
  1686                           wreg	equ	0xFE8
  1687                           status	equ	0xFD8
  1688                           
  1689 ;; *************** function _BusyXLCD *****************
  1690 ;; Defined at:
  1691 ;;		line 11 in file "C:\Program Files (x86)\Microchip\xc8\v1.41\sources\pic18\plib\XLCD\busyxlcd.c"
  1692 ;; Parameters:    Size  Location     Type
  1693 ;;		None
  1694 ;; Auto vars:     Size  Location     Type
  1695 ;;		None
  1696 ;; Return value:  Size  Location     Type
  1697 ;;                  1    wreg      unsigned char 
  1698 ;; Registers used:
  1699 ;;		wreg, cstack
  1700 ;; Tracked objects:
  1701 ;;		On entry : 0/0
  1702 ;;		On exit  : 0/0
  1703 ;;		Unchanged: 0/0
  1704 ;; Data sizes:     COMRAM   BANK0   BANK1   BANK2   BANK3   BANK4   BANK5   BANK6   BANK7
  1705 ;;      Params:         0       0       0       0       0       0       0       0       0
  1706 ;;      Locals:         0       0       0       0       0       0       0       0       0
  1707 ;;      Temps:          0       0       0       0       0       0       0       0       0
  1708 ;;      Totals:         0       0       0       0       0       0       0       0       0
  1709 ;;Total ram usage:        0 bytes
  1710 ;; Hardware stack levels used:    1
  1711 ;; Hardware stack levels required when called:    7
  1712 ;; This function calls:
  1713 ;;		_DelayFor18TCY
  1714 ;; This function is called by:
  1715 ;;		_main
  1716 ;;		_inic_XLCD
  1717 ;;		_limpa
  1718 ;;		_inicializaLeitura
  1719 ;;		_OpenXLCD
  1720 ;;		_putrsXLCD
  1721 ;; This function uses a non-reentrant model
  1722 ;;
  1723                           
  1724                           	psect	text12
  1725  001774                     __ptext12:
  1726                           	opt stack 0
  1727  001774                     _BusyXLCD:
  1728                           	opt stack 22
  1729                           
  1730                           ; BSR set to: 0
  1731                           ;incstack = 0
  1732  001774  8C8A               	bsf	3978,6,c	;volatile
  1733  001776  9A8A               	bcf	3978,5,c	;volatile
  1734  001778  EC36  F00D         	call	_DelayFor18TCY	;wreg free
  1735  00177C  888A               	bsf	3978,4,c	;volatile
  1736  00177E  EC36  F00D         	call	_DelayFor18TCY	;wreg free
  1737  001782  A681               	btfss	3969,3,c	;volatile
  1738  001784  D00A               	goto	l428
  1739  001786  988A               	bcf	3978,4,c	;volatile
  1740  001788  EC36  F00D         	call	_DelayFor18TCY	;wreg free
  1741  00178C  888A               	bsf	3978,4,c	;volatile
  1742  00178E  EC36  F00D         	call	_DelayFor18TCY	;wreg free
  1743  001792  988A               	bcf	3978,4,c	;volatile
  1744  001794  9C8A               	bcf	3978,6,c	;volatile
  1745  001796  0E01               	movlw	1
  1746  001798  0012               	return	
  1747  00179A                     l428:
  1748  00179A  988A               	bcf	3978,4,c	;volatile
  1749  00179C  EC36  F00D         	call	_DelayFor18TCY	;wreg free
  1750  0017A0  888A               	bsf	3978,4,c	;volatile
  1751  0017A2  EC36  F00D         	call	_DelayFor18TCY	;wreg free
  1752  0017A6  988A               	bcf	3978,4,c	;volatile
  1753  0017A8  9C8A               	bcf	3978,6,c	;volatile
  1754  0017AA  0E00               	movlw	0
  1755  0017AC  0012               	return	
  1756  0017AE                     __end_of_BusyXLCD:
  1757                           	opt stack 0
  1758                           tblptru	equ	0xFF8
  1759                           tblptrh	equ	0xFF7
  1760                           tblptrl	equ	0xFF6
  1761                           tablat	equ	0xFF5
  1762                           intcon	equ	0xFF2
  1763                           intcon2	equ	0xFF1
  1764                           wreg	equ	0xFE8
  1765                           status	equ	0xFD8
  1766                           
  1767 ;; *************** function _DelayFor18TCY *****************
  1768 ;; Defined at:
  1769 ;;		line 29 in file "lcd.h"
  1770 ;; Parameters:    Size  Location     Type
  1771 ;;		None
  1772 ;; Auto vars:     Size  Location     Type
  1773 ;;		None
  1774 ;; Return value:  Size  Location     Type
  1775 ;;                  1    wreg      void 
  1776 ;; Registers used:
  1777 ;;		wreg
  1778 ;; Tracked objects:
  1779 ;;		On entry : 0/0
  1780 ;;		On exit  : 0/0
  1781 ;;		Unchanged: 0/0
  1782 ;; Data sizes:     COMRAM   BANK0   BANK1   BANK2   BANK3   BANK4   BANK5   BANK6   BANK7
  1783 ;;      Params:         0       0       0       0       0       0       0       0       0
  1784 ;;      Locals:         0       0       0       0       0       0       0       0       0
  1785 ;;      Temps:          0       0       0       0       0       0       0       0       0
  1786 ;;      Totals:         0       0       0       0       0       0       0       0       0
  1787 ;;Total ram usage:        0 bytes
  1788 ;; Hardware stack levels used:    1
  1789 ;; Hardware stack levels required when called:    6
  1790 ;; This function calls:
  1791 ;;		Nothing
  1792 ;; This function is called by:
  1793 ;;		_BusyXLCD
  1794 ;;		_SetDDRamAddr
  1795 ;;		_WriteCmdXLCD
  1796 ;;		_WriteDataXLCD
  1797 ;; This function uses a non-reentrant model
  1798 ;;
  1799                           
  1800                           	psect	text13
  1801  001A6C                     __ptext13:
  1802                           	opt stack 0
  1803  001A6C                     _DelayFor18TCY:
  1804                           	opt stack 22
  1805                           
  1806                           ;incstack = 0
  1807  001A6C  0E40               	movlw	64
  1808  001A6E                     u2647:
  1809  001A6E  2EE8               	decfsz	wreg,f,c
  1810  001A70  D7FE               	bra	u2647
  1811  001A72  0012               	return		;funcret
  1812  001A74                     __end_of_DelayFor18TCY:
  1813                           	opt stack 0
  1814                           tblptru	equ	0xFF8
  1815                           tblptrh	equ	0xFF7
  1816                           tblptrl	equ	0xFF6
  1817                           tablat	equ	0xFF5
  1818                           intcon	equ	0xFF2
  1819                           intcon2	equ	0xFF1
  1820                           wreg	equ	0xFE8
  1821                           status	equ	0xFD8
  1822                           
  1823 ;; *************** function _WriteTimer0 *****************
  1824 ;; Defined at:
  1825 ;;		line 16 in file "C:\Program Files (x86)\Microchip\xc8\v1.41\sources\pic18\plib\Timers\t0write.c"
  1826 ;; Parameters:    Size  Location     Type
  1827 ;;  timer0          2    0[BANK0 ] unsigned int 
  1828 ;; Auto vars:     Size  Location     Type
  1829 ;;  timer           2    2[BANK0 ] struct Timers
  1830 ;; Return value:  Size  Location     Type
  1831 ;;                  1    wreg      void 
  1832 ;; Registers used:
  1833 ;;		None
  1834 ;; Tracked objects:
  1835 ;;		On entry : 0/0
  1836 ;;		On exit  : 0/0
  1837 ;;		Unchanged: 0/0
  1838 ;; Data sizes:     COMRAM   BANK0   BANK1   BANK2   BANK3   BANK4   BANK5   BANK6   BANK7
  1839 ;;      Params:         0       2       0       0       0       0       0       0       0
  1840 ;;      Locals:         0       2       0       0       0       0       0       0       0
  1841 ;;      Temps:          0       0       0       0       0       0       0       0       0
  1842 ;;      Totals:         0       4       0       0       0       0       0       0       0
  1843 ;;Total ram usage:        4 bytes
  1844 ;; Hardware stack levels used:    1
  1845 ;; Hardware stack levels required when called:    6
  1846 ;; This function calls:
  1847 ;;		Nothing
  1848 ;; This function is called by:
  1849 ;;		_main
  1850 ;; This function uses a non-reentrant model
  1851 ;;
  1852                           
  1853                           	psect	text14
  1854  001A12                     __ptext14:
  1855                           	opt stack 0
  1856  001A12                     _WriteTimer0:
  1857                           	opt stack 24
  1858                           
  1859                           ;incstack = 0
  1860  001A12  C060  F062         	movff	WriteTimer0@timer0,WriteTimer0@timer
  1861  001A16  C061  F063         	movff	WriteTimer0@timer0+1,WriteTimer0@timer+1
  1862  001A1A  C063  FFD7         	movff	WriteTimer0@timer+1,4055	;volatile
  1863  001A1E  C062  FFD6         	movff	WriteTimer0@timer,4054	;volatile
  1864  001A22  0012               	return		;funcret
  1865  001A24                     __end_of_WriteTimer0:
  1866                           	opt stack 0
  1867                           tblptru	equ	0xFF8
  1868                           tblptrh	equ	0xFF7
  1869                           tblptrl	equ	0xFF6
  1870                           tablat	equ	0xFF5
  1871                           intcon	equ	0xFF2
  1872                           intcon2	equ	0xFF1
  1873                           wreg	equ	0xFE8
  1874                           status	equ	0xFD8
  1875                           
  1876 ;; *************** function _USART_init *****************
  1877 ;; Defined at:
  1878 ;;		line 2 in file "confusart.h"
  1879 ;; Parameters:    Size  Location     Type
  1880 ;;		None
  1881 ;; Auto vars:     Size  Location     Type
  1882 ;;		None
  1883 ;; Return value:  Size  Location     Type
  1884 ;;                  1    wreg      void 
  1885 ;; Registers used:
  1886 ;;		wreg, status,2
  1887 ;; Tracked objects:
  1888 ;;		On entry : 0/0
  1889 ;;		On exit  : 0/0
  1890 ;;		Unchanged: 0/0
  1891 ;; Data sizes:     COMRAM   BANK0   BANK1   BANK2   BANK3   BANK4   BANK5   BANK6   BANK7
  1892 ;;      Params:         0       0       0       0       0       0       0       0       0
  1893 ;;      Locals:         0       0       0       0       0       0       0       0       0
  1894 ;;      Temps:          0       0       0       0       0       0       0       0       0
  1895 ;;      Totals:         0       0       0       0       0       0       0       0       0
  1896 ;;Total ram usage:        0 bytes
  1897 ;; Hardware stack levels used:    1
  1898 ;; Hardware stack levels required when called:    6
  1899 ;; This function calls:
  1900 ;;		Nothing
  1901 ;; This function is called by:
  1902 ;;		_main
  1903 ;; This function uses a non-reentrant model
  1904 ;;
  1905                           
  1906                           	psect	text15
  1907  00199C                     __ptext15:
  1908                           	opt stack 0
  1909  00199C                     _USART_init:
  1910                           	opt stack 24
  1911                           
  1912                           ;confusart.h: 4: TXSTAbits.TXEN = 1;
  1913                           
  1914                           ;incstack = 0
  1915  00199C  8AAC               	bsf	4012,5,c	;volatile
  1916                           
  1917                           ;confusart.h: 5: TXSTAbits.BRGH = 1;
  1918  00199E  84AC               	bsf	4012,2,c	;volatile
  1919                           
  1920                           ;confusart.h: 6: RCSTAbits.CREN = 1;
  1921  0019A0  88AB               	bsf	4011,4,c	;volatile
  1922                           
  1923                           ;confusart.h: 9: TRISCbits.TRISC7 = 1;
  1924  0019A2  8E94               	bsf	3988,7,c	;volatile
  1925                           
  1926                           ;confusart.h: 10: TRISCbits.TRISC6 = 1;
  1927  0019A4  8C94               	bsf	3988,6,c	;volatile
  1928                           
  1929                           ;confusart.h: 12: BAUDCONbits.BRG16 = 0;
  1930  0019A6  96B8               	bcf	4024,3,c	;volatile
  1931                           
  1932                           ;confusart.h: 13: SPBRG = 130;
  1933  0019A8  0E82               	movlw	130
  1934  0019AA  6EAF               	movwf	4015,c	;volatile
  1935                           
  1936                           ;confusart.h: 15: RCSTAbits.SPEN = 1;
  1937  0019AC  8EAB               	bsf	4011,7,c	;volatile
  1938                           
  1939                           ;confusart.h: 16: RCSTAbits.RC9 = 0;
  1940  0019AE  9CAB               	bcf	4011,6,c	;volatile
  1941                           
  1942                           ;confusart.h: 19: TXSTAbits.TX9 = 0;
  1943  0019B0  9CAC               	bcf	4012,6,c	;volatile
  1944                           
  1945                           ;confusart.h: 20: TXSTAbits.SYNC = 0;
  1946  0019B2  98AC               	bcf	4012,4,c	;volatile
  1947  0019B4  0012               	return		;funcret
  1948  0019B6                     __end_of_USART_init:
  1949                           	opt stack 0
  1950                           tblptru	equ	0xFF8
  1951                           tblptrh	equ	0xFF7
  1952                           tblptrl	equ	0xFF6
  1953                           tablat	equ	0xFF5
  1954                           intcon	equ	0xFF2
  1955                           intcon2	equ	0xFF1
  1956                           wreg	equ	0xFE8
  1957                           status	equ	0xFD8
  1958                           
  1959 ;; *************** function _MFRC522_isCard *****************
  1960 ;; Defined at:
  1961 ;;		line 523 in file "rfid.h"
  1962 ;; Parameters:    Size  Location     Type
  1963 ;;  TagType         2   43[BANK0 ] PTR unsigned char 
  1964 ;;		 -> main@TagType(2), 
  1965 ;; Auto vars:     Size  Location     Type
  1966 ;;		None
  1967 ;; Return value:  Size  Location     Type
  1968 ;;                  1    wreg      unsigned char 
  1969 ;; Registers used:
  1970 ;;		wreg, fsr2l, fsr2h, status,2, status,0, prodl, prodh, cstack
  1971 ;; Tracked objects:
  1972 ;;		On entry : 0/0
  1973 ;;		On exit  : 0/0
  1974 ;;		Unchanged: 0/0
  1975 ;; Data sizes:     COMRAM   BANK0   BANK1   BANK2   BANK3   BANK4   BANK5   BANK6   BANK7
  1976 ;;      Params:         0       2       0       0       0       0       0       0       0
  1977 ;;      Locals:         0       0       0       0       0       0       0       0       0
  1978 ;;      Temps:          0       0       0       0       0       0       0       0       0
  1979 ;;      Totals:         0       2       0       0       0       0       0       0       0
  1980 ;;Total ram usage:        2 bytes
  1981 ;; Hardware stack levels used:    1
  1982 ;; Hardware stack levels required when called:   10
  1983 ;; This function calls:
  1984 ;;		_MFRC522_Request
  1985 ;; This function is called by:
  1986 ;;		_main
  1987 ;; This function uses a non-reentrant model
  1988 ;;
  1989                           
  1990                           	psect	text16
  1991  001980                     __ptext16:
  1992                           	opt stack 0
  1993  001980                     _MFRC522_isCard:
  1994                           	opt stack 20
  1995                           
  1996                           ;rfid.h: 525: if (MFRC522_Request(0x26, TagType) == 0)
  1997                           
  1998                           ;incstack = 0
  1999  001980  C08B  F085         	movff	MFRC522_isCard@TagType,MFRC522_Request@TagType
  2000  001984  C08C  F086         	movff	MFRC522_isCard@TagType+1,MFRC522_Request@TagType+1
  2001  001988  0E26               	movlw	38
  2002  00198A  EC75  F009         	call	_MFRC522_Request
  2003  00198E  0900               	iorlw	0
  2004  001990  A4D8               	btfss	status,2,c
  2005  001992  D002               	goto	l3093
  2006                           
  2007                           ;rfid.h: 526: return 1;
  2008  001994  0E01               	movlw	1
  2009  001996  0012               	return	
  2010  001998                     l3093:
  2011                           
  2012                           ;rfid.h: 527: else
  2013                           ;rfid.h: 528: return 0;
  2014  001998  0E00               	movlw	0
  2015  00199A  0012               	return	
  2016  00199C                     __end_of_MFRC522_isCard:
  2017                           	opt stack 0
  2018                           tblptru	equ	0xFF8
  2019                           tblptrh	equ	0xFF7
  2020                           tblptrl	equ	0xFF6
  2021                           tablat	equ	0xFF5
  2022                           intcon	equ	0xFF2
  2023                           intcon2	equ	0xFF1
  2024                           wreg	equ	0xFE8
  2025                           status	equ	0xFD8
  2026                           
  2027 ;; *************** function _MFRC522_Request *****************
  2028 ;; Defined at:
  2029 ;;		line 342 in file "rfid.h"
  2030 ;; Parameters:    Size  Location     Type
  2031 ;;  reqMode         1    wreg     unsigned char 
  2032 ;;  TagType         2   37[BANK0 ] PTR unsigned char 
  2033 ;;		 -> main@TagType(2), 
  2034 ;; Auto vars:     Size  Location     Type
  2035 ;;  reqMode         1   39[BANK0 ] unsigned char 
  2036 ;;  backBits        2   41[BANK0 ] unsigned int 
  2037 ;;  _status         1   40[BANK0 ] unsigned char 
  2038 ;; Return value:  Size  Location     Type
  2039 ;;                  1    wreg      unsigned char 
  2040 ;; Registers used:
  2041 ;;		wreg, fsr2l, fsr2h, status,2, status,0, prodl, prodh, cstack
  2042 ;; Tracked objects:
  2043 ;;		On entry : 0/0
  2044 ;;		On exit  : 0/0
  2045 ;;		Unchanged: 0/0
  2046 ;; Data sizes:     COMRAM   BANK0   BANK1   BANK2   BANK3   BANK4   BANK5   BANK6   BANK7
  2047 ;;      Params:         0       2       0       0       0       0       0       0       0
  2048 ;;      Locals:         0       4       0       0       0       0       0       0       0
  2049 ;;      Temps:          0       0       0       0       0       0       0       0       0
  2050 ;;      Totals:         0       6       0       0       0       0       0       0       0
  2051 ;;Total ram usage:        6 bytes
  2052 ;; Hardware stack levels used:    1
  2053 ;; Hardware stack levels required when called:    9
  2054 ;; This function calls:
  2055 ;;		_MFRC522_ToCard
  2056 ;;		_MFRC522_Wr
  2057 ;; This function is called by:
  2058 ;;		_MFRC522_isCard
  2059 ;; This function uses a non-reentrant model
  2060 ;;
  2061                           
  2062                           	psect	text17
  2063  0012EA                     __ptext17:
  2064                           	opt stack 0
  2065  0012EA                     _MFRC522_Request:
  2066                           	opt stack 20
  2067                           
  2068                           ;incstack = 0
  2069                           ;MFRC522_Request@reqMode stored from wreg
  2070  0012EA  0100               	movlb	0	; () banked
  2071  0012EC  6F87               	movwf	MFRC522_Request@reqMode& (0+255),b
  2072                           
  2073                           ;rfid.h: 344: char _status;
  2074                           ;rfid.h: 345: unsigned backBits;
  2075                           ;rfid.h: 346: MFRC522_Wr(0x0D, 0x07);
  2076  0012EE  0E00               	movlw	0
  2077  0012F0  0100               	movlb	0	; () banked
  2078  0012F2  6F61               	movwf	(MFRC522_Wr@Address+1)& (0+255),b
  2079  0012F4  0E0D               	movlw	13
  2080  0012F6  6F60               	movwf	MFRC522_Wr@Address& (0+255),b
  2081  0012F8  0E00               	movlw	0
  2082  0012FA  0100               	movlb	0	; () banked
  2083  0012FC  6F63               	movwf	(MFRC522_Wr@value+1)& (0+255),b
  2084  0012FE  0E07               	movlw	7
  2085  001300  6F62               	movwf	MFRC522_Wr@value& (0+255),b
  2086  001302  EC90  F007         	call	_MFRC522_Wr	;wreg free
  2087                           
  2088                           ;rfid.h: 347: TagType[0] = reqMode;
  2089  001306  C085  FFD9         	movff	MFRC522_Request@TagType,fsr2l
  2090  00130A  C086  FFDA         	movff	MFRC522_Request@TagType+1,fsr2h
  2091  00130E  C087  FFDF         	movff	MFRC522_Request@reqMode,indf2
  2092                           
  2093                           ;rfid.h: 348: _status = MFRC522_ToCard(0x0C, TagType, 1, TagType, &backBits);
  2094  001312  C085  F072         	movff	MFRC522_Request@TagType,MFRC522_ToCard@sendData
  2095  001316  C086  F073         	movff	MFRC522_Request@TagType+1,MFRC522_ToCard@sendData+1
  2096  00131A  0E01               	movlw	1
  2097  00131C  0100               	movlb	0	; () banked
  2098  00131E  6F74               	movwf	MFRC522_ToCard@sendLen& (0+255),b
  2099  001320  C085  F075         	movff	MFRC522_Request@TagType,MFRC522_ToCard@backData
  2100  001324  C086  F076         	movff	MFRC522_Request@TagType+1,MFRC522_ToCard@backData+1
  2101  001328  0E89               	movlw	low MFRC522_Request@backBits
  2102  00132A  0100               	movlb	0	; () banked
  2103  00132C  6F77               	movwf	MFRC522_ToCard@backLen& (0+255),b
  2104  00132E  0E00               	movlw	high MFRC522_Request@backBits
  2105  001330  0100               	movlb	0	; () banked
  2106  001332  6F78               	movwf	(MFRC522_ToCard@backLen+1)& (0+255),b
  2107  001334  0E0C               	movlw	12
  2108  001336  EC17  F004         	call	_MFRC522_ToCard
  2109  00133A  0100               	movlb	0	; () banked
  2110  00133C  6F88               	movwf	MFRC522_Request@_status& (0+255),b
  2111                           
  2112                           ; BSR set to: 0
  2113                           ;rfid.h: 349: if ((_status != 0) || (backBits != 0x10))
  2114  00133E  0100               	movlb	0	; () banked
  2115  001340  5188               	movf	MFRC522_Request@_status& (0+255),w,b
  2116  001342  0100               	movlb	0	; () banked
  2117  001344  A4D8               	btfss	status,2,c
  2118  001346  D007               	goto	l2939
  2119                           
  2120                           ; BSR set to: 0
  2121  001348  0E10               	movlw	16
  2122  00134A  0100               	movlb	0	; () banked
  2123  00134C  1989               	xorwf	MFRC522_Request@backBits& (0+255),w,b
  2124  00134E  0100               	movlb	0	; () banked
  2125  001350  118A               	iorwf	(MFRC522_Request@backBits+1)& (0+255),w,b
  2126  001352  B4D8               	btfsc	status,2,c
  2127  001354  D003               	goto	l125
  2128  001356                     l2939:
  2129                           
  2130                           ; BSR set to: 0
  2131                           ;rfid.h: 350: {
  2132                           ;rfid.h: 351: _status = 2;
  2133  001356  0E02               	movlw	2
  2134  001358  0100               	movlb	0	; () banked
  2135  00135A  6F88               	movwf	MFRC522_Request@_status& (0+255),b
  2136  00135C                     l125:
  2137                           
  2138                           ; BSR set to: 0
  2139                           ;rfid.h: 352: }
  2140                           ;rfid.h: 353: return _status;
  2141  00135C  0100               	movlb	0	; () banked
  2142  00135E  5188               	movf	MFRC522_Request@_status& (0+255),w,b
  2143  001360  0012               	return	
  2144  001362                     __end_of_MFRC522_Request:
  2145                           	opt stack 0
  2146                           tblptru	equ	0xFF8
  2147                           tblptrh	equ	0xFF7
  2148                           tblptrl	equ	0xFF6
  2149                           tablat	equ	0xFF5
  2150                           intcon	equ	0xFF2
  2151                           intcon2	equ	0xFF1
  2152                           wreg	equ	0xFE8
  2153                           indf2	equ	0xFDF
  2154                           fsr2h	equ	0xFDA
  2155                           fsr2l	equ	0xFD9
  2156                           status	equ	0xFD8
  2157                           
  2158 ;; *************** function _MFRC522_ToCard *****************
  2159 ;; Defined at:
  2160 ;;		line 243 in file "rfid.h"
  2161 ;; Parameters:    Size  Location     Type
  2162 ;;  command         1    wreg     unsigned char 
  2163 ;;  sendData        2   18[BANK0 ] PTR unsigned char 
  2164 ;;		 -> main@TagType(2), MFRC522_Write@buff(18), MFRC522_Auth@buff(12), MFRC522_Halt@buff(4), 
  2165 ;;		 -> MFRC522_SelectTag@buffer(9), 
  2166 ;;  sendLen         1   20[BANK0 ] unsigned char 
  2167 ;;  backData        2   21[BANK0 ] PTR unsigned char 
  2168 ;;		 -> main@TagType(2), MFRC522_Write@buff(18), MFRC522_Auth@buff(12), MFRC522_Halt@buff(4), 
  2169 ;;		 -> MFRC522_SelectTag@buffer(9), 
  2170 ;;  backLen         2   23[BANK0 ] PTR unsigned int 
  2171 ;;		 -> MFRC522_AntiColl@unLen(2), MFRC522_Read@unLen(2), MFRC522_Write@recvBits(2), MFRC522_Auth@recvBits(2), 
  2172 ;;		 -> MFRC522_Halt@unLen(2), MFRC522_SelectTag@recvBits(2), MFRC522_Request@backBits(2), 
  2173 ;; Auto vars:     Size  Location     Type
  2174 ;;  command         1   33[BANK0 ] unsigned char 
  2175 ;;  i               2   34[BANK0 ] unsigned int 
  2176 ;;  n               1   36[BANK0 ] unsigned char 
  2177 ;;  irqEn           1   32[BANK0 ] unsigned char 
  2178 ;;  lastBits        1   31[BANK0 ] unsigned char 
  2179 ;;  _status         1   30[BANK0 ] unsigned char 
  2180 ;;  waitIRq         1   29[BANK0 ] unsigned char 
  2181 ;; Return value:  Size  Location     Type
  2182 ;;                  1    wreg      unsigned char 
  2183 ;; Registers used:
  2184 ;;		wreg, fsr2l, fsr2h, status,2, status,0, prodl, prodh, cstack
  2185 ;; Tracked objects:
  2186 ;;		On entry : 0/0
  2187 ;;		On exit  : 0/0
  2188 ;;		Unchanged: 0/0
  2189 ;; Data sizes:     COMRAM   BANK0   BANK1   BANK2   BANK3   BANK4   BANK5   BANK6   BANK7
  2190 ;;      Params:         0       7       0       0       0       0       0       0       0
  2191 ;;      Locals:         0       8       0       0       0       0       0       0       0
  2192 ;;      Temps:          0       4       0       0       0       0       0       0       0
  2193 ;;      Totals:         0      19       0       0       0       0       0       0       0
  2194 ;;Total ram usage:       19 bytes
  2195 ;; Hardware stack levels used:    1
  2196 ;; Hardware stack levels required when called:    8
  2197 ;; This function calls:
  2198 ;;		_MFRC522_Clear_Bit
  2199 ;;		_MFRC522_Rd
  2200 ;;		_MFRC522_Set_Bit
  2201 ;;		_MFRC522_Wr
  2202 ;; This function is called by:
  2203 ;;		_MFRC522_Request
  2204 ;;		_MFRC522_SelectTag
  2205 ;;		_MFRC522_Halt
  2206 ;;		_MFRC522_Auth
  2207 ;;		_MFRC522_Write
  2208 ;;		_MFRC522_Read
  2209 ;;		_MFRC522_AntiColl
  2210 ;; This function uses a non-reentrant model
  2211 ;;
  2212                           
  2213                           	psect	text18
  2214  00082E                     __ptext18:
  2215                           	opt stack 0
  2216  00082E                     _MFRC522_ToCard:
  2217                           	opt stack 20
  2218                           
  2219                           ; BSR set to: 0
  2220                           ;incstack = 0
  2221                           ;MFRC522_ToCard@command stored from wreg
  2222  00082E  0100               	movlb	0	; () banked
  2223  000830  6F81               	movwf	MFRC522_ToCard@command& (0+255),b
  2224                           
  2225                           ;rfid.h: 245: char _status = 2;
  2226  000832  0E02               	movlw	2
  2227  000834  0100               	movlb	0	; () banked
  2228  000836  6F7E               	movwf	MFRC522_ToCard@_status& (0+255),b
  2229                           
  2230                           ;rfid.h: 246: char irqEn = 0x00;
  2231  000838  0E00               	movlw	0
  2232  00083A  0100               	movlb	0	; () banked
  2233  00083C  6F80               	movwf	MFRC522_ToCard@irqEn& (0+255),b
  2234                           
  2235                           ;rfid.h: 247: char waitIRq = 0x00;
  2236  00083E  0E00               	movlw	0
  2237  000840  0100               	movlb	0	; () banked
  2238  000842  6F7D               	movwf	MFRC522_ToCard@waitIRq& (0+255),b
  2239                           
  2240                           ;rfid.h: 248: char lastBits;
  2241                           ;rfid.h: 249: char n;
  2242                           ;rfid.h: 250: unsigned i;
  2243                           ;rfid.h: 252: switch (command)
  2244  000844  D00C               	goto	l2565
  2245  000846                     l2559:
  2246                           
  2247                           ; BSR set to: 0
  2248                           ;rfid.h: 255: {
  2249                           ;rfid.h: 256: irqEn = 0x12;
  2250  000846  0E12               	movlw	18
  2251  000848  0100               	movlb	0	; () banked
  2252  00084A  6F80               	movwf	MFRC522_ToCard@irqEn& (0+255),b
  2253                           
  2254                           ;rfid.h: 257: waitIRq = 0x10;
  2255  00084C  0E10               	movlw	16
  2256  00084E  D004               	goto	L1
  2257  000850                     l2561:
  2258                           
  2259                           ; BSR set to: 0
  2260                           ;rfid.h: 261: {
  2261                           ;rfid.h: 262: irqEn = 0x77;
  2262  000850  0E77               	movlw	119
  2263  000852  0100               	movlb	0	; () banked
  2264  000854  6F80               	movwf	MFRC522_ToCard@irqEn& (0+255),b
  2265                           
  2266                           ;rfid.h: 263: waitIRq = 0x30;
  2267  000856  0E30               	movlw	48
  2268  000858                     L1:
  2269  000858  0100               	movlb	0	; () banked
  2270  00085A  6F7D               	movwf	MFRC522_ToCard@waitIRq& (0+255),b
  2271                           
  2272                           ; BSR set to: 0
  2273                           ;rfid.h: 268: }
  2274                           
  2275                           ; BSR set to: 0
  2276                           ;rfid.h: 267: break;
  2277                           
  2278                           ;rfid.h: 265: }
  2279                           ;rfid.h: 266: default:
  2280                           
  2281                           ;rfid.h: 264: break;
  2282  00085C  D008               	goto	l2567
  2283  00085E                     l2565:
  2284                           
  2285                           ; BSR set to: 0
  2286  00085E  0100               	movlb	0	; () banked
  2287  000860  5181               	movf	MFRC522_ToCard@command& (0+255),w,b
  2288                           
  2289                           ; Switch size 1, requested type "space"
  2290                           ; Number of cases is 2, Range of values is 12 to 14
  2291                           ; switch strategies available:
  2292                           ; Name         Instructions Cycles
  2293                           ; simple_byte            7     4 (average)
  2294                           ;	Chosen strategy is simple_byte
  2295  000862  0A0C               	xorlw	12	; case 12
  2296  000864  B4D8               	btfsc	status,2,c
  2297  000866  D7F4               	goto	l2561
  2298  000868  0A02               	xorlw	2	; case 14
  2299  00086A  B4D8               	btfsc	status,2,c
  2300  00086C  D7EC               	goto	l2559
  2301  00086E                     l2567:
  2302                           
  2303                           ; BSR set to: 0
  2304                           ;rfid.h: 269: MFRC522_Wr(0x02, irqEn | 0x80);
  2305  00086E  0E00               	movlw	0
  2306  000870  0100               	movlb	0	; () banked
  2307  000872  6F61               	movwf	(MFRC522_Wr@Address+1)& (0+255),b
  2308  000874  0E02               	movlw	2
  2309  000876  6F60               	movwf	MFRC522_Wr@Address& (0+255),b
  2310  000878  0E80               	movlw	128
  2311  00087A  C080  F079         	movff	MFRC522_ToCard@irqEn,??_MFRC522_ToCard
  2312  00087E  0100               	movlb	0	; () banked
  2313  000880  6B7A               	clrf	(??_MFRC522_ToCard+1)& (0+255),b
  2314  000882  0100               	movlb	0	; () banked
  2315  000884  1179               	iorwf	??_MFRC522_ToCard& (0+255),w,b
  2316  000886  0100               	movlb	0	; () banked
  2317  000888  6F62               	movwf	MFRC522_Wr@value& (0+255),b
  2318  00088A  0100               	movlb	0	; () banked
  2319  00088C  517A               	movf	(??_MFRC522_ToCard+1)& (0+255),w,b
  2320  00088E  0100               	movlb	0	; () banked
  2321  000890  6F63               	movwf	(MFRC522_Wr@value+1)& (0+255),b
  2322  000892  EC90  F007         	call	_MFRC522_Wr	;wreg free
  2323                           
  2324                           ;rfid.h: 270: MFRC522_Clear_Bit(0x04, 0x80);
  2325  000896  0E80               	movlw	128
  2326  000898  0100               	movlb	0	; () banked
  2327  00089A  6F6A               	movwf	MFRC522_Clear_Bit@mask& (0+255),b
  2328  00089C  0E04               	movlw	4
  2329  00089E  EC8A  F00A         	call	_MFRC522_Clear_Bit
  2330                           
  2331                           ;rfid.h: 271: MFRC522_Set_Bit(0x0A, 0x80);
  2332  0008A2  0E80               	movlw	128
  2333  0008A4  0100               	movlb	0	; () banked
  2334  0008A6  6F6A               	movwf	MFRC522_Set_Bit@mask& (0+255),b
  2335  0008A8  0E0A               	movlw	10
  2336  0008AA  EC79  F00B         	call	_MFRC522_Set_Bit
  2337                           
  2338                           ;rfid.h: 272: MFRC522_Wr(0x01, 0x00);
  2339  0008AE  0E00               	movlw	0
  2340  0008B0  0100               	movlb	0	; () banked
  2341  0008B2  6F61               	movwf	(MFRC522_Wr@Address+1)& (0+255),b
  2342  0008B4  0E01               	movlw	1
  2343  0008B6  6F60               	movwf	MFRC522_Wr@Address& (0+255),b
  2344  0008B8  0E00               	movlw	0
  2345  0008BA  0100               	movlb	0	; () banked
  2346  0008BC  6F63               	movwf	(MFRC522_Wr@value+1)& (0+255),b
  2347  0008BE  0E00               	movlw	0
  2348  0008C0  6F62               	movwf	MFRC522_Wr@value& (0+255),b
  2349  0008C2  EC90  F007         	call	_MFRC522_Wr	;wreg free
  2350                           
  2351                           ;rfid.h: 274: for (i = 0; i < sendLen; i++)
  2352  0008C6  0E00               	movlw	0
  2353  0008C8  0100               	movlb	0	; () banked
  2354  0008CA  6F83               	movwf	(MFRC522_ToCard@i+1)& (0+255),b
  2355  0008CC  0E00               	movlw	0
  2356  0008CE  6F82               	movwf	MFRC522_ToCard@i& (0+255),b
  2357  0008D0  D01C               	goto	l2575
  2358  0008D2                     l2571:
  2359                           
  2360                           ; BSR set to: 0
  2361                           ;rfid.h: 275: {
  2362                           ;rfid.h: 276: MFRC522_Wr(0x09, sendData[i]);
  2363  0008D2  0E00               	movlw	0
  2364  0008D4  0100               	movlb	0	; () banked
  2365  0008D6  6F61               	movwf	(MFRC522_Wr@Address+1)& (0+255),b
  2366  0008D8  0E09               	movlw	9
  2367  0008DA  6F60               	movwf	MFRC522_Wr@Address& (0+255),b
  2368  0008DC  0100               	movlb	0	; () banked
  2369  0008DE  5182               	movf	MFRC522_ToCard@i& (0+255),w,b
  2370  0008E0  0100               	movlb	0	; () banked
  2371  0008E2  2572               	addwf	MFRC522_ToCard@sendData& (0+255),w,b
  2372  0008E4  6ED9               	movwf	fsr2l,c
  2373  0008E6  0100               	movlb	0	; () banked
  2374  0008E8  5183               	movf	(MFRC522_ToCard@i+1)& (0+255),w,b
  2375  0008EA  0100               	movlb	0	; () banked
  2376  0008EC  2173               	addwfc	(MFRC522_ToCard@sendData+1)& (0+255),w,b
  2377  0008EE  6EDA               	movwf	fsr2h,c
  2378  0008F0  50DF               	movf	indf2,w,c
  2379  0008F2  0100               	movlb	0	; () banked
  2380  0008F4  6F79               	movwf	??_MFRC522_ToCard& (0+255),b
  2381  0008F6  0100               	movlb	0	; () banked
  2382  0008F8  5179               	movf	??_MFRC522_ToCard& (0+255),w,b
  2383  0008FA  0100               	movlb	0	; () banked
  2384  0008FC  6F62               	movwf	MFRC522_Wr@value& (0+255),b
  2385  0008FE  6B63               	clrf	(MFRC522_Wr@value+1)& (0+255),b
  2386  000900  EC90  F007         	call	_MFRC522_Wr	;wreg free
  2387  000904  0100               	movlb	0	; () banked
  2388  000906  4B82               	infsnz	MFRC522_ToCard@i& (0+255),f,b
  2389  000908  2B83               	incf	(MFRC522_ToCard@i+1)& (0+255),f,b
  2390  00090A                     l2575:
  2391                           
  2392                           ; BSR set to: 0
  2393  00090A  0100               	movlb	0	; () banked
  2394  00090C  5174               	movf	MFRC522_ToCard@sendLen& (0+255),w,b
  2395  00090E  0100               	movlb	0	; () banked
  2396  000910  6F79               	movwf	??_MFRC522_ToCard& (0+255),b
  2397  000912  6B7A               	clrf	(??_MFRC522_ToCard+1)& (0+255),b
  2398  000914  0100               	movlb	0	; () banked
  2399  000916  5179               	movf	??_MFRC522_ToCard& (0+255),w,b
  2400  000918  0100               	movlb	0	; () banked
  2401  00091A  5D82               	subwf	MFRC522_ToCard@i& (0+255),w,b
  2402  00091C  0100               	movlb	0	; () banked
  2403  00091E  517A               	movf	(??_MFRC522_ToCard+1)& (0+255),w,b
  2404  000920  0100               	movlb	0	; () banked
  2405  000922  5983               	subwfb	(MFRC522_ToCard@i+1)& (0+255),w,b
  2406  000924  A0D8               	btfss	status,0,c
  2407  000926  D7D5               	goto	l2571
  2408                           
  2409                           ; BSR set to: 0
  2410                           ;rfid.h: 277: }
  2411                           ;rfid.h: 279: MFRC522_Wr(0x01, command);
  2412                           
  2413                           ; BSR set to: 0
  2414  000928  0E00               	movlw	0
  2415  00092A  0100               	movlb	0	; () banked
  2416  00092C  6F61               	movwf	(MFRC522_Wr@Address+1)& (0+255),b
  2417  00092E  0E01               	movlw	1
  2418  000930  6F60               	movwf	MFRC522_Wr@Address& (0+255),b
  2419  000932  C081  F062         	movff	MFRC522_ToCard@command,MFRC522_Wr@value
  2420  000936  0100               	movlb	0	; () banked
  2421  000938  6B63               	clrf	(MFRC522_Wr@value+1)& (0+255),b
  2422  00093A  EC90  F007         	call	_MFRC522_Wr	;wreg free
  2423                           
  2424                           ;rfid.h: 280: if (command == 0x0C)
  2425  00093E  0E0C               	movlw	12
  2426  000940  0100               	movlb	0	; () banked
  2427  000942  1981               	xorwf	MFRC522_ToCard@command& (0+255),w,b
  2428  000944  A4D8               	btfss	status,2,c
  2429  000946  D006               	goto	l2583
  2430                           
  2431                           ; BSR set to: 0
  2432                           ;rfid.h: 281: {
  2433                           ;rfid.h: 282: MFRC522_Set_Bit(0x0D, 0x80);
  2434  000948  0E80               	movlw	128
  2435  00094A  0100               	movlb	0	; () banked
  2436  00094C  6F6A               	movwf	MFRC522_Set_Bit@mask& (0+255),b
  2437  00094E  0E0D               	movlw	13
  2438  000950  EC79  F00B         	call	_MFRC522_Set_Bit
  2439  000954                     l2583:
  2440                           
  2441                           ;rfid.h: 283: }
  2442                           ;rfid.h: 286: i = 0xFFFF;
  2443  000954  0100               	movlb	0	; () banked
  2444  000956  6982               	setf	MFRC522_ToCard@i& (0+255),b
  2445  000958  6983               	setf	(MFRC522_ToCard@i+1)& (0+255),b
  2446  00095A                     l106:
  2447                           
  2448                           ; BSR set to: 0
  2449                           ;rfid.h: 288: {
  2450                           ;rfid.h: 291: n = MFRC522_Rd(0x04);
  2451  00095A  0E00               	movlw	0
  2452  00095C  0100               	movlb	0	; () banked
  2453  00095E  6F61               	movwf	(MFRC522_Rd@Address+1)& (0+255),b
  2454  000960  0E04               	movlw	4
  2455  000962  6F60               	movwf	MFRC522_Rd@Address& (0+255),b
  2456  000964  EC25  F007         	call	_MFRC522_Rd	;wreg free
  2457  000968  0100               	movlb	0	; () banked
  2458  00096A  5160               	movf	?_MFRC522_Rd& (0+255),w,b
  2459  00096C  0100               	movlb	0	; () banked
  2460  00096E  6F84               	movwf	MFRC522_ToCard@n& (0+255),b
  2461                           
  2462                           ; BSR set to: 0
  2463                           ;rfid.h: 292: i--;
  2464  000970  0100               	movlb	0	; () banked
  2465  000972  0782               	decf	MFRC522_ToCard@i& (0+255),f,b
  2466  000974  A0D8               	btfss	status,0,c
  2467  000976  0783               	decf	(MFRC522_ToCard@i+1)& (0+255),f,b
  2468                           
  2469                           ; BSR set to: 0
  2470                           ;rfid.h: 293: } while (i && !(n & 0x01) && !(n & waitIRq));
  2471  000978  0100               	movlb	0	; () banked
  2472  00097A  5182               	movf	MFRC522_ToCard@i& (0+255),w,b
  2473  00097C  0100               	movlb	0	; () banked
  2474  00097E  1183               	iorwf	(MFRC522_ToCard@i+1)& (0+255),w,b
  2475  000980  B4D8               	btfsc	status,2,c
  2476  000982  D00A               	goto	l2593
  2477                           
  2478                           ; BSR set to: 0
  2479  000984  0100               	movlb	0	; () banked
  2480  000986  B184               	btfsc	MFRC522_ToCard@n& (0+255),0,b
  2481  000988  D007               	goto	l2593
  2482                           
  2483                           ; BSR set to: 0
  2484  00098A  0100               	movlb	0	; () banked
  2485  00098C  5184               	movf	MFRC522_ToCard@n& (0+255),w,b
  2486  00098E  0100               	movlb	0	; () banked
  2487  000990  157D               	andwf	MFRC522_ToCard@waitIRq& (0+255),w,b
  2488  000992  0900               	iorlw	0
  2489  000994  B4D8               	btfsc	status,2,c
  2490  000996  D7E1               	goto	l106
  2491  000998                     l2593:
  2492                           
  2493                           ; BSR set to: 0
  2494                           ;rfid.h: 294: MFRC522_Clear_Bit(0x0D, 0x80);
  2495  000998  0E80               	movlw	128
  2496  00099A  0100               	movlb	0	; () banked
  2497  00099C  6F6A               	movwf	MFRC522_Clear_Bit@mask& (0+255),b
  2498  00099E  0E0D               	movlw	13
  2499  0009A0  EC8A  F00A         	call	_MFRC522_Clear_Bit
  2500                           
  2501                           ;rfid.h: 295: if (i != 0)
  2502  0009A4  0100               	movlb	0	; () banked
  2503  0009A6  5182               	movf	MFRC522_ToCard@i& (0+255),w,b
  2504  0009A8  0100               	movlb	0	; () banked
  2505  0009AA  1183               	iorwf	(MFRC522_ToCard@i+1)& (0+255),w,b
  2506  0009AC  B4D8               	btfsc	status,2,c
  2507  0009AE  D0C6               	goto	l110
  2508                           
  2509                           ; BSR set to: 0
  2510                           ;rfid.h: 296: {
  2511                           ;rfid.h: 297: if (!(MFRC522_Rd(0x06) & 0x1B))
  2512  0009B0  0E00               	movlw	0
  2513  0009B2  0100               	movlb	0	; () banked
  2514  0009B4  6F61               	movwf	(MFRC522_Rd@Address+1)& (0+255),b
  2515  0009B6  0E06               	movlw	6
  2516  0009B8  6F60               	movwf	MFRC522_Rd@Address& (0+255),b
  2517  0009BA  EC25  F007         	call	_MFRC522_Rd	;wreg free
  2518  0009BE  0E1B               	movlw	27
  2519  0009C0  0100               	movlb	0	; () banked
  2520  0009C2  1760               	andwf	?_MFRC522_Rd& (0+255),f,b
  2521  0009C4  0E00               	movlw	0
  2522  0009C6  0100               	movlb	0	; () banked
  2523  0009C8  1761               	andwf	(?_MFRC522_Rd+1)& (0+255),f,b
  2524  0009CA  0100               	movlb	0	; () banked
  2525  0009CC  5160               	movf	?_MFRC522_Rd& (0+255),w,b
  2526  0009CE  0100               	movlb	0	; () banked
  2527  0009D0  1161               	iorwf	(?_MFRC522_Rd+1)& (0+255),w,b
  2528  0009D2  A4D8               	btfss	status,2,c
  2529  0009D4  D0B0               	goto	l2631
  2530                           
  2531                           ; BSR set to: 0
  2532                           ;rfid.h: 298: {
  2533                           ;rfid.h: 299: _status = 0;
  2534  0009D6  0E00               	movlw	0
  2535  0009D8  0100               	movlb	0	; () banked
  2536  0009DA  6F7E               	movwf	MFRC522_ToCard@_status& (0+255),b
  2537                           
  2538                           ; BSR set to: 0
  2539                           ;rfid.h: 300: if (n & irqEn & 0x01)
  2540  0009DC  0100               	movlb	0	; () banked
  2541  0009DE  5184               	movf	MFRC522_ToCard@n& (0+255),w,b
  2542  0009E0  0100               	movlb	0	; () banked
  2543  0009E2  1580               	andwf	MFRC522_ToCard@irqEn& (0+255),w,b
  2544  0009E4  0100               	movlb	0	; () banked
  2545  0009E6  6F79               	movwf	??_MFRC522_ToCard& (0+255),b
  2546  0009E8  0100               	movlb	0	; () banked
  2547  0009EA  A179               	btfss	??_MFRC522_ToCard& (0+255),0,b
  2548  0009EC  D003               	goto	l2605
  2549                           
  2550                           ; BSR set to: 0
  2551                           ;rfid.h: 301: {
  2552                           ;rfid.h: 302: _status = 1;
  2553  0009EE  0E01               	movlw	1
  2554  0009F0  0100               	movlb	0	; () banked
  2555  0009F2  6F7E               	movwf	MFRC522_ToCard@_status& (0+255),b
  2556  0009F4                     l2605:
  2557                           
  2558                           ; BSR set to: 0
  2559                           ;rfid.h: 303: }
  2560                           ;rfid.h: 304: if (command == 0x0C)
  2561  0009F4  0E0C               	movlw	12
  2562  0009F6  0100               	movlb	0	; () banked
  2563  0009F8  1981               	xorwf	MFRC522_ToCard@command& (0+255),w,b
  2564  0009FA  A4D8               	btfss	status,2,c
  2565  0009FC  D09F               	goto	l110
  2566                           
  2567                           ; BSR set to: 0
  2568                           ;rfid.h: 305: {
  2569                           ;rfid.h: 306: n = MFRC522_Rd(0x0A);
  2570  0009FE  0E00               	movlw	0
  2571  000A00  0100               	movlb	0	; () banked
  2572  000A02  6F61               	movwf	(MFRC522_Rd@Address+1)& (0+255),b
  2573  000A04  0E0A               	movlw	10
  2574  000A06  6F60               	movwf	MFRC522_Rd@Address& (0+255),b
  2575  000A08  EC25  F007         	call	_MFRC522_Rd	;wreg free
  2576  000A0C  0100               	movlb	0	; () banked
  2577  000A0E  5160               	movf	?_MFRC522_Rd& (0+255),w,b
  2578  000A10  0100               	movlb	0	; () banked
  2579  000A12  6F84               	movwf	MFRC522_ToCard@n& (0+255),b
  2580                           
  2581                           ;rfid.h: 307: lastBits = MFRC522_Rd(0x0C) & 0x07;
  2582  000A14  0E00               	movlw	0
  2583  000A16  0100               	movlb	0	; () banked
  2584  000A18  6F61               	movwf	(MFRC522_Rd@Address+1)& (0+255),b
  2585  000A1A  0E0C               	movlw	12
  2586  000A1C  6F60               	movwf	MFRC522_Rd@Address& (0+255),b
  2587  000A1E  EC25  F007         	call	_MFRC522_Rd	;wreg free
  2588  000A22  0100               	movlb	0	; () banked
  2589  000A24  5160               	movf	?_MFRC522_Rd& (0+255),w,b
  2590  000A26  0B07               	andlw	7
  2591  000A28  0100               	movlb	0	; () banked
  2592  000A2A  6F7F               	movwf	MFRC522_ToCard@lastBits& (0+255),b
  2593                           
  2594                           ; BSR set to: 0
  2595                           ;rfid.h: 308: if (lastBits)
  2596  000A2C  0100               	movlb	0	; () banked
  2597  000A2E  517F               	movf	MFRC522_ToCard@lastBits& (0+255),w,b
  2598  000A30  0100               	movlb	0	; () banked
  2599  000A32  B4D8               	btfsc	status,2,c
  2600  000A34  D02D               	goto	l2613
  2601                           
  2602                           ; BSR set to: 0
  2603                           ;rfid.h: 309: {
  2604                           ;rfid.h: 310: *backLen = (n - 1) * 8 + lastBits;
  2605  000A36  0EF8               	movlw	248
  2606  000A38  0100               	movlb	0	; () banked
  2607  000A3A  6F79               	movwf	??_MFRC522_ToCard& (0+255),b
  2608  000A3C  0EFF               	movlw	255
  2609  000A3E  0100               	movlb	0	; () banked
  2610  000A40  6F7A               	movwf	(??_MFRC522_ToCard+1)& (0+255),b
  2611  000A42  0100               	movlb	0	; () banked
  2612  000A44  517F               	movf	MFRC522_ToCard@lastBits& (0+255),w,b
  2613  000A46  C084  F07B         	movff	MFRC522_ToCard@n,??_MFRC522_ToCard+2
  2614  000A4A  0100               	movlb	0	; () banked
  2615  000A4C  6B7C               	clrf	(??_MFRC522_ToCard+3)& (0+255),b
  2616  000A4E  0100               	movlb	0	; () banked
  2617  000A50  90D8               	bcf	status,0,c
  2618  000A52  377B               	rlcf	(??_MFRC522_ToCard+2)& (0+255),f,b
  2619  000A54  377C               	rlcf	(??_MFRC522_ToCard+3)& (0+255),f,b
  2620  000A56  0100               	movlb	0	; () banked
  2621  000A58  90D8               	bcf	status,0,c
  2622  000A5A  377B               	rlcf	(??_MFRC522_ToCard+2)& (0+255),f,b
  2623  000A5C  377C               	rlcf	(??_MFRC522_ToCard+3)& (0+255),f,b
  2624  000A5E  0100               	movlb	0	; () banked
  2625  000A60  90D8               	bcf	status,0,c
  2626  000A62  377B               	rlcf	(??_MFRC522_ToCard+2)& (0+255),f,b
  2627  000A64  377C               	rlcf	(??_MFRC522_ToCard+3)& (0+255),f,b
  2628  000A66  0100               	movlb	0	; () banked
  2629  000A68  277B               	addwf	(??_MFRC522_ToCard+2)& (0+255),f,b
  2630  000A6A  0E00               	movlw	0
  2631  000A6C  237C               	addwfc	(??_MFRC522_ToCard+3)& (0+255),f,b
  2632  000A6E  0100               	movlb	0	; () banked
  2633  000A70  5179               	movf	??_MFRC522_ToCard& (0+255),w,b
  2634  000A72  0100               	movlb	0	; () banked
  2635  000A74  277B               	addwf	(??_MFRC522_ToCard+2)& (0+255),f,b
  2636  000A76  0100               	movlb	0	; () banked
  2637  000A78  517A               	movf	(??_MFRC522_ToCard+1)& (0+255),w,b
  2638  000A7A  0100               	movlb	0	; () banked
  2639  000A7C  237C               	addwfc	(??_MFRC522_ToCard+3)& (0+255),f,b
  2640  000A7E  C077  FFD9         	movff	MFRC522_ToCard@backLen,fsr2l
  2641  000A82  C078  FFDA         	movff	MFRC522_ToCard@backLen+1,fsr2h
  2642  000A86  C07B  FFDE         	movff	??_MFRC522_ToCard+2,postinc2
  2643  000A8A  C07C  FFDD         	movff	??_MFRC522_ToCard+3,postdec2
  2644                           
  2645                           ;rfid.h: 311: }
  2646  000A8E  D00B               	goto	l2615
  2647  000A90                     l2613:
  2648                           
  2649                           ; BSR set to: 0
  2650                           ;rfid.h: 312: else
  2651                           ;rfid.h: 313: {
  2652                           ;rfid.h: 314: *backLen = n * 8;
  2653  000A90  0100               	movlb	0	; () banked
  2654  000A92  5184               	movf	MFRC522_ToCard@n& (0+255),w,b
  2655  000A94  0D08               	mullw	8
  2656  000A96  C077  FFD9         	movff	MFRC522_ToCard@backLen,fsr2l
  2657  000A9A  C078  FFDA         	movff	MFRC522_ToCard@backLen+1,fsr2h
  2658  000A9E  CFF3 FFDE          	movff	prodl,postinc2
  2659  000AA2  CFF4 FFDD          	movff	prodh,postdec2
  2660  000AA6                     l2615:
  2661                           
  2662                           ; BSR set to: 0
  2663                           ;rfid.h: 315: }
  2664                           ;rfid.h: 316: if (n == 0)
  2665  000AA6  0100               	movlb	0	; () banked
  2666  000AA8  5184               	movf	MFRC522_ToCard@n& (0+255),w,b
  2667  000AAA  0100               	movlb	0	; () banked
  2668  000AAC  A4D8               	btfss	status,2,c
  2669  000AAE  D003               	goto	l2619
  2670                           
  2671                           ; BSR set to: 0
  2672                           ;rfid.h: 317: {
  2673                           ;rfid.h: 318: n = 1;
  2674  000AB0  0E01               	movlw	1
  2675  000AB2  0100               	movlb	0	; () banked
  2676  000AB4  6F84               	movwf	MFRC522_ToCard@n& (0+255),b
  2677  000AB6                     l2619:
  2678                           
  2679                           ; BSR set to: 0
  2680                           ;rfid.h: 319: }
  2681                           ;rfid.h: 320: if (n > 16)
  2682  000AB6  0E10               	movlw	16
  2683  000AB8  0100               	movlb	0	; () banked
  2684  000ABA  6584               	cpfsgt	MFRC522_ToCard@n& (0+255),b
  2685  000ABC  D003               	goto	l117
  2686                           
  2687                           ; BSR set to: 0
  2688                           ;rfid.h: 321: {
  2689                           ;rfid.h: 322: n = 16;
  2690  000ABE  0E10               	movlw	16
  2691  000AC0  0100               	movlb	0	; () banked
  2692  000AC2  6F84               	movwf	MFRC522_ToCard@n& (0+255),b
  2693  000AC4                     l117:
  2694                           
  2695                           ; BSR set to: 0
  2696                           ;rfid.h: 323: }
  2697                           ;rfid.h: 325: for (i = 0; i < n; i++)
  2698  000AC4  0E00               	movlw	0
  2699  000AC6  0100               	movlb	0	; () banked
  2700  000AC8  6F83               	movwf	(MFRC522_ToCard@i+1)& (0+255),b
  2701  000ACA  0E00               	movlw	0
  2702  000ACC  6F82               	movwf	MFRC522_ToCard@i& (0+255),b
  2703  000ACE  D017               	goto	l2627
  2704  000AD0                     l2623:
  2705                           
  2706                           ; BSR set to: 0
  2707                           ;rfid.h: 326: {
  2708                           ;rfid.h: 327: backData[i] = MFRC522_Rd(0x09);
  2709  000AD0  0100               	movlb	0	; () banked
  2710  000AD2  5182               	movf	MFRC522_ToCard@i& (0+255),w,b
  2711  000AD4  0100               	movlb	0	; () banked
  2712  000AD6  2575               	addwf	MFRC522_ToCard@backData& (0+255),w,b
  2713  000AD8  6ED9               	movwf	fsr2l,c
  2714  000ADA  0100               	movlb	0	; () banked
  2715  000ADC  5183               	movf	(MFRC522_ToCard@i+1)& (0+255),w,b
  2716  000ADE  0100               	movlb	0	; () banked
  2717  000AE0  2176               	addwfc	(MFRC522_ToCard@backData+1)& (0+255),w,b
  2718  000AE2  6EDA               	movwf	fsr2h,c
  2719  000AE4  0E00               	movlw	0
  2720  000AE6  0100               	movlb	0	; () banked
  2721  000AE8  6F61               	movwf	(MFRC522_Rd@Address+1)& (0+255),b
  2722  000AEA  0E09               	movlw	9
  2723  000AEC  6F60               	movwf	MFRC522_Rd@Address& (0+255),b
  2724  000AEE  EC25  F007         	call	_MFRC522_Rd	;wreg free
  2725  000AF2  0100               	movlb	0	; () banked
  2726  000AF4  5160               	movf	?_MFRC522_Rd& (0+255),w,b
  2727  000AF6  6EDF               	movwf	indf2,c
  2728                           
  2729                           ; BSR set to: 0
  2730  000AF8  0100               	movlb	0	; () banked
  2731  000AFA  4B82               	infsnz	MFRC522_ToCard@i& (0+255),f,b
  2732  000AFC  2B83               	incf	(MFRC522_ToCard@i+1)& (0+255),f,b
  2733  000AFE                     l2627:
  2734                           
  2735                           ; BSR set to: 0
  2736  000AFE  0100               	movlb	0	; () banked
  2737  000B00  5184               	movf	MFRC522_ToCard@n& (0+255),w,b
  2738  000B02  0100               	movlb	0	; () banked
  2739  000B04  6F79               	movwf	??_MFRC522_ToCard& (0+255),b
  2740  000B06  6B7A               	clrf	(??_MFRC522_ToCard+1)& (0+255),b
  2741  000B08  0100               	movlb	0	; () banked
  2742  000B0A  5179               	movf	??_MFRC522_ToCard& (0+255),w,b
  2743  000B0C  0100               	movlb	0	; () banked
  2744  000B0E  5D82               	subwf	MFRC522_ToCard@i& (0+255),w,b
  2745  000B10  0100               	movlb	0	; () banked
  2746  000B12  517A               	movf	(??_MFRC522_ToCard+1)& (0+255),w,b
  2747  000B14  0100               	movlb	0	; () banked
  2748  000B16  5983               	subwfb	(MFRC522_ToCard@i+1)& (0+255),w,b
  2749  000B18  A0D8               	btfss	status,0,c
  2750  000B1A  D7DA               	goto	l2623
  2751                           
  2752                           ; BSR set to: 0
  2753                           ;rfid.h: 328: }
  2754                           ;rfid.h: 330: backData[i] = 0;
  2755                           
  2756                           ; BSR set to: 0
  2757  000B1C  0100               	movlb	0	; () banked
  2758  000B1E  5182               	movf	MFRC522_ToCard@i& (0+255),w,b
  2759  000B20  0100               	movlb	0	; () banked
  2760  000B22  2575               	addwf	MFRC522_ToCard@backData& (0+255),w,b
  2761  000B24  6ED9               	movwf	fsr2l,c
  2762  000B26  0100               	movlb	0	; () banked
  2763  000B28  5183               	movf	(MFRC522_ToCard@i+1)& (0+255),w,b
  2764  000B2A  0100               	movlb	0	; () banked
  2765  000B2C  2176               	addwfc	(MFRC522_ToCard@backData+1)& (0+255),w,b
  2766  000B2E  6EDA               	movwf	fsr2h,c
  2767  000B30  0E00               	movlw	0
  2768  000B32  6EDF               	movwf	indf2,c
  2769                           
  2770                           ; BSR set to: 0
  2771                           ;rfid.h: 331: }
  2772                           ;rfid.h: 332: }
  2773  000B34  D003               	goto	l110
  2774  000B36                     l2631:
  2775                           
  2776                           ; BSR set to: 0
  2777                           ;rfid.h: 333: else
  2778                           ;rfid.h: 334: {
  2779                           ;rfid.h: 335: _status = 2;
  2780  000B36  0E02               	movlw	2
  2781  000B38  0100               	movlb	0	; () banked
  2782  000B3A  6F7E               	movwf	MFRC522_ToCard@_status& (0+255),b
  2783  000B3C                     l110:
  2784                           
  2785                           ; BSR set to: 0
  2786                           ;rfid.h: 336: }
  2787                           ;rfid.h: 337: }
  2788                           ;rfid.h: 340: return _status;
  2789  000B3C  0100               	movlb	0	; () banked
  2790  000B3E  517E               	movf	MFRC522_ToCard@_status& (0+255),w,b
  2791  000B40  0012               	return	
  2792  000B42                     __end_of_MFRC522_ToCard:
  2793                           	opt stack 0
  2794                           tblptru	equ	0xFF8
  2795                           tblptrh	equ	0xFF7
  2796                           tblptrl	equ	0xFF6
  2797                           tablat	equ	0xFF5
  2798                           prodh	equ	0xFF4
  2799                           prodl	equ	0xFF3
  2800                           intcon	equ	0xFF2
  2801                           intcon2	equ	0xFF1
  2802                           wreg	equ	0xFE8
  2803                           indf2	equ	0xFDF
  2804                           postinc2	equ	0xFDE
  2805                           postdec2	equ	0xFDD
  2806                           fsr2h	equ	0xFDA
  2807                           fsr2l	equ	0xFD9
  2808                           status	equ	0xFD8
  2809                           
  2810 ;; *************** function _MFRC522_Clear_Bit *****************
  2811 ;; Defined at:
  2812 ;;		line 175 in file "rfid.h"
  2813 ;; Parameters:    Size  Location     Type
  2814 ;;  addr            1    wreg     unsigned char 
  2815 ;;  mask            1   10[BANK0 ] unsigned char 
  2816 ;; Auto vars:     Size  Location     Type
  2817 ;;  addr            1   17[BANK0 ] unsigned char 
  2818 ;;  tmp             2   15[BANK0 ] unsigned int 
  2819 ;; Return value:  Size  Location     Type
  2820 ;;                  1    wreg      void 
  2821 ;; Registers used:
  2822 ;;		wreg, status,2, status,0, cstack
  2823 ;; Tracked objects:
  2824 ;;		On entry : 0/0
  2825 ;;		On exit  : 0/0
  2826 ;;		Unchanged: 0/0
  2827 ;; Data sizes:     COMRAM   BANK0   BANK1   BANK2   BANK3   BANK4   BANK5   BANK6   BANK7
  2828 ;;      Params:         0       1       0       0       0       0       0       0       0
  2829 ;;      Locals:         0       3       0       0       0       0       0       0       0
  2830 ;;      Temps:          0       4       0       0       0       0       0       0       0
  2831 ;;      Totals:         0       8       0       0       0       0       0       0       0
  2832 ;;Total ram usage:        8 bytes
  2833 ;; Hardware stack levels used:    1
  2834 ;; Hardware stack levels required when called:    7
  2835 ;; This function calls:
  2836 ;;		_MFRC522_Rd
  2837 ;;		_MFRC522_Wr
  2838 ;; This function is called by:
  2839 ;;		_MFRC522_ToCard
  2840 ;;		_MFRC522_AntennaOff
  2841 ;;		_MFRC522_CRC
  2842 ;;		_MFRC522_Halt
  2843 ;;		_MFRC522_AntiColl
  2844 ;; This function uses a non-reentrant model
  2845 ;;
  2846                           
  2847                           	psect	text19
  2848  001514                     __ptext19:
  2849                           	opt stack 0
  2850  001514                     _MFRC522_Clear_Bit:
  2851                           	opt stack 20
  2852                           
  2853                           ; BSR set to: 0
  2854                           ;incstack = 0
  2855                           ;MFRC522_Clear_Bit@addr stored from wreg
  2856  001514  0100               	movlb	0	; () banked
  2857  001516  6F71               	movwf	MFRC522_Clear_Bit@addr& (0+255),b
  2858                           
  2859                           ;rfid.h: 177: unsigned int tmp = 0x0;
  2860  001518  0E00               	movlw	0
  2861  00151A  0100               	movlb	0	; () banked
  2862  00151C  6F70               	movwf	(MFRC522_Clear_Bit@tmp+1)& (0+255),b
  2863  00151E  0E00               	movlw	0
  2864  001520  6F6F               	movwf	MFRC522_Clear_Bit@tmp& (0+255),b
  2865                           
  2866                           ; BSR set to: 0
  2867                           ;rfid.h: 178: tmp = MFRC522_Rd(addr);
  2868  001522  C071  F060         	movff	MFRC522_Clear_Bit@addr,MFRC522_Rd@Address
  2869  001526  0100               	movlb	0	; () banked
  2870  001528  6B61               	clrf	(MFRC522_Rd@Address+1)& (0+255),b
  2871  00152A  EC25  F007         	call	_MFRC522_Rd	;wreg free
  2872  00152E  C060  F06F         	movff	?_MFRC522_Rd,MFRC522_Clear_Bit@tmp
  2873  001532  C061  F070         	movff	?_MFRC522_Rd+1,MFRC522_Clear_Bit@tmp+1
  2874                           
  2875                           ;rfid.h: 179: MFRC522_Wr(addr, tmp&~mask);
  2876  001536  C071  F060         	movff	MFRC522_Clear_Bit@addr,MFRC522_Wr@Address
  2877  00153A  0100               	movlb	0	; () banked
  2878  00153C  6B61               	clrf	(MFRC522_Wr@Address+1)& (0+255),b
  2879  00153E  0100               	movlb	0	; () banked
  2880  001540  516A               	movf	MFRC522_Clear_Bit@mask& (0+255),w,b
  2881  001542  0100               	movlb	0	; () banked
  2882  001544  6F6B               	movwf	??_MFRC522_Clear_Bit& (0+255),b
  2883  001546  6B6C               	clrf	(??_MFRC522_Clear_Bit+1)& (0+255),b
  2884  001548  0100               	movlb	0	; () banked
  2885  00154A  1D6B               	comf	??_MFRC522_Clear_Bit& (0+255),w,b
  2886  00154C  0100               	movlb	0	; () banked
  2887  00154E  6F6D               	movwf	(??_MFRC522_Clear_Bit+2)& (0+255),b
  2888  001550  0100               	movlb	0	; () banked
  2889  001552  1D6C               	comf	(??_MFRC522_Clear_Bit+1)& (0+255),w,b
  2890  001554  0100               	movlb	0	; () banked
  2891  001556  6F6E               	movwf	(??_MFRC522_Clear_Bit+3)& (0+255),b
  2892  001558  0100               	movlb	0	; () banked
  2893  00155A  516F               	movf	MFRC522_Clear_Bit@tmp& (0+255),w,b
  2894  00155C  0100               	movlb	0	; () banked
  2895  00155E  156D               	andwf	(??_MFRC522_Clear_Bit+2)& (0+255),w,b
  2896  001560  0100               	movlb	0	; () banked
  2897  001562  6F62               	movwf	MFRC522_Wr@value& (0+255),b
  2898  001564  0100               	movlb	0	; () banked
  2899  001566  5170               	movf	(MFRC522_Clear_Bit@tmp+1)& (0+255),w,b
  2900  001568  0100               	movlb	0	; () banked
  2901  00156A  156E               	andwf	(??_MFRC522_Clear_Bit+3)& (0+255),w,b
  2902  00156C  0100               	movlb	0	; () banked
  2903  00156E  6F63               	movwf	(MFRC522_Wr@value+1)& (0+255),b
  2904  001570  EC90  F007         	call	_MFRC522_Wr	;wreg free
  2905  001574  0012               	return		;funcret
  2906  001576                     __end_of_MFRC522_Clear_Bit:
  2907                           	opt stack 0
  2908                           tblptru	equ	0xFF8
  2909                           tblptrh	equ	0xFF7
  2910                           tblptrl	equ	0xFF6
  2911                           tablat	equ	0xFF5
  2912                           prodh	equ	0xFF4
  2913                           prodl	equ	0xFF3
  2914                           intcon	equ	0xFF2
  2915                           intcon2	equ	0xFF1
  2916                           wreg	equ	0xFE8
  2917                           indf2	equ	0xFDF
  2918                           postinc2	equ	0xFDE
  2919                           postdec2	equ	0xFDD
  2920                           fsr2h	equ	0xFDA
  2921                           fsr2l	equ	0xFD9
  2922                           status	equ	0xFD8
  2923                           
  2924 ;; *************** function _MFRC522_Init *****************
  2925 ;; Defined at:
  2926 ;;		line 211 in file "rfid.h"
  2927 ;; Parameters:    Size  Location     Type
  2928 ;;		None
  2929 ;; Auto vars:     Size  Location     Type
  2930 ;;		None
  2931 ;; Return value:  Size  Location     Type
  2932 ;;                  1    wreg      void 
  2933 ;; Registers used:
  2934 ;;		wreg, status,2, status,0, cstack
  2935 ;; Tracked objects:
  2936 ;;		On entry : 0/0
  2937 ;;		On exit  : 0/0
  2938 ;;		Unchanged: 0/0
  2939 ;; Data sizes:     COMRAM   BANK0   BANK1   BANK2   BANK3   BANK4   BANK5   BANK6   BANK7
  2940 ;;      Params:         0       0       0       0       0       0       0       0       0
  2941 ;;      Locals:         0       0       0       0       0       0       0       0       0
  2942 ;;      Temps:          0       0       0       0       0       0       0       0       0
  2943 ;;      Totals:         0       0       0       0       0       0       0       0       0
  2944 ;;Total ram usage:        0 bytes
  2945 ;; Hardware stack levels used:    1
  2946 ;; Hardware stack levels required when called:    9
  2947 ;; This function calls:
  2948 ;;		_MFRC522_AntennaOn
  2949 ;;		_MFRC522_Reset
  2950 ;;		_MFRC522_Wr
  2951 ;; This function is called by:
  2952 ;;		_main
  2953 ;; This function uses a non-reentrant model
  2954 ;;
  2955                           
  2956                           	psect	text20
  2957  001132                     __ptext20:
  2958                           	opt stack 0
  2959  001132                     _MFRC522_Init:
  2960                           	opt stack 21
  2961                           
  2962                           ;rfid.h: 225: PORTBbits.RB1 = 1;
  2963                           
  2964                           ;incstack = 0
  2965  001132  8281               	bsf	3969,1,c	;volatile
  2966                           
  2967                           ;rfid.h: 226: PORTBbits.RB3 = 1;
  2968  001134  8681               	bsf	3969,3,c	;volatile
  2969                           
  2970                           ;rfid.h: 228: MFRC522_Reset();
  2971  001136  ECF4  F00B         	call	_MFRC522_Reset	;wreg free
  2972                           
  2973                           ;rfid.h: 230: MFRC522_Wr( 0x2A, 0x8D );
  2974  00113A  0E00               	movlw	0
  2975  00113C  0100               	movlb	0	; () banked
  2976  00113E  6F61               	movwf	(MFRC522_Wr@Address+1)& (0+255),b
  2977  001140  0E2A               	movlw	42
  2978  001142  6F60               	movwf	MFRC522_Wr@Address& (0+255),b
  2979  001144  0E00               	movlw	0
  2980  001146  0100               	movlb	0	; () banked
  2981  001148  6F63               	movwf	(MFRC522_Wr@value+1)& (0+255),b
  2982  00114A  0E8D               	movlw	141
  2983  00114C  6F62               	movwf	MFRC522_Wr@value& (0+255),b
  2984  00114E  EC90  F007         	call	_MFRC522_Wr	;wreg free
  2985                           
  2986                           ;rfid.h: 231: MFRC522_Wr( 0x2B, 0x3E );
  2987  001152  0E00               	movlw	0
  2988  001154  0100               	movlb	0	; () banked
  2989  001156  6F61               	movwf	(MFRC522_Wr@Address+1)& (0+255),b
  2990  001158  0E2B               	movlw	43
  2991  00115A  6F60               	movwf	MFRC522_Wr@Address& (0+255),b
  2992  00115C  0E00               	movlw	0
  2993  00115E  0100               	movlb	0	; () banked
  2994  001160  6F63               	movwf	(MFRC522_Wr@value+1)& (0+255),b
  2995  001162  0E3E               	movlw	62
  2996  001164  6F62               	movwf	MFRC522_Wr@value& (0+255),b
  2997  001166  EC90  F007         	call	_MFRC522_Wr	;wreg free
  2998                           
  2999                           ;rfid.h: 232: MFRC522_Wr( 0x2D, 30 );
  3000  00116A  0E00               	movlw	0
  3001  00116C  0100               	movlb	0	; () banked
  3002  00116E  6F61               	movwf	(MFRC522_Wr@Address+1)& (0+255),b
  3003  001170  0E2D               	movlw	45
  3004  001172  6F60               	movwf	MFRC522_Wr@Address& (0+255),b
  3005  001174  0E00               	movlw	0
  3006  001176  0100               	movlb	0	; () banked
  3007  001178  6F63               	movwf	(MFRC522_Wr@value+1)& (0+255),b
  3008  00117A  0E1E               	movlw	30
  3009  00117C  6F62               	movwf	MFRC522_Wr@value& (0+255),b
  3010  00117E  EC90  F007         	call	_MFRC522_Wr	;wreg free
  3011                           
  3012                           ;rfid.h: 233: MFRC522_Wr( 0x2C, 0 );
  3013  001182  0E00               	movlw	0
  3014  001184  0100               	movlb	0	; () banked
  3015  001186  6F61               	movwf	(MFRC522_Wr@Address+1)& (0+255),b
  3016  001188  0E2C               	movlw	44
  3017  00118A  6F60               	movwf	MFRC522_Wr@Address& (0+255),b
  3018  00118C  0E00               	movlw	0
  3019  00118E  0100               	movlb	0	; () banked
  3020  001190  6F63               	movwf	(MFRC522_Wr@value+1)& (0+255),b
  3021  001192  0E00               	movlw	0
  3022  001194  6F62               	movwf	MFRC522_Wr@value& (0+255),b
  3023  001196  EC90  F007         	call	_MFRC522_Wr	;wreg free
  3024                           
  3025                           ;rfid.h: 235: MFRC522_Wr( 0x15, 0x40 );
  3026  00119A  0E00               	movlw	0
  3027  00119C  0100               	movlb	0	; () banked
  3028  00119E  6F61               	movwf	(MFRC522_Wr@Address+1)& (0+255),b
  3029  0011A0  0E15               	movlw	21
  3030  0011A2  6F60               	movwf	MFRC522_Wr@Address& (0+255),b
  3031  0011A4  0E00               	movlw	0
  3032  0011A6  0100               	movlb	0	; () banked
  3033  0011A8  6F63               	movwf	(MFRC522_Wr@value+1)& (0+255),b
  3034  0011AA  0E40               	movlw	64
  3035  0011AC  6F62               	movwf	MFRC522_Wr@value& (0+255),b
  3036  0011AE  EC90  F007         	call	_MFRC522_Wr	;wreg free
  3037                           
  3038                           ;rfid.h: 236: MFRC522_Wr( 0x11, 0x3D );
  3039  0011B2  0E00               	movlw	0
  3040  0011B4  0100               	movlb	0	; () banked
  3041  0011B6  6F61               	movwf	(MFRC522_Wr@Address+1)& (0+255),b
  3042  0011B8  0E11               	movlw	17
  3043  0011BA  6F60               	movwf	MFRC522_Wr@Address& (0+255),b
  3044  0011BC  0E00               	movlw	0
  3045  0011BE  0100               	movlb	0	; () banked
  3046  0011C0  6F63               	movwf	(MFRC522_Wr@value+1)& (0+255),b
  3047  0011C2  0E3D               	movlw	61
  3048  0011C4  6F62               	movwf	MFRC522_Wr@value& (0+255),b
  3049  0011C6  EC90  F007         	call	_MFRC522_Wr	;wreg free
  3050                           
  3051                           ;rfid.h: 241: MFRC522_AntennaOn();
  3052  0011CA  EC5B  F00C         	call	_MFRC522_AntennaOn	;wreg free
  3053  0011CE  0012               	return		;funcret
  3054  0011D0                     __end_of_MFRC522_Init:
  3055                           	opt stack 0
  3056                           tblptru	equ	0xFF8
  3057                           tblptrh	equ	0xFF7
  3058                           tblptrl	equ	0xFF6
  3059                           tablat	equ	0xFF5
  3060                           prodh	equ	0xFF4
  3061                           prodl	equ	0xFF3
  3062                           intcon	equ	0xFF2
  3063                           intcon2	equ	0xFF1
  3064                           wreg	equ	0xFE8
  3065                           indf2	equ	0xFDF
  3066                           postinc2	equ	0xFDE
  3067                           postdec2	equ	0xFDD
  3068                           fsr2h	equ	0xFDA
  3069                           fsr2l	equ	0xFD9
  3070                           status	equ	0xFD8
  3071                           
  3072 ;; *************** function _MFRC522_Reset *****************
  3073 ;; Defined at:
  3074 ;;		line 187 in file "rfid.h"
  3075 ;; Parameters:    Size  Location     Type
  3076 ;;		None
  3077 ;; Auto vars:     Size  Location     Type
  3078 ;;		None
  3079 ;; Return value:  Size  Location     Type
  3080 ;;                  1    wreg      void 
  3081 ;; Registers used:
  3082 ;;		wreg, status,2, status,0, cstack
  3083 ;; Tracked objects:
  3084 ;;		On entry : 0/0
  3085 ;;		On exit  : 0/0
  3086 ;;		Unchanged: 0/0
  3087 ;; Data sizes:     COMRAM   BANK0   BANK1   BANK2   BANK3   BANK4   BANK5   BANK6   BANK7
  3088 ;;      Params:         0       0       0       0       0       0       0       0       0
  3089 ;;      Locals:         0       0       0       0       0       0       0       0       0
  3090 ;;      Temps:          0       0       0       0       0       0       0       0       0
  3091 ;;      Totals:         0       0       0       0       0       0       0       0       0
  3092 ;;Total ram usage:        0 bytes
  3093 ;; Hardware stack levels used:    1
  3094 ;; Hardware stack levels required when called:    7
  3095 ;; This function calls:
  3096 ;;		_MFRC522_Wr
  3097 ;; This function is called by:
  3098 ;;		_MFRC522_Init
  3099 ;; This function uses a non-reentrant model
  3100 ;;
  3101                           
  3102                           	psect	text21
  3103  0017E8                     __ptext21:
  3104                           	opt stack 0
  3105  0017E8                     _MFRC522_Reset:
  3106                           	opt stack 22
  3107                           
  3108                           ;rfid.h: 189: PORTBbits.RB3 = 1;
  3109                           
  3110                           ;incstack = 0
  3111  0017E8  8681               	bsf	3969,3,c	;volatile
  3112                           
  3113                           ;rfid.h: 190: _delay((unsigned long)((1)*(20000000/4000000.0)));
  3114  0017EA  D000               	nop2		;2 cycle nop
  3115  0017EC  D000               	nop2		;2 cycle nop
  3116  0017EE  F000               	nop	
  3117                           
  3118                           ;rfid.h: 191: PORTBbits.RB3 = 0;
  3119  0017F0  9681               	bcf	3969,3,c	;volatile
  3120                           
  3121                           ;rfid.h: 192: _delay((unsigned long)((1)*(20000000/4000000.0)));
  3122  0017F2  D000               	nop2		;2 cycle nop
  3123  0017F4  D000               	nop2		;2 cycle nop
  3124  0017F6  F000               	nop	
  3125                           
  3126                           ;rfid.h: 193: PORTBbits.RB3 = 1;
  3127  0017F8  8681               	bsf	3969,3,c	;volatile
  3128                           
  3129                           ;rfid.h: 194: _delay((unsigned long)((1)*(20000000/4000000.0)));
  3130  0017FA  D000               	nop2		;2 cycle nop
  3131  0017FC  D000               	nop2		;2 cycle nop
  3132  0017FE  F000               	nop	
  3133                           
  3134                           ;rfid.h: 195: MFRC522_Wr(0x01, 0x0F);
  3135  001800  0E00               	movlw	0
  3136  001802  0100               	movlb	0	; () banked
  3137  001804  6F61               	movwf	(MFRC522_Wr@Address+1)& (0+255),b
  3138  001806  0E01               	movlw	1
  3139  001808  6F60               	movwf	MFRC522_Wr@Address& (0+255),b
  3140  00180A  0E00               	movlw	0
  3141  00180C  0100               	movlb	0	; () banked
  3142  00180E  6F63               	movwf	(MFRC522_Wr@value+1)& (0+255),b
  3143  001810  0E0F               	movlw	15
  3144  001812  6F62               	movwf	MFRC522_Wr@value& (0+255),b
  3145  001814  EC90  F007         	call	_MFRC522_Wr	;wreg free
  3146                           
  3147                           ;rfid.h: 196: _delay((unsigned long)((1)*(20000000/4000000.0)));
  3148  001818  D000               	nop2		;2 cycle nop
  3149  00181A  D000               	nop2		;2 cycle nop
  3150  00181C  F000               	nop	
  3151  00181E  0012               	return		;funcret
  3152  001820                     __end_of_MFRC522_Reset:
  3153                           	opt stack 0
  3154                           tblptru	equ	0xFF8
  3155                           tblptrh	equ	0xFF7
  3156                           tblptrl	equ	0xFF6
  3157                           tablat	equ	0xFF5
  3158                           prodh	equ	0xFF4
  3159                           prodl	equ	0xFF3
  3160                           intcon	equ	0xFF2
  3161                           intcon2	equ	0xFF1
  3162                           wreg	equ	0xFE8
  3163                           indf2	equ	0xFDF
  3164                           postinc2	equ	0xFDE
  3165                           postdec2	equ	0xFDD
  3166                           fsr2h	equ	0xFDA
  3167                           fsr2l	equ	0xFD9
  3168                           status	equ	0xFD8
  3169                           
  3170 ;; *************** function _MFRC522_AntennaOn *****************
  3171 ;; Defined at:
  3172 ;;		line 198 in file "rfid.h"
  3173 ;; Parameters:    Size  Location     Type
  3174 ;;		None
  3175 ;; Auto vars:     Size  Location     Type
  3176 ;;  stt             2   14[BANK0 ] unsigned int 
  3177 ;; Return value:  Size  Location     Type
  3178 ;;                  1    wreg      void 
  3179 ;; Registers used:
  3180 ;;		wreg, status,2, status,0, cstack
  3181 ;; Tracked objects:
  3182 ;;		On entry : 0/0
  3183 ;;		On exit  : 0/0
  3184 ;;		Unchanged: 0/0
  3185 ;; Data sizes:     COMRAM   BANK0   BANK1   BANK2   BANK3   BANK4   BANK5   BANK6   BANK7
  3186 ;;      Params:         0       0       0       0       0       0       0       0       0
  3187 ;;      Locals:         0       2       0       0       0       0       0       0       0
  3188 ;;      Temps:          0       0       0       0       0       0       0       0       0
  3189 ;;      Totals:         0       2       0       0       0       0       0       0       0
  3190 ;;Total ram usage:        2 bytes
  3191 ;; Hardware stack levels used:    1
  3192 ;; Hardware stack levels required when called:    8
  3193 ;; This function calls:
  3194 ;;		_MFRC522_Rd
  3195 ;;		_MFRC522_Set_Bit
  3196 ;; This function is called by:
  3197 ;;		_MFRC522_Init
  3198 ;; This function uses a non-reentrant model
  3199 ;;
  3200                           
  3201                           	psect	text22
  3202  0018B6                     __ptext22:
  3203                           	opt stack 0
  3204  0018B6                     _MFRC522_AntennaOn:
  3205                           	opt stack 21
  3206                           
  3207                           ;rfid.h: 200: unsigned int stt;
  3208                           ;rfid.h: 201: stt = MFRC522_Rd(0x14);
  3209                           
  3210                           ;incstack = 0
  3211  0018B6  0E00               	movlw	0
  3212  0018B8  0100               	movlb	0	; () banked
  3213  0018BA  6F61               	movwf	(MFRC522_Rd@Address+1)& (0+255),b
  3214  0018BC  0E14               	movlw	20
  3215  0018BE  6F60               	movwf	MFRC522_Rd@Address& (0+255),b
  3216  0018C0  EC25  F007         	call	_MFRC522_Rd	;wreg free
  3217  0018C4  C060  F06E         	movff	?_MFRC522_Rd,MFRC522_AntennaOn@stt
  3218  0018C8  C061  F06F         	movff	?_MFRC522_Rd+1,MFRC522_AntennaOn@stt+1
  3219                           
  3220                           ;rfid.h: 202: MFRC522_Set_Bit(0x14, 0x03);
  3221  0018CC  0E03               	movlw	3
  3222  0018CE  0100               	movlb	0	; () banked
  3223  0018D0  6F6A               	movwf	MFRC522_Set_Bit@mask& (0+255),b
  3224  0018D2  0E14               	movlw	20
  3225  0018D4  EC79  F00B         	call	_MFRC522_Set_Bit
  3226  0018D8  0012               	return		;funcret
  3227  0018DA                     __end_of_MFRC522_AntennaOn:
  3228                           	opt stack 0
  3229                           tblptru	equ	0xFF8
  3230                           tblptrh	equ	0xFF7
  3231                           tblptrl	equ	0xFF6
  3232                           tablat	equ	0xFF5
  3233                           prodh	equ	0xFF4
  3234                           prodl	equ	0xFF3
  3235                           intcon	equ	0xFF2
  3236                           intcon2	equ	0xFF1
  3237                           wreg	equ	0xFE8
  3238                           indf2	equ	0xFDF
  3239                           postinc2	equ	0xFDE
  3240                           postdec2	equ	0xFDD
  3241                           fsr2h	equ	0xFDA
  3242                           fsr2l	equ	0xFD9
  3243                           status	equ	0xFD8
  3244                           
  3245 ;; *************** function _MFRC522_Set_Bit *****************
  3246 ;; Defined at:
  3247 ;;		line 181 in file "rfid.h"
  3248 ;; Parameters:    Size  Location     Type
  3249 ;;  addr            1    wreg     unsigned char 
  3250 ;;  mask            1   10[BANK0 ] unsigned char 
  3251 ;; Auto vars:     Size  Location     Type
  3252 ;;  addr            1   13[BANK0 ] unsigned char 
  3253 ;;  tmp             2   11[BANK0 ] unsigned int 
  3254 ;; Return value:  Size  Location     Type
  3255 ;;                  1    wreg      void 
  3256 ;; Registers used:
  3257 ;;		wreg, status,2, status,0, cstack
  3258 ;; Tracked objects:
  3259 ;;		On entry : 0/0
  3260 ;;		On exit  : 0/0
  3261 ;;		Unchanged: 0/0
  3262 ;; Data sizes:     COMRAM   BANK0   BANK1   BANK2   BANK3   BANK4   BANK5   BANK6   BANK7
  3263 ;;      Params:         0       1       0       0       0       0       0       0       0
  3264 ;;      Locals:         0       3       0       0       0       0       0       0       0
  3265 ;;      Temps:          0       0       0       0       0       0       0       0       0
  3266 ;;      Totals:         0       4       0       0       0       0       0       0       0
  3267 ;;Total ram usage:        4 bytes
  3268 ;; Hardware stack levels used:    1
  3269 ;; Hardware stack levels required when called:    7
  3270 ;; This function calls:
  3271 ;;		_MFRC522_Rd
  3272 ;;		_MFRC522_Wr
  3273 ;; This function is called by:
  3274 ;;		_MFRC522_AntennaOn
  3275 ;;		_MFRC522_ToCard
  3276 ;;		_MFRC522_CRC
  3277 ;; This function uses a non-reentrant model
  3278 ;;
  3279                           
  3280                           	psect	text23
  3281  0016F2                     __ptext23:
  3282                           	opt stack 0
  3283  0016F2                     _MFRC522_Set_Bit:
  3284                           	opt stack 20
  3285                           
  3286                           ;incstack = 0
  3287                           ;MFRC522_Set_Bit@addr stored from wreg
  3288  0016F2  0100               	movlb	0	; () banked
  3289  0016F4  6F6D               	movwf	MFRC522_Set_Bit@addr& (0+255),b
  3290                           
  3291                           ;rfid.h: 183: unsigned int tmp = 0x0;
  3292  0016F6  0E00               	movlw	0
  3293  0016F8  0100               	movlb	0	; () banked
  3294  0016FA  6F6C               	movwf	(MFRC522_Set_Bit@tmp+1)& (0+255),b
  3295  0016FC  0E00               	movlw	0
  3296  0016FE  6F6B               	movwf	MFRC522_Set_Bit@tmp& (0+255),b
  3297                           
  3298                           ; BSR set to: 0
  3299                           ;rfid.h: 184: tmp = MFRC522_Rd(addr);
  3300  001700  C06D  F060         	movff	MFRC522_Set_Bit@addr,MFRC522_Rd@Address
  3301  001704  0100               	movlb	0	; () banked
  3302  001706  6B61               	clrf	(MFRC522_Rd@Address+1)& (0+255),b
  3303  001708  EC25  F007         	call	_MFRC522_Rd	;wreg free
  3304  00170C  C060  F06B         	movff	?_MFRC522_Rd,MFRC522_Set_Bit@tmp
  3305  001710  C061  F06C         	movff	?_MFRC522_Rd+1,MFRC522_Set_Bit@tmp+1
  3306                           
  3307                           ;rfid.h: 185: MFRC522_Wr(addr, tmp | mask);
  3308  001714  C06D  F060         	movff	MFRC522_Set_Bit@addr,MFRC522_Wr@Address
  3309  001718  0100               	movlb	0	; () banked
  3310  00171A  6B61               	clrf	(MFRC522_Wr@Address+1)& (0+255),b
  3311  00171C  0100               	movlb	0	; () banked
  3312  00171E  516B               	movf	MFRC522_Set_Bit@tmp& (0+255),w,b
  3313  001720  0100               	movlb	0	; () banked
  3314  001722  116A               	iorwf	MFRC522_Set_Bit@mask& (0+255),w,b
  3315  001724  0100               	movlb	0	; () banked
  3316  001726  6F62               	movwf	MFRC522_Wr@value& (0+255),b
  3317  001728  0100               	movlb	0	; () banked
  3318  00172A  516C               	movf	(MFRC522_Set_Bit@tmp+1)& (0+255),w,b
  3319  00172C  0100               	movlb	0	; () banked
  3320  00172E  6F63               	movwf	(MFRC522_Wr@value+1)& (0+255),b
  3321  001730  EC90  F007         	call	_MFRC522_Wr	;wreg free
  3322  001734  0012               	return		;funcret
  3323  001736                     __end_of_MFRC522_Set_Bit:
  3324                           	opt stack 0
  3325                           tblptru	equ	0xFF8
  3326                           tblptrh	equ	0xFF7
  3327                           tblptrl	equ	0xFF6
  3328                           tablat	equ	0xFF5
  3329                           prodh	equ	0xFF4
  3330                           prodl	equ	0xFF3
  3331                           intcon	equ	0xFF2
  3332                           intcon2	equ	0xFF1
  3333                           wreg	equ	0xFE8
  3334                           indf2	equ	0xFDF
  3335                           postinc2	equ	0xFDE
  3336                           postdec2	equ	0xFDD
  3337                           fsr2h	equ	0xFDA
  3338                           fsr2l	equ	0xFD9
  3339                           status	equ	0xFD8
  3340                           
  3341 ;; *************** function _MFRC522_Wr *****************
  3342 ;; Defined at:
  3343 ;;		line 148 in file "rfid.h"
  3344 ;; Parameters:    Size  Location     Type
  3345 ;;  Address         2    0[BANK0 ] unsigned int 
  3346 ;;  value           2    2[BANK0 ] unsigned int 
  3347 ;; Auto vars:     Size  Location     Type
  3348 ;;  i               2    8[BANK0 ] unsigned int 
  3349 ;;  ucAddr          2    6[BANK0 ] unsigned int 
  3350 ;; Return value:  Size  Location     Type
  3351 ;;                  1    wreg      void 
  3352 ;; Registers used:
  3353 ;;		wreg, status,2, status,0
  3354 ;; Tracked objects:
  3355 ;;		On entry : 0/0
  3356 ;;		On exit  : 0/0
  3357 ;;		Unchanged: 0/0
  3358 ;; Data sizes:     COMRAM   BANK0   BANK1   BANK2   BANK3   BANK4   BANK5   BANK6   BANK7
  3359 ;;      Params:         0       4       0       0       0       0       0       0       0
  3360 ;;      Locals:         0       4       0       0       0       0       0       0       0
  3361 ;;      Temps:          0       2       0       0       0       0       0       0       0
  3362 ;;      Totals:         0      10       0       0       0       0       0       0       0
  3363 ;;Total ram usage:       10 bytes
  3364 ;; Hardware stack levels used:    1
  3365 ;; Hardware stack levels required when called:    6
  3366 ;; This function calls:
  3367 ;;		Nothing
  3368 ;; This function is called by:
  3369 ;;		_MFRC522_Clear_Bit
  3370 ;;		_MFRC522_Set_Bit
  3371 ;;		_MFRC522_Reset
  3372 ;;		_MFRC522_Init
  3373 ;;		_MFRC522_ToCard
  3374 ;;		_MFRC522_Request
  3375 ;;		_MFRC522_CRC
  3376 ;;		_MFRC522_AntiColl
  3377 ;; This function uses a non-reentrant model
  3378 ;;
  3379                           
  3380                           	psect	text24
  3381  000F20                     __ptext24:
  3382                           	opt stack 0
  3383  000F20                     _MFRC522_Wr:
  3384                           	opt stack 22
  3385                           
  3386                           ;rfid.h: 151: unsigned int i, ucAddr;
  3387                           ;rfid.h: 152: PORTBbits.RB1 = 0;
  3388                           
  3389                           ;incstack = 0
  3390  000F20  9281               	bcf	3969,1,c	;volatile
  3391                           
  3392                           ;rfid.h: 153: PORTCbits.RC2 = 0;
  3393  000F22  9482               	bcf	3970,2,c	;volatile
  3394                           
  3395                           ;rfid.h: 154: ucAddr = ((Address << 1)&0x7E);
  3396  000F24  C060  F064         	movff	MFRC522_Wr@Address,??_MFRC522_Wr
  3397  000F28  C061  F065         	movff	MFRC522_Wr@Address+1,??_MFRC522_Wr+1
  3398  000F2C  90D8               	bcf	status,0,c
  3399  000F2E  0100               	movlb	0	; () banked
  3400  000F30  3764               	rlcf	??_MFRC522_Wr& (0+255),f,b
  3401  000F32  3765               	rlcf	(??_MFRC522_Wr+1)& (0+255),f,b
  3402  000F34  0E7E               	movlw	126
  3403  000F36  0100               	movlb	0	; () banked
  3404  000F38  1564               	andwf	??_MFRC522_Wr& (0+255),w,b
  3405  000F3A  0100               	movlb	0	; () banked
  3406  000F3C  6F66               	movwf	MFRC522_Wr@ucAddr& (0+255),b
  3407  000F3E  0100               	movlb	0	; () banked
  3408  000F40  6B67               	clrf	(MFRC522_Wr@ucAddr+1)& (0+255),b
  3409                           
  3410                           ; BSR set to: 0
  3411                           ;rfid.h: 155: for (i = 8; i > 0; i--)
  3412  000F42  0E00               	movlw	0
  3413  000F44  0100               	movlb	0	; () banked
  3414  000F46  6F69               	movwf	(MFRC522_Wr@i+1)& (0+255),b
  3415  000F48  0E08               	movlw	8
  3416  000F4A  6F68               	movwf	MFRC522_Wr@i& (0+255),b
  3417  000F4C                     l2287:
  3418                           
  3419                           ; BSR set to: 0
  3420  000F4C  0100               	movlb	0	; () banked
  3421  000F4E  5168               	movf	MFRC522_Wr@i& (0+255),w,b
  3422  000F50  0100               	movlb	0	; () banked
  3423  000F52  1169               	iorwf	(MFRC522_Wr@i+1)& (0+255),w,b
  3424  000F54  B4D8               	btfsc	status,2,c
  3425  000F56  D01A               	goto	l2301
  3426                           
  3427                           ; BSR set to: 0
  3428                           ;rfid.h: 156: {
  3429                           ;rfid.h: 157: PORTDbits.RD0 = ((ucAddr & 0x80) == 0x80);
  3430                           
  3431                           ; BSR set to: 0
  3432                           
  3433                           ; BSR set to: 0
  3434  000F58  0100               	movlb	0	; () banked
  3435  000F5A  AF66               	btfss	MFRC522_Wr@ucAddr& (0+255),7,b
  3436  000F5C  D004               	goto	u1400
  3437  000F5E  0100               	movlb	0	; () banked
  3438  000F60  6B64               	clrf	??_MFRC522_Wr& (0+255),b
  3439  000F62  2B64               	incf	??_MFRC522_Wr& (0+255),f,b
  3440  000F64  D002               	goto	u1418
  3441  000F66                     u1400:
  3442  000F66  0100               	movlb	0	; () banked
  3443  000F68  6B64               	clrf	??_MFRC522_Wr& (0+255),b
  3444  000F6A                     u1418:
  3445  000F6A  5083               	movf	3971,w,c	;volatile
  3446  000F6C  0100               	movlb	0	; () banked
  3447  000F6E  1964               	xorwf	??_MFRC522_Wr& (0+255),w,b
  3448  000F70  0BFE               	andlw	-2
  3449  000F72  1964               	xorwf	??_MFRC522_Wr& (0+255),w,b
  3450  000F74  6E83               	movwf	3971,c	;volatile
  3451                           
  3452                           ; BSR set to: 0
  3453                           ;rfid.h: 158: PORTBbits.RB1 = 1;
  3454  000F76  8281               	bsf	3969,1,c	;volatile
  3455                           
  3456                           ; BSR set to: 0
  3457                           ;rfid.h: 159: ucAddr <<= 1;
  3458  000F78  0100               	movlb	0	; () banked
  3459  000F7A  90D8               	bcf	status,0,c
  3460  000F7C  3766               	rlcf	MFRC522_Wr@ucAddr& (0+255),f,b
  3461  000F7E  3767               	rlcf	(MFRC522_Wr@ucAddr+1)& (0+255),f,b
  3462                           
  3463                           ; BSR set to: 0
  3464                           ;rfid.h: 160: PORTBbits.RB1 = 0;
  3465  000F80  9281               	bcf	3969,1,c	;volatile
  3466                           
  3467                           ; BSR set to: 0
  3468  000F82  0100               	movlb	0	; () banked
  3469  000F84  0768               	decf	MFRC522_Wr@i& (0+255),f,b
  3470  000F86  A0D8               	btfss	status,0,c
  3471  000F88  0769               	decf	(MFRC522_Wr@i+1)& (0+255),f,b
  3472  000F8A  D7E0               	goto	l2287
  3473  000F8C                     l2301:
  3474                           
  3475                           ; BSR set to: 0
  3476                           ;rfid.h: 161: }
  3477                           ;rfid.h: 164: for (i = 8; i > 0; i--)
  3478  000F8C  0E00               	movlw	0
  3479  000F8E  0100               	movlb	0	; () banked
  3480  000F90  6F69               	movwf	(MFRC522_Wr@i+1)& (0+255),b
  3481  000F92  0E08               	movlw	8
  3482  000F94  6F68               	movwf	MFRC522_Wr@i& (0+255),b
  3483  000F96                     l2303:
  3484                           
  3485                           ; BSR set to: 0
  3486  000F96  0100               	movlb	0	; () banked
  3487  000F98  5168               	movf	MFRC522_Wr@i& (0+255),w,b
  3488  000F9A  0100               	movlb	0	; () banked
  3489  000F9C  1169               	iorwf	(MFRC522_Wr@i+1)& (0+255),w,b
  3490  000F9E  B4D8               	btfsc	status,2,c
  3491  000FA0  D01A               	goto	l75
  3492                           
  3493                           ; BSR set to: 0
  3494                           ;rfid.h: 165: {
  3495                           ;rfid.h: 166: PORTDbits.RD0 = ((value & 0x80) == 0x80);
  3496                           
  3497                           ; BSR set to: 0
  3498                           
  3499                           ; BSR set to: 0
  3500  000FA2  0100               	movlb	0	; () banked
  3501  000FA4  AF62               	btfss	MFRC522_Wr@value& (0+255),7,b
  3502  000FA6  D004               	goto	u1440
  3503  000FA8  0100               	movlb	0	; () banked
  3504  000FAA  6B64               	clrf	??_MFRC522_Wr& (0+255),b
  3505  000FAC  2B64               	incf	??_MFRC522_Wr& (0+255),f,b
  3506  000FAE  D002               	goto	u1458
  3507  000FB0                     u1440:
  3508  000FB0  0100               	movlb	0	; () banked
  3509  000FB2  6B64               	clrf	??_MFRC522_Wr& (0+255),b
  3510  000FB4                     u1458:
  3511  000FB4  5083               	movf	3971,w,c	;volatile
  3512  000FB6  0100               	movlb	0	; () banked
  3513  000FB8  1964               	xorwf	??_MFRC522_Wr& (0+255),w,b
  3514  000FBA  0BFE               	andlw	-2
  3515  000FBC  1964               	xorwf	??_MFRC522_Wr& (0+255),w,b
  3516  000FBE  6E83               	movwf	3971,c	;volatile
  3517                           
  3518                           ; BSR set to: 0
  3519                           ;rfid.h: 167: PORTBbits.RB1 = 1;
  3520  000FC0  8281               	bsf	3969,1,c	;volatile
  3521                           
  3522                           ; BSR set to: 0
  3523                           ;rfid.h: 168: value <<= 1;
  3524  000FC2  0100               	movlb	0	; () banked
  3525  000FC4  90D8               	bcf	status,0,c
  3526  000FC6  3762               	rlcf	MFRC522_Wr@value& (0+255),f,b
  3527  000FC8  3763               	rlcf	(MFRC522_Wr@value+1)& (0+255),f,b
  3528                           
  3529                           ; BSR set to: 0
  3530                           ;rfid.h: 169: PORTBbits.RB1 = 0;
  3531  000FCA  9281               	bcf	3969,1,c	;volatile
  3532                           
  3533                           ; BSR set to: 0
  3534  000FCC  0100               	movlb	0	; () banked
  3535  000FCE  0768               	decf	MFRC522_Wr@i& (0+255),f,b
  3536  000FD0  A0D8               	btfss	status,0,c
  3537  000FD2  0769               	decf	(MFRC522_Wr@i+1)& (0+255),f,b
  3538  000FD4  D7E0               	goto	l2303
  3539  000FD6                     l75:
  3540                           
  3541                           ; BSR set to: 0
  3542                           ;rfid.h: 170: }
  3543                           ;rfid.h: 172: PORTCbits.RC2 = 1;
  3544  000FD6  8482               	bsf	3970,2,c	;volatile
  3545                           
  3546                           ;rfid.h: 173: PORTBbits.RB1 = 1;
  3547  000FD8  8281               	bsf	3969,1,c	;volatile
  3548                           
  3549                           ; BSR set to: 0
  3550  000FDA  0012               	return		;funcret
  3551  000FDC                     __end_of_MFRC522_Wr:
  3552                           	opt stack 0
  3553                           tblptru	equ	0xFF8
  3554                           tblptrh	equ	0xFF7
  3555                           tblptrl	equ	0xFF6
  3556                           tablat	equ	0xFF5
  3557                           prodh	equ	0xFF4
  3558                           prodl	equ	0xFF3
  3559                           intcon	equ	0xFF2
  3560                           intcon2	equ	0xFF1
  3561                           wreg	equ	0xFE8
  3562                           indf2	equ	0xFDF
  3563                           postinc2	equ	0xFDE
  3564                           postdec2	equ	0xFDD
  3565                           fsr2h	equ	0xFDA
  3566                           fsr2l	equ	0xFD9
  3567                           status	equ	0xFD8
  3568                           
  3569 ;; *************** function _MFRC522_Rd *****************
  3570 ;; Defined at:
  3571 ;;		line 119 in file "rfid.h"
  3572 ;; Parameters:    Size  Location     Type
  3573 ;;  Address         2    0[BANK0 ] unsigned int 
  3574 ;; Auto vars:     Size  Location     Type
  3575 ;;  i               2    8[BANK0 ] unsigned int 
  3576 ;;  ucResult        2    6[BANK0 ] unsigned int 
  3577 ;;  ucAddr          2    4[BANK0 ] unsigned int 
  3578 ;; Return value:  Size  Location     Type
  3579 ;;                  2    0[BANK0 ] unsigned int 
  3580 ;; Registers used:
  3581 ;;		wreg, status,2, status,0
  3582 ;; Tracked objects:
  3583 ;;		On entry : 0/0
  3584 ;;		On exit  : 0/0
  3585 ;;		Unchanged: 0/0
  3586 ;; Data sizes:     COMRAM   BANK0   BANK1   BANK2   BANK3   BANK4   BANK5   BANK6   BANK7
  3587 ;;      Params:         0       2       0       0       0       0       0       0       0
  3588 ;;      Locals:         0       6       0       0       0       0       0       0       0
  3589 ;;      Temps:          0       2       0       0       0       0       0       0       0
  3590 ;;      Totals:         0      10       0       0       0       0       0       0       0
  3591 ;;Total ram usage:       10 bytes
  3592 ;; Hardware stack levels used:    1
  3593 ;; Hardware stack levels required when called:    6
  3594 ;; This function calls:
  3595 ;;		Nothing
  3596 ;; This function is called by:
  3597 ;;		_MFRC522_Clear_Bit
  3598 ;;		_MFRC522_Set_Bit
  3599 ;;		_MFRC522_AntennaOn
  3600 ;;		_MFRC522_ToCard
  3601 ;;		_MFRC522_CRC
  3602 ;;		_MFRC522_Auth
  3603 ;; This function uses a non-reentrant model
  3604 ;;
  3605                           
  3606                           	psect	text25
  3607  000E4A                     __ptext25:
  3608                           	opt stack 0
  3609  000E4A                     _MFRC522_Rd:
  3610                           	opt stack 20
  3611                           
  3612                           ;rfid.h: 121: unsigned int i, ucAddr;
  3613                           ;rfid.h: 122: unsigned int ucResult = 0;
  3614                           
  3615                           ; BSR set to: 0
  3616                           ;incstack = 0
  3617  000E4A  0E00               	movlw	0
  3618  000E4C  0100               	movlb	0	; () banked
  3619  000E4E  6F67               	movwf	(MFRC522_Rd@ucResult+1)& (0+255),b
  3620  000E50  0E00               	movlw	0
  3621  000E52  6F66               	movwf	MFRC522_Rd@ucResult& (0+255),b
  3622                           
  3623                           ; BSR set to: 0
  3624                           ;rfid.h: 123: PORTBbits.RB1 = 0;
  3625  000E54  9281               	bcf	3969,1,c	;volatile
  3626                           
  3627                           ; BSR set to: 0
  3628                           ;rfid.h: 124: PORTCbits.RC2 = 0;
  3629  000E56  9482               	bcf	3970,2,c	;volatile
  3630                           
  3631                           ; BSR set to: 0
  3632                           ;rfid.h: 125: ucAddr = ((Address << 1)&0x7E) | 0x80;
  3633  000E58  C060  F062         	movff	MFRC522_Rd@Address,??_MFRC522_Rd
  3634  000E5C  C061  F063         	movff	MFRC522_Rd@Address+1,??_MFRC522_Rd+1
  3635  000E60  90D8               	bcf	status,0,c
  3636  000E62  0100               	movlb	0	; () banked
  3637  000E64  3762               	rlcf	??_MFRC522_Rd& (0+255),f,b
  3638  000E66  3763               	rlcf	(??_MFRC522_Rd+1)& (0+255),f,b
  3639  000E68  0E7E               	movlw	126
  3640  000E6A  0100               	movlb	0	; () banked
  3641  000E6C  1762               	andwf	??_MFRC522_Rd& (0+255),f,b
  3642  000E6E  0E00               	movlw	0
  3643  000E70  1763               	andwf	(??_MFRC522_Rd+1)& (0+255),f,b
  3644  000E72  0E80               	movlw	128
  3645  000E74  0100               	movlb	0	; () banked
  3646  000E76  1162               	iorwf	??_MFRC522_Rd& (0+255),w,b
  3647  000E78  0100               	movlb	0	; () banked
  3648  000E7A  6F64               	movwf	MFRC522_Rd@ucAddr& (0+255),b
  3649  000E7C  0100               	movlb	0	; () banked
  3650  000E7E  5163               	movf	(??_MFRC522_Rd+1)& (0+255),w,b
  3651  000E80  0100               	movlb	0	; () banked
  3652  000E82  6F65               	movwf	(MFRC522_Rd@ucAddr+1)& (0+255),b
  3653                           
  3654                           ; BSR set to: 0
  3655                           ;rfid.h: 127: for (i = 8; i > 0; i--)
  3656  000E84  0E00               	movlw	0
  3657  000E86  0100               	movlb	0	; () banked
  3658  000E88  6F69               	movwf	(MFRC522_Rd@i+1)& (0+255),b
  3659  000E8A  0E08               	movlw	8
  3660  000E8C  6F68               	movwf	MFRC522_Rd@i& (0+255),b
  3661  000E8E  0100               	movlb	0	; () banked
  3662  000E90  5168               	movf	MFRC522_Rd@i& (0+255),w,b
  3663  000E92  0100               	movlb	0	; () banked
  3664  000E94  1169               	iorwf	(MFRC522_Rd@i+1)& (0+255),w,b
  3665  000E96  B4D8               	btfsc	status,2,c
  3666  000E98  D01A               	goto	l2267
  3667                           
  3668                           ; BSR set to: 0
  3669                           ;rfid.h: 128: {
  3670                           ;rfid.h: 129: PORTDbits.RD0 = ((ucAddr & 0x80) == 0x80);
  3671                           
  3672                           ; BSR set to: 0
  3673                           
  3674                           ; BSR set to: 0
  3675  000E9A  0100               	movlb	0	; () banked
  3676  000E9C  AF64               	btfss	MFRC522_Rd@ucAddr& (0+255),7,b
  3677  000E9E  D004               	goto	u1330
  3678  000EA0  0100               	movlb	0	; () banked
  3679  000EA2  6B62               	clrf	??_MFRC522_Rd& (0+255),b
  3680  000EA4  2B62               	incf	??_MFRC522_Rd& (0+255),f,b
  3681  000EA6  D002               	goto	u1348
  3682  000EA8                     u1330:
  3683  000EA8  0100               	movlb	0	; () banked
  3684  000EAA  6B62               	clrf	??_MFRC522_Rd& (0+255),b
  3685  000EAC                     u1348:
  3686  000EAC  5083               	movf	3971,w,c	;volatile
  3687  000EAE  0100               	movlb	0	; () banked
  3688  000EB0  1962               	xorwf	??_MFRC522_Rd& (0+255),w,b
  3689  000EB2  0BFE               	andlw	-2
  3690  000EB4  1962               	xorwf	??_MFRC522_Rd& (0+255),w,b
  3691  000EB6  6E83               	movwf	3971,c	;volatile
  3692                           
  3693                           ; BSR set to: 0
  3694                           ;rfid.h: 130: PORTBbits.RB1 = 1;
  3695  000EB8  8281               	bsf	3969,1,c	;volatile
  3696                           
  3697                           ; BSR set to: 0
  3698                           ;rfid.h: 131: ucAddr <<= 1;
  3699  000EBA  0100               	movlb	0	; () banked
  3700  000EBC  90D8               	bcf	status,0,c
  3701  000EBE  3764               	rlcf	MFRC522_Rd@ucAddr& (0+255),f,b
  3702  000EC0  3765               	rlcf	(MFRC522_Rd@ucAddr+1)& (0+255),f,b
  3703                           
  3704                           ; BSR set to: 0
  3705                           ;rfid.h: 132: PORTBbits.RB1 = 0;
  3706  000EC2  9281               	bcf	3969,1,c	;volatile
  3707                           
  3708                           ; BSR set to: 0
  3709  000EC4  0100               	movlb	0	; () banked
  3710  000EC6  0768               	decf	MFRC522_Rd@i& (0+255),f,b
  3711  000EC8  A0D8               	btfss	status,0,c
  3712  000ECA  0769               	decf	(MFRC522_Rd@i+1)& (0+255),f,b
  3713  000ECC  D7E0               	goto	L2
  3714  000ECE                     l2267:
  3715                           
  3716                           ; BSR set to: 0
  3717                           ;rfid.h: 133: }
  3718                           ;rfid.h: 135: for (i = 8; i > 0; i--)
  3719  000ECE  0E00               	movlw	0
  3720  000ED0  0100               	movlb	0	; () banked
  3721  000ED2  6F69               	movwf	(MFRC522_Rd@i+1)& (0+255),b
  3722  000ED4  0E08               	movlw	8
  3723  000ED6  6F68               	movwf	MFRC522_Rd@i& (0+255),b
  3724  000ED8                     l2269:
  3725                           
  3726                           ; BSR set to: 0
  3727  000ED8  0100               	movlb	0	; () banked
  3728  000EDA  5168               	movf	MFRC522_Rd@i& (0+255),w,b
  3729  000EDC  0100               	movlb	0	; () banked
  3730  000EDE  1169               	iorwf	(MFRC522_Rd@i+1)& (0+255),w,b
  3731  000EE0  B4D8               	btfsc	status,2,c
  3732  000EE2  D017               	goto	l68
  3733                           
  3734                           ; BSR set to: 0
  3735                           ;rfid.h: 136: {
  3736                           ;rfid.h: 137: PORTBbits.RB1 = 1;
  3737                           
  3738                           ; BSR set to: 0
  3739  000EE4  8281               	bsf	3969,1,c	;volatile
  3740                           
  3741                           ; BSR set to: 0
  3742                           ;rfid.h: 138: ucResult <<= 1;
  3743  000EE6  0100               	movlb	0	; () banked
  3744  000EE8  90D8               	bcf	status,0,c
  3745  000EEA  3766               	rlcf	MFRC522_Rd@ucResult& (0+255),f,b
  3746  000EEC  3767               	rlcf	(MFRC522_Rd@ucResult+1)& (0+255),f,b
  3747                           
  3748                           ; BSR set to: 0
  3749                           ;rfid.h: 139: ucResult |= (int) PORTDbits.RD1;
  3750  000EEE  A283               	btfss	3971,1,c	;volatile
  3751  000EF0  D004               	goto	u1370
  3752  000EF2  0100               	movlb	0	; () banked
  3753  000EF4  6B62               	clrf	??_MFRC522_Rd& (0+255),b
